:020000040800F2
:10200000C02F002085210008FF480008712D00081E
:10201000FD480008472A00089D6F000800000000E6
:10202000000000000000000000000000A14E0008B9
:10203000492A0008000000009F4E0008A54E000835
:102040009F2100089F2100089F2100089F21000870
:102050009F2100089F2100089F2100089F21000860
:102060009F2100089F2100089F2100089F21000850
:102070009F2100089F2100089F2100089F21000840
:102080009F2100089F2100089F2100089F21000830
:102090009F2100089F2100089F2100089F21000820
:1020A000016400089F2100089F2100089F2100086B
:1020B0009F2100089F2100089F2100089F21000800
:1020C0009F2100089F2100089F2100089F210008F0
:1020D0009F2100083D6F00089F2100089F210008F4
:1020E0009F2100089F2100089F2100080000000098
:1020F00000000000000000000000000000000000E0
:10210000000000009F21000831640008000000006A
:102110009F2100089F21000800000000000000002F
:102120009F2100089F2100089F2100089F2100088F
:10213000000000000000000000000000000000009F
:102140000000000000000000000000009F210008C7
:1021500000000000000000009F2100089F210008EF
:102160000000000000000000000000009F210008A7
:10217000DFF80CD000F0A0F900480047B189000852
:10218000C02F00200648804706480047FEE7FEE7CC
:10219000FEE7FEE7FEE7FEE7FEE7FEE7FEE7FEE717
:1021A0008D630008712100082DE9FE4F804681EA09
:1021B0000300C00F0C46009021F0004123F00045C1
:1021C000B8EB0200A94105D24046214690461C4684
:1021D0000B46024623F00040104347D0270DC7F3BB
:1021E0000A00C3F30A510290401A019040286BDAAA
:1021F000C3F3130040F4801B0098924620B10023E3
:10220000D2EB030A63EB0B0B01985946C0F1400275
:10221000504600F069F906460D4650465946019A67
:1022200000F081F910EB08006141002487EA1152A7
:1022300084EAE7731A4340D0009A62B3019A012AF4
:102240004FEA075215DC001B61EB02014FF0004220
:1022500002EA0752CDE90042001C41F580113246E6
:102260002B4600F081F903B0BDE8F08F40462146CF
:10227000F9E7001B61EB0201001C41F58013001817
:102280005B412018A2F5001747EB030140EAD57027
:10229000B6196D4111E06D084FEA360645EAC07582
:1022A0004FEA0752001B61EB0201001C41F580114F
:1022B00049084FEA30000019514132462B4603B01D
:1022C000BDE8F04F00F041B9009801224000002322
:1022D000D0EB020263EBE073009821464FEAE07412
:1022E000B8EB000061EB0401E9E783F000435BE732
:1022F00081F0004158E72DE9FE4F81EA030404F024
:10230000004421F0004100944FF0000B23F0004303
:1023100050EA01045ED052EA03045BD0C3F30A54CE
:10232000C1F30A552C44A4F2F3340194A0FB0254E7
:10233000C1F3130141F48011C3F3130343F4801379
:1023400001FB024400FB034E840A970A44EA8154CD
:1023500047EA8357A4FB076802958D0A05FB0785AA
:102360004FEA932C04FB0C542705029D4FEA0658B4
:1023700047EA1637B5EB08056EEB070C870E920E91
:1023800047EA811742EA8312A7FB0201B6EB0B0171
:1023900064EB00042B0D43EA0C335E1844EB1C5035
:1023A000DA465146E7FB0201C5F313044FEA0B334B
:1023B00043EA14534FEA0432019C43EA0603A4F1B2
:1023C0000C040294009CCDE900B400F0CDF803B0F9
:1023D000BDE8F08F00200146F9E72DE9F04D81EAD4
:1023E000030404F0004B21F0004514464FF0000AAE
:1023F00023F0004150EA050220D054EA01021DD02A
:10240000C5F30A570246C5F31303C1F31300C1F322
:102410000A5640F4801543F48013A7EB0608101BFE
:10242000D64608F2FD3873EB050002D308F1010827
:1024300001E092185B41B8F1000F03DA0020014679
:10244000BDE8F08D00204FF48011064684460EE072
:10245000171B73EB050705D3121B63EB050306433C
:102460004CEA010C49084FEA300092185B4150EAEF
:102470000107EDD152EA030012D082EA040083EA98
:102480000501084305D0101BAB4106D201220023F1
:1024900006E000224FF0004302E06FF0010253100B
:1024A0001AEB06004CEB085110EB0A0041EB0B0154
:1024B000BDE8F04D00F049B81CB509480090094846
:1024C00001900546009C06E0E06840F0010394E8B6
:1024D000070098471034AC42F6D3FFF74DFE0000DA
:1024E0008CD00108ACD00108202A04DB203A00FA85
:1024F00002F1002070479140C2F1200320FA03F35B
:10250000194390407047202A04DB203A21FA02F058
:102510000021704721FA02F3D040C2F1200291401D
:10252000084319467047202A06DBCB17203A41FAA8
:1025300002F043EAE07306E041FA02F3D040C2F150
:102540002002914008431946704710B5141E73F1DC
:10255000000408DA401C41F1000192185B411A4363
:1025600001D120F0010010BD2DE9F04D92469B46AF
:1025700011B1B1FA81F202E0B0FA80F22032904655
:10258000FFF7B2FF04460F4640EA0A0041EA0B019A
:1025900053465A46084313D0114653EA010019D056
:1025A000C8F140025046FFF7AEFF05460E465046C2
:1025B00059464246FFF798FF084305D0012004E042
:1025C00020463946BDE8F08D0020054346EAE07616
:1025D0002C4337430A986305E40AA0EB0800002265
:1025E000FD0A44EA47540A3002D500200146E9E7D3
:1025F000010510196941DDE9084500196941BDE887
:10260000F04DA2E70EB540F2334102910021CDE931
:1026100000110A460B46FFF7A7FF03B000BD70B5D7
:10262000C1F30A5201F000450024C1F3130140F246
:10263000FF3341F480119A4201DA002070BD40F26C
:1026400033439A42A2F2334203DC5242FFF75BFF6C
:1026500000E090402C43F1D0404270BDD2B201E086
:1026600000F8012B491EFBD270470022F6E710B597
:1026700013460A4604461946FFF7F0FF204610BDF0
:10268000F0B480EA0102D40F4200B2EB410F02D253
:102690000246084611464A0042D0C30DDDB2C1F3DE
:1026A000C752AD1A202D35DAC1F3160141F40002EC
:1026B00004B15242C5F1200602FA06F12A41104443
:1026C000B3EBD05F23D0C4B1012DA0EBC35009DC24
:1026D000F0BC4FF0004202EAC352DBB200F500004A
:1026E00000F083B9400000F1807000EBC350A0F10E
:1026F000807040EAD170490009E0490841EAC071A0
:10270000A0EBC35000F50000400800EBC350F0BC44
:1027100000F062B96142012202EB4101001BF6E7C1
:10272000F0BC704781F00041AAE780F00040A7E7C5
:1027300080EA010210B502F00043400022D04A00B6
:102740001FD0010E01EB1261C0F35600C2F3560216
:1027500040F4000042F40002A0FB022000047F3994
:10276000140400D0401C50EA124001D44000491E1D
:10277000C2B20C0604EBD010401C4008802A02D0E4
:1027800003E0002010BD20F00100002900DA002045
:10279000184310BD30B480EA010202F0004530F069
:1027A000004221F0004013D090B1C30DD40DC2F30C
:1027B0001601C0F31600E41A41F4000140F40002CF
:1027C0007D34914201D3641C00E04900002C02DA00
:1027D00030BC002070474FF400000023914201D329
:1027E000891A034340084FEA4101F7D151B19142A0
:1027F00002D14FF0004105E002D24FF0010101E0AB
:102800006FF0010103EBC450284430BC00F0E4B881
:10281000002801DBC0F10040002901DBC1F10041CB
:10282000814201D80120704700207047002801DB59
:10283000C0F10040002901DBC1F10041814201D219
:102840000120704700207047002801DBC0F10040E4
:10285000002901DBC1F10041814201D30120704711
:1028600000207047002801DBC0F10040002901DB97
:10287000C1F10041814201D9012070470020704719
:10288000002801DBC0F10040002901DBC1F100415B
:10289000814201D1012070470020704730B5041EED
:1028A00071F1000404DB4FF00044404264EB01018D
:1028B000141E73F1000405DB1C464FF00043524226
:1028C00063EB0403801A994101D2012030BD00203E
:1028D00030BDC10F80EAE0700844CA07962300218A
:1028E00000F083B896230022114600F07EB800F075
:1028F000004220F00040C10DC0F3160040F400007B
:102900007F2901DA00207047962903DCC1F1960186
:10291000C84001E096398840002AF4D04042704710
:1029200020F00040C10DC0F3160040F400007F29E4
:1029300001DA00207047962903DCC1F19601C840F6
:102940007047963988407047C1F30A5210B5C1F3F9
:10295000130140F2FF3341F480119A4201DA002062
:1029600010BD40F233439A42A2F2334203DC52429A
:10297000FFF7C9FD10BD904010BD00F0004230F0DF
:1029800000400AD0C10D01F56071C0F3160042EAA3
:102990000151C208400711437047002001467047AB
:1029A00001F0004330B421F0004150EA010206D0AA
:1029B0000A0DA2F56072C1F31301002A02DC30BCDB
:1029C00000207047440F44EAC104C100E01830BC45
:1029D00000EBC250AFF300800029A8BF7047401C35
:1029E000490008BF20F00100704710B4B0FA80FC25
:1029F00000FA0CF050EA010404BF10BC704749B162
:102A0000CCF1200421FA04F411FA0CF118BF0121D1
:102A100021430843A3EB0C01CB1D4FEA00614FEAB1
:102A2000102042BF002010BC704700EBC350104480
:102A30000029A4BF10BC7047401C490008BF20F00B
:102A4000010010BC7047FEE7704700002DE9F84F09
:102A500041F6A309622A88460546DFF890A09B4606
:102A6000CDF8009028BF6222052A98BF0522C2F146
:102A70006400A62148436421424680B2B0FBF1F7CE
:102A80002846532107F153063346D0470A9831466A
:102A90000F220F230090681E84B2204603F00AFF25
:102AA0006137284642464FF48073CDF800B039466E
:102AB000D047204653212A463346CDF80090D047D0
:102AC000204639462A4602F0D6F908F10100532182
:102AD0003346CDF8009084B240462246D047404667
:102AE0003946224602F0C7F9BDE8F88F132F0008D7
:102AF000438E4FF6FF7293421CBF5A1C428670B53C
:102B0000CB1C0021062B24D8DFE803F00423142378
:102B10000823200002F04DF804211AE0038C4186BE
:102B20009A4238BF012180F834104FF0010138BFBC
:102B300009210EE0038C41869A4238BF012180F8BA
:102B400034104FF0020138BF0A2102E002F031F8E0
:102B50000321024612F8305F12F8093C12F8036CA8
:102B6000DCB202F8033C84F001033343B3FA83F38D
:102B70005B094DB1002B5ED0002280F83020C28569
:102B8000826280F82C2056E0458D6DB1013D45856F
:102B90002D0401D0002508E090F82C50012D03D120
:102BA000002102F006F805210125BCB1002B42D01E
:102BB000024632F8283F32F8104CA34239D3448BF6
:102BC000A3422FD290F82C3085F00104013B18BFAE
:102BD000012323432DD1838B43852AE0038D048B6E
:102BE000013303859BB2A3420AD12DB990F82C4042
:102BF000012C01D1062101E000F12C020124147006
:102C0000428B934217D3C38DC28B01339CB2B4FB6A
:102C1000F2F505FB1242002A18BF1A46C28508BF0A
:102C2000082108E0002180F83010C1851160117181
:102C3000072100201080084670BD2DE9F04701688B
:102C400082888B68816886898D680469818AA46816
:102C500005EA0607BD1B04EA010CB5FA85F5ACEBE5
:102C600001044FEA551E90F82450B4FA84F4640924
:102C700080F8264080F8274003EA0204A31AB3FA3A
:102C800083F34FEA531A837D1BB355452ED0B7EB20
:102C9000060918BF4FF0010990F82580B8F101032B
:102CA00018BF0123BD1BB5FA85F56D091D4394427C
:102CB0001FD165B1B8F1000F08BFB7423DD0A8EBF6
:102CC0000E02B2FA82F2520912EA090F3DD0012532
:102CD0001EE055450AD04FF0FF35B74280F825E099
:102CE00080F824A008BF0125944217D102200025B6
:102CF0001DE065B1B8F1000F08BFB74221D0A8EBC5
:102D00000E02B2FA82F2520912EA090F27D0FF2509
:102D10004FF0000E80F825E080F824A0EAB26FF0B2
:102D20000200012A08BF0320002A08BF02208C45A8
:102D300018BF054668B2BDE8F087FF254FF0010EC9
:102D4000E8E74FF0010E0125E4E787EA060288EA8A
:102D50000E031A43B2FA82F252095542DAE787EAC1
:102D6000060288EA0E031A43B2FA82F25509D1E745
:102D7000FEE700002DE9F84FDFF88CB007462A2067
:102D8000984692468946D8477C4C4FF40045380A0D
:102D90007B494FF480666560C4F8FC03F8B20E60AE
:102DA000C4F80068256065600F46C4F8FC034FEA6C
:102DB0001A200E6001F053FE5FFA8AF00E6001F0F7
:102DC0004EFE2B200E60C4F800682560D8474FEAFD
:102DD000192065605946C4F8FC035FFA89F03E602B
:102DE00001F03DFE4FEA18203E6001F038FE5FFA28
:102DF00088F03E6001F033FE3E60C4F80068256054
:102E00002C20BDE8F84F0847C531000870B5164CB6
:102E10004FF6FF724FF6FF7394F8380094F83A10AB
:102E2000002818BF40F2DF12002918BF40F23F13FC
:102E3000002000210025FFF79DFF94F838000128AD
:102E400011D168090E280ED8002694F83A000128FE
:102E500007D1B009042804D8002000F0A5F90136F4
:102E6000F3E70135E9E770BD080100202DE9FE4FC9
:102E70000C46A3EB010B111A05460029029101DD56
:102E8000012008E005D00298404202904FF0FF3048
:102E900001E000200290BBF1000F019001DD01264E
:102EA00007E019BFCBF1000B4FF0FF364FF0000BDE
:102EB000002602985F464FF000084FF000094FF0DF
:102EC000000A584588BF07461FFA88F08742B8BFF6
:102ED000BDE8FE8FA8B2A1B202460B46FFF74AFF3B
:102EE0000C9800F061F90AEB0B0008F10108B842F8
:102EF000C8BF34440299019A4944B942C8BF154435
:102F0000B0EB070AD8BF8246B1EB0709D8BF8946A4
:102F1000DAE72DE9F8438146501E154698460E46DD
:102F200082B2581E83B24846FFF724FF089CB0B215
:102F3000404528BFBDE8F8834F46B8B2A84204D246
:102F4000204600F031F90137F7E70136EFE70000DE
:102F500010B5002007F018F9A548A44A4FF4004125
:102F60004FF4006341601360D0F8F843C0F80038B4
:102F70000160102007F008F9A0B210BD1008014050
:102F8000141001402DE9F04F87B0119F1C46904668
:102F900000EB5702CB1901F0A9FE01203909109E60
:102FA0004FF0000B17F00E0F18BF00EB171101FBCD
:102FB00007F00690A8F120004FF4C8717D084FF08B
:102FC0000008C2B22D48059212FB010004902F4860
:102FD00000EB021003902B4800EB8210029028486F
:102FE00000EB022001900698804543D0502F16D068
:102FF000102F18D00598182F00EB400009D0202F73
:103000000FD0402F09D00C2F34D1214901EB800083
:103010000AE01D4901EB001006E0019804E0049865
:1030200002E0029800E0039840440BF108074FF0DB
:10303000000A90F80090BAF1080F13D029FA0AF0AC
:10304000C007204608BF304600F0AEF80BF1010B78
:103050001FFA8BF0B0FBF5F101FB150020B10AF16E
:10306000010AE8E7BB4601E04FF0000B119F08F1B1
:103070000108B8E707B0BDE8F08F00BFB03B01081A
:10308000B0DC0008F0C4000820B3000830AD000830
:10309000BCA800082DE9FE4F07460D9899469246B8
:1030A0000E4600254FF00A084FF0000B4408032D90
:1030B00008BFBDE8FE8FC5F102000121020604D061
:1030C00001EB810101384900F8E7BAFBF1F0BBF1EF
:1030D000000FB0FBF8F101EB8101A0EB410105D13C
:1030E000012D03D8080410D04FF0010BDDE90C20AE
:1030F00041F030014B46CDE9002005FB0470CAB217
:10310000314601F042FC0135D1E7DDE90C103022F7
:103110004B46CDE9001005FB0470314601F035FC4B
:103120004FF0000BEFE72DE9FC47DDF828809946CA
:1031300015460E4607464FF0000A4FEA58042A7813
:103140004AB1B8B231464B46CDE900A8FFF71AFFA5
:1031500027440135F3E7BDE8FC8700002DE9FE4F69
:103160001C469046894683465D0800260FF2300AC9
:103170000027072F08BFBDE8FE8F781EC0B20528C4
:103180000AD81AF800200BEB060049464FF6FF73E9
:10319000CDE9008401F0F9FB2E440137E9E700BFD7
:1031A00056312E302E39000011494FF400424FF4B1
:1031B00080634A60C1F8FC030C480360C1F8003822
:1031C0000A60704710B50949094B4FF480524FF41B
:1031D00000440A605C60C3F8FC034FF48060086040
:1031E000C3F80008C3F800281C6010BD141001408B
:1031F000100801402DE9F04F95B0DFF868AE9AF85D
:103200001C0001282BD0002841F01E83DFF858BE97
:103210009BF8E60302282BD1DBF8B040D44901F03B
:10322000B6FD00286FD0D24901F0F3FC002840F031
:10323000B7809BF8C003002840F0B2809AF82400C1
:10324000002840F0AD809AF8250001308AF825006A
:10325000C0B2032824BF0120AAF824006FE09AF826
:103260003000012808D1DFF8000E90F8D1031CE0EF
:1032700000208AF8240093E07F2000214FF4F072B0
:103280001E230090002003F015FB40F29F10082140
:1032900043F286121023FFF761FF0120DFF8C81DFB
:1032A0008AF83000FF2081F8D103DFF8BC8D98F850
:1032B000D01388420FD03F20012908BF3E20009044
:1032C0004FF4C77006211522152303F0F3FA98F87E
:1032D000D00388F8D10398F8C90398F8CA1381423B
:1032E00034D0012803D098F8CB13012929D17020BC
:1032F00003212A221823009040F2631003F0DAFA27
:1033000098F8C90320E09AF8230001308AF82300D6
:10331000C0B215280AD300208AF823009AF82200A8
:10332000013000F003008AF8220001E09AF8220040
:1033300000218AF82410DFE800F0022A262856200F
:1033400026E000218AF8301088F8CA0398F8E603CE
:103350004FF6FF7B00F0FE0102294FF6FF7140F0AF
:103360009A8798F8C41398F8C5238A4200F0E2803F
:10337000032900F2D980DFE801F002CFCBCD012094
:1033800088F8E703D0E0582002E0592000E05720F9
:1033900000904FF4D77028212422222303F08AFAC8
:1033A0009BF8E80301280FD1DFF8C00C81694A1EA1
:1033B0000029826108DC00218BF8E8134FF4967134
:1033C000816117208BF8E6039AF820109BF8C6035A
:1033D00019B108BB9BF8C2130CE0012101288AF83F
:1033E00020100CD0C0B99BF8C213012909D80220C3
:1033F0008BF8E6030020022938BF012002E00320F9
:1034000008E000209BF8E61301F0FE01022903D139
:1034100010B102208BF8E6039BF8E6039BF8E72344
:103420004FF6FF71824200F0D580DFF8402C514BFF
:103430008BF8E703D1815049FF22CBE90433CBF865
:103440003830CBF830308BF8B9238BF8CE238BF89B
:10345000D4238BF8C7238AF81E20CBF81C10CBF896
:103460005410CBF8081001F0C5FACBF89C10CBF83B
:103470004410CBF8A410CBE92311CBF894109BF89F
:10348000C41309B18BF8C523A0F11D01CAB2202ACB
:1034900004D300F17F02D2B2012A22D89AF8212067
:1034A00082B904201E214FF4F0724FF49173009002
:1034B000002003F0FFF901208AF821009BF8E603C1
:1034C000A0F11D01C9B2062904D3A0F12D01C9B292
:1034D0000D2911D800904F2046214FF4A172A52349
:1034E00076E00021009000204FF4F0724FF49173C9
:1034F0008AF821101E216BE0A0F12301C9B207292F
:103500004DD8009050203B2140F23F12BB235FE09A
:10351000462002E0442000E0422000907B207B21F6
:10352000EB22672303F0C6F998F8C41398F8E60372
:1035300088F8C51302284FF6FF7140F0AC8698F862
:10354000C003022804D0012818D0002840F0648667
:1035500018200024342100224FF6FF73CDE90040EB
:1035600040F24510FFF796FDAAF8524000F054BE15
:103570000000A04200007A4400007F4398F8C20394
:10358000012802D198F8D90320B198F8C943022C38
:1035900040F00A850020AAF8520000F03DBEA0F1DC
:1035A000810102290ED3A0F13B0102290AD3A0F127
:1035B0002B0101290ED80090482058214FF4A87201
:1035C000822305E00090092057214FF4E7728423FD
:1035D00003F070F99AF8280001280DD0002840F077
:1035E0004B81BBF8BA0390B19BF8E663022E27D05B
:1035F000032E2AD1192124E0BBF8BC0380B19BF82B
:10360000E663022E55D0032E58D1192152E09AF8C4
:103610003100002800F0898001388AF8310005E186
:10362000DBF89840DBF8A00001F0E1FA002840F058
:10363000C28001F06BFB40F01C81DBF8B450C4E0A9
:103640000521D0FA51F0ABF8BA030020CBE9020013
:10365000CBE90400DBE9064001F0C9FA30B901F01A
:1036600055FB40F0E380DBF820500AE0DBE908502E
:1036700001F0C0FA002840F0D98001F047FB40F08B
:10368000D5809BF8CD03CBF82450CBF81C40002804
:1036900008BF254601F0ECFA0446022E00F0BC807B
:1036A000032E40F0C38001F05AF940F289105021F6
:1036B000B8E00521D0FA51F0ABF8BC039BF8C97310
:1036C000022F04D0E348CBF8B800CBF8A000DBE928
:1036D000264001F08CFA30B901F018FB40F0C980A7
:1036E000DBF8BC500BE0DBE92F5001F083FA00213E
:1036F000002840F0BF8001F009FB40F0BB80CBF810
:10370000C050CBF89C40022F08BF2C4601F084FA31
:103710000446022E00F08E80032E40F0AA8001F0B5
:103720001EF94FF4CA70CD218CE001F0EFFA7DD183
:103730009BF8CD03DBF828600128029040F06284FA
:10374000DBF80080C44F40463946FEF7F1FFC34C1A
:103750002146FFF71FF801F054F90546CBF80400A5
:1037600030463946FEF7E4FF2146FFF713F801F033
:1037700048F9FFF7BCF89BF8C9730446012F40F0E5
:103780007F84B74901F04BFA054601F0E5F80146A0
:1037900001F045FA0446DBF8D000AF49DBF84C6095
:1037A000FEF7C6FFAD49FEF7F5FF01F02AF9014625
:1037B000204600F040BCDBE92D5001F01BFA00214F
:1037C000002857D101F0A2FA54D19BF8C0139BF8FE
:1037D000C2239BF8D9339BF8E603CBF8B850CBF85B
:1037E000A040090608BF254682F00101DAB2114364
:1037F00018BF2546CAF87050022826D0032838D1B1
:1038000001F036FA0246202043F28611CDE900107D
:103810004FF4CA70CD2128E05E2001F003FA01F0D8
:10382000F4F878214FF66143FFF734FC9AF828004A
:10383000411C1FE0622001F0E0F901F0E6F84FF4CE
:103840008770782143F67F4311E0602001F0D5F9BD
:10385000DAF87000FFF74BF80246502041F6A3015A
:10386000CDE900104FF4877078214FF6FF73FFF712
:1038700011FC00218AF828109BF8E603022800F0CA
:10388000CA80032840F0E2809AF81F0058B900204F
:1038900029214FF4BC72FA2300901220FFF739FB64
:1038A00001208AF81F00DBF800406E49DBF8485021
:1038B00001F089F99BF8C973012F18BF2046FFF763
:1038C00016F80446FFF705F801462846FEF7CAFF3A
:1038D000064601F0CDF90546002E08BF25469BF8A7
:1038E000D903B421012808BF98219BF8C2030128FD
:1038F00018BF98215BF80100FEF7F9FF04469BF81A
:10390000C00338B1DBF8B0005749FEF78FFF00283D
:1039100000F05A81002401F0F9F940F0BB8028B290
:10392000FEF7D7FF51490546FEF78EFF504E00289F
:103930001CBF0025C4F2FA3528463146FEF768FF61
:103940004C4A00281CBF0025C4F2C8252846314631
:1039500006F058FFAAF858002046FEF7C3FF464974
:1039600001F09BF900281CBF0024C4F24834204613
:1039700000210026FEF74CFF0028404A18BF002413
:103980002046002106F03EFFAAF85A0040F26517D3
:1039900044F638494FF0000ABA4571D00AF11200D6
:1039A0000BEB0A08009684B20AF1140098F8EC10A8
:1039B00098F8ED3085B220462A46FFF757FA98F876
:1039C000521298F8533220462A460096FFF74EFAD4
:1039D000BAF5B27F14D04FF2604098F8EE3098F804
:1039E000ED102A4600902046FFF740FA98F854322E
:1039F00098F8531220462A46CDF80090FFF736FA81
:103A000098F8ED000AF1010A88F8EC0098F85302E2
:103A100088F85202C0E7DBE90045DBF8100001F04E
:103A2000E6F8002840F0C580BBF8BA139BF8CD0338
:103A30000029CBE9044500F0D080002800F0D980AF
:103A4000DBF820000649FEF71BFECFE000208AF8D5
:103A50001F0030E100007F43000010410000A04043
:103A60000000F4C2000048C20000F0410000FA4328
:103A70000000C842000016440000484300007A439A
:103A8000DFF804AEBAF858008BF85102BAF85A00C1
:103A90008BF8B703DFF80C6E002448F20F454FF0A7
:103AA0002A084727BCB1052C2DD004FB08F04FF4A1
:103AB000BC720095283081B212200B46FFF7D6F970
:103AC00004FB07F02821FA230095123080B2024649
:103AD000FFF7CCF915E0122028214FF4BC722823FF
:103AE0000095B047122028211222FA230095B047F2
:103AF0001220FA2101F061F94FF4BC70282101F085
:103B00005CF90134CEE773202A212F22192300907B
:103B1000142002F0CFFEDFF89C4D0C250FF68852E2
:103B20001520462101F03BF80FF68C52152070212C
:103B300001F035F80FF68C5215209A2101F02FF87C
:103B40000FF68C521520C42101F029F80FF68C5283
:103B50001520EE2101F023F874202A2117221723C3
:103B6000009040F25F1002F0A5FE0FF67C524FF479
:103B7000B270462101F003F80FF670524FF4B270A4
:103B8000702100F0FCFF0FF668524FF4B2709A21DA
:103B900000F0F5FF0FF65C524FF4B570C42100F051
:103BA000EEFF0FF654524FF4B870EE2100F0E7FF2D
:103BB00081E0DBF8140001F01DF8BBF8BA1300280F
:103BC0003FF434AF99B331E7022F7FF4A4AEDBF8B2
:103BD000BC00FEF78CFE04469DE69BF8C96358B115
:103BE000904901F01CF8012E18BF28468E4C8F4DCD
:103BF0000AE0DBF8180005E08D4900F0E4FF012E33
:103C000018BF20468B4C8C4DFEF7B7FE02460B4684
:103C100028462146FEF76FFBFEF701FD02466A20AB
:103C200027214FF6A04300901A20FEF70FFFDBF884
:103C30009840DBF8A400DBF8B45000F0D8FF10B9CE
:103C4000DBF8BC600CE0DBF8A800DBF8BC6000F03F
:103C5000D1FF28B1DBF8AC003146FEF711FE50BBB6
:103C60000BF1A40070C09BF8C003012809D19BF898
:103C7000C203012805D19BF8D90310B9BBF8BC03D6
:103C800028B19BF8C903022808BF3446254600F036
:103C9000EFFFFEF7B7FC694B00F055FEFEF7BFFCE7
:103CA00002466B204FF4E37140F25F43009040F214
:103CB000B910FEF7CBFE9BF8E603011F11F1020FCE
:103CC000C0F0CA8046F269605D214FF481724FF402
:103CD0009473ADF850003020109346F2685312915F
:103CE000CDE90C21CDE907219BF8B813119213906F
:103CF0000E9009905A20ADF83C30C12306909BF8F5
:103D0000B9030B9346F26743ADF82830884247D099
:103D100006AC012604F10805042E10D09BF8B90367
:103D2000864209D16F7AAB882A8835F8041C35F8A9
:103D3000080C009702F0BEFD14350136ECE79BF845
:103D4000B90308B104280DD300253C2D0AD066190B
:103D5000605BB3893289B188767C009602F0AAFD57
:103D60001435F2E79BF8B803411ECAB2022A0FD8F5
:103D7000900050FA81F134F8210004EB8104A3890A
:103D80002289A188247C009402F094FD9BF8B8035A
:103D9000B74900228BF8B9038AF8292000F02AFEDF
:103DA000002857D09AF82900002853D1DBE91A06D9
:103DB000DBF81850DBF82040FEF799FDADF8120053
:103DC00000F0E8FFADF81400DBF87000FEF78FFD9F
:103DD000ADF81600DBF87400FEF789FDADF80C00B5
:103DE000DBF87800FEF783FDADF80E00DBF87C0011
:103DF000FEF77DFDADF8100000F03AFF054600F03B
:103E00000BFF00210DF1120203AB032918D032F889
:103E10001140AC421ED033F8114001318442F4D13C
:103E200018E000BF0000F4C2E3A5BB3FD9CEF753B2
:103E3000000048C29999C93F9A9999990000E43FB6
:103E40008B48CBE93500CBE93700CBE939000120BD
:103E50008AF829009BF8E60300F0FE00022840F0F3
:103E60009E80DBF86840DBF8D400DBF8745000F08B
:103E7000BEFE20B1DBF8E00000F0BCFE98B99BF874
:103E8000CD03012808BF2C4600F0C6FE00F05EFE00
:103E9000602000F03DFEDBF86800DBF87410CBF822
:103EA000D400CBF8E010DBF86C40DBF8D800DBF88E
:103EB000785000F09CFE20B1DBF8E40000F09AFEA0
:103EC00098B99BF8CD03012808BF2C4600F0A4FE4A
:103ED00000F03CFEC72000F01BFEDBF86C00DBF8B6
:103EE0007810CBF8D800CBF8E410DBF87040DBF8A2
:103EF000DC00DBF87C5000F07AFE20B1DBF8E80053
:103F000000F078FEA0B99BF8CD03012808BF2C462D
:103F100000F082FE00F01AFE4FF4977000F0F8FDFA
:103F2000DBF87000DBF87C10CBF8DC00CBF8E81095
:103F3000DBF88040DBF88C0000F059FE50B900F04F
:103F40006BFE00F003FE8D2000F0E2FDDBF8800048
:103F5000CBF88C00DBF88440DBF8900000F047FEE3
:103F600050B900F059FE00F0F1FDF42000F0D0FD52
:103F7000DBF88400CBF89000DBF88840DBF8940095
:103F800000F035FE58B900F047FE00F0DFFD40F2CA
:103F90005B1000F0BDFDDBF88800CBF894009AF8C8
:103FA0001C00013000F04EBCD8F80000D8F82810F2
:103FB000D8F81870FEF7B6FBFEF799FC012C08BF85
:103FC000323800B2FEF785FC2A4905463846FEF72E
:103FD00057FB29468146FEF729FC27490446384607
:103FE000FEF74EFB064634B930462946FEF73AFC4A
:103FF000002800F0CB8030462946FEF709FC28BB9C
:10400000012000E186F00040FEF771FC9BF8C973C7
:10401000DBF800800446012F40F0A180174900F032
:10402000CBFC054600F098FC014600F0F8FDDBF8FB
:104030004860DBF8D010FEF723FBFEF758FC05467E
:10404000FEF747FC00F06FFE012735E048462946A1
:10405000FEF7FAFB002840F0DB8000208AF82600FB
:10406000D4E000BF08010020CC1700200000002091
:1040700000007F430000C8420000C8C2000048C2E0
:1040800000F06AFC014600F0CAFD0446DBF8D000EF
:10409000E549DBF84C60FEF74BFBE449FEF77AFBA1
:1040A00000F0AFFC014600F08EFDFEF720FC054657
:1040B000FEF70FFC00F037FE10B100F06BFE054676
:1040C000142041468AF83100DBE90160FEF7D8FB95
:1040D0009BF8E69338B1DBF80C003146FEF7D0FBD5
:1040E00000287FF4A3AB022FCBE9028615D09BF802
:1040F000D303012811D19AF83200002864D0029924
:104100000BF11800012908BF0BF120000068FEF731
:10411000EEFB0546CAF8740001E0CAF87450B9F124
:10412000030F0FD0B9F1020F7FF480AB5C2000F0D9
:1041300079FDBAF87420502041F6A301CDE90010B2
:10414000782108E0202043F28611AAB2CDE90010C0
:1041500040F2891050214FF6FF73FFF765BB00F066
:10416000FBFB014600F028FCDBF8D010DBF84860D0
:10417000FEF786FAFEF7BBFB0546FEF7AAFB0146F3
:104180003046FEF745FB002897D099E79AF82700BC
:10419000022837D1DFF8F406018A0139018209B219
:1041A000002935DC3221018238462946FEF7BAFA69
:1041B000FEF79DFB01B280EAE130A0EBE13000B2F6
:1041C0000128D8BF012021E02846CAF87450FEF724
:1041D00080FBDBF81860964904463046FEF750FA3B
:1041E0002146FEF73FFB002899D192493046FEF761
:1041F00047FA2146FEF71AFB002890D101208AF8E1
:1042000032008CE702208AF826006420AAF85200C7
:104210009AF826008AF82700DFF87016BAF85200DC
:10422000C98981423AD0C0B2642828BF64200128DD
:1042300098BF0120C0F16400FEF754FB7E49FEF7F1
:10424000A9FA7E49FEF774FAFEF751FBC0F58770B4
:1042500044F25071432384B20091CF203F21224683
:10426000FEF757FE41F6A3003F214FF48772432328
:1042700000902046FEF74DFEBAF85220182000218B
:104280004FF6FF73CDE9001040F245103421FEF7E0
:1042900001FFBAF85210DFF8F405C18198F8E6730F
:1042A00007F0FD002D2804D1D8F82C50D8F8344060
:1042B00007E0D8F81850D8F82040C8F82C50C8F8B3
:1042C0003440D8F83000D8F8386000F093FC18B1CA
:1042D000304600F08CFC28BB47F00200C8F838409C
:1042E000C8F830502F281DD198F8CD0398F8DC631A
:1042F000002808BF2C4600F08FFC0246202043F225
:1043000066114FF6FF73CDE90010F0B2022808BF26
:104310004FF4FC634FF487702F2F18BF5B46962134
:10432000FEF7B8FE9AF82A0058BB0120D8F81860AA
:10433000D8E91A548AF82A00D8F80000FEF7D7FA0C
:1043400000EBC0000527B0FBF7F0203080B2FEF78D
:10435000C9FAC8F8040000F01DFD00F0ECFCC8F834
:10436000200000F085FC00F0E6FCC8F8740000F0C6
:1043700053FC00F0E0FC00F0D0FC00F0DCFCC8F8DE
:104380007C0098F8CD9398F8CE734F452DD0D8F88F
:104390000000D346D8F81860D8E91A5AFEF7A7FAF1
:1043A00000EBC0000524B0FBF4F0203080B2FEF733
:1043B00099FAC8F8040000F0EDFC00F0F6FCC8F82B
:1043C000200000F055FC00F0F0FCC8F874005046E6
:1043D000DA464FF6FF7BFEF78AFA00F0E6FC00F0C3
:1043E0009CFC00F0E2FCC8F87C009AF81D0006284E
:1043F00000F22782DFE800F00484244809A2BF000D
:104400004F4540F0CB80012019E298F8E6033728A9
:1044100040F0168198F8DD03012800F0078100289C
:1044200040F00A826F2002E1000010410000A0402D
:10443000000020C1000020410000C84200007C4272
:1044400098F8E603232840F0A78098F8DF030138A6
:10445000C1B2032900F2A080C000DFF83C547821EB
:1044600014221423C4B2BD4800F02DFCBC4EA1217F
:104470001422142306F57F4000F025FC26FA04F0F0
:10448000CA2114221423B6E198F8E603A0F123010F
:1044900000F0A9FA00F2D081012202FA01F140F6FF
:1044A0006162114200F0C8812D2808D0352806D05D
:1044B000372802D198F8DD1309B1392804D14E20EC
:1044C00000F0CFFB98F8E6032F2805D0372808D155
:1044D00098F8DD13012904D1512000F0C2FB98F8AF
:1044E000E603232840F0A88198F8DF03512104282F
:1044F00008BF4E210091C420FF2158222D2337E010
:1045000098F8E603A0F11D0100F06DFA00F2948125
:10451000012202FA01F140F67742114200F08C814B
:104520001D2840F0BA8098F8CC03002800F0AC8039
:10453000012840F0B2808924B121A7E098F8C00397
:104540009AF81E10814200F0778198F8C913022969
:1045500000F0728198F8E61300288AF81E0056D100
:10456000022954D14020282196224B230090A520D7
:1045700002F0A0F960E19AF82D2098F8C913022AF8
:104580001DD102291BD098F8E6038AF82D100228C5
:1045900040F068817C205EE1032050E198F8E6035A
:1045A000022825D198F8C41311BBB9F1010F00F00E
:1045B0002F81B9F1000F40F03B814C2029E1002010
:1045C000022A00F03C81022940F0398102208AF859
:1045D0002D0098F8E603022840F0448198F8D603AD
:1045E000002800F03481012840F034817E202FE142
:1045F0002F2818BF2D2840F00181B9F1010F00F0DC
:104600000E81B9F1000F40F01381482008E1012824
:1046100008BF022940F0108198F8D603002800F066
:104620002381012840F023817E201EE16C20009030
:10463000CD20BE214622202302F03CF998F8E60363
:10464000352840F0F980EC20832143F266122023C4
:104650004FF0EC0843F266152026FEF77FFD002799
:104660008BA4072F00F0E880781EC0B2052809D877
:10467000225C08EB0710B5214FF6FF73CDE9005619
:1046800000F083F90137ECE7B12489215A2000F0CA
:1046900037F95B20214600F033F998F8E6031F282C
:1046A00012D198F8CF03012803D0A8BB8924B121E7
:1046B00001E0B12489215A2000F022F95B20214633
:1046C00000F01EF998F8E603212810D198F8D203DB
:1046D00020B101280BD18924B12101E0B124892125
:1046E0005A2000F00DF95B20214600F009F998F8F6
:1046F000E603312812D198F8D503012803D0D0BBA6
:104700008924B12101E0B12489215A2000F0F8F870
:104710005B20214600F0F4F898F8E603332810D126
:1047200098F8DB03012803D058B98924B12101E0AE
:10473000B12489215A2000F0E3F85B20214600F0E3
:10474000DFF898F8E603252817D198F8E103022846
:1047500008D0032870D18924B12105E0797A7A7ACA
:104760007A7A797AB12489215A2000F0C9F85B203D
:10477000214600F0C5F898F8E60327281ED198F8DE
:10478000E30300F00AFB57D8C000434D75212522F2
:104790001E23C4B2414800F096FA414E9E212522C4
:1047A0001E2306F57F4000F08EFA26FA04F0C7219A
:1047B00025221E2300F0BBF898F8E60329283BD1F8
:1047C00098F8E50300F0E9FA36D8C000324D7521BB
:1047D00025221E23C4B2314800F075FA304E9E21C6
:1047E00025221E2306F57F4000F06DFA26FA04F01C
:1047F000C72125221E2300F09AF81DE0032817D1B7
:10480000B9F1010F37D0B9F1000F11D14A2033E0CF
:104810004D200090C820AA211422152306E049202B
:1048200000904FF4A07099211C221B2302F042F843
:1048300098F8CD0388F8CE039AF81D0001308AF865
:104840001D0000208AF81C0015B0BDE8F08F7B2009
:1048500000F0EFF97520009091205021BE22232313
:1048600002F028F80020EAE77B2000F0E2F9074890
:10487000A0F80EB0E0E74B2000904FF4DC7054211C
:104880001A221823D2E700BF0801002000000020F0
:1048900056312E302E310000B56800085A5B5B009F
:1048A0005B5B5A006D2E00083530302839333229D1
:1048B0000000000027310008343030283735322915
:1048C0000000000033303028353732290000000066
:1048D000323030283339322900000000313030289E
:1048E00032313229000000003230300031353000E2
:1048F000313030003530000030000000FEE77047F6
:1049000025221E2300904FF4AA7001F0D3BF01208E
:104910008AF80D0000208AF83200502068614FF4B8
:104920007A70A9F8BA0399F8CD0301287047C0B28C
:1049300000904FF4AA70284795F83500013885F8A3
:104940003500000670470022FDF7D5BC0022FDF7B8
:104950002BBC2946FDF76ABF2046FDF7BABF2020D1
:1049600043F28611A2B2CDE900107047B4F860009E
:104970000130A4F8600080B270475846FDF780BE51
:10498000D9F820004FF04241704780B2FEF7FABAE2
:10499000BDF808100A31ADF808109DF80B10013170
:1049A0007047CDE90144ADF814407047656005F0EB
:1049B00011BC042002F052BB4046FDF761BE4FF42B
:1049C0007A704FF07E51704701F0070125F4E04501
:1049D00045EA013170472D2087F8E6030020704733
:1049E0000446FDF715BFCAB2C90141EA5201C9B276
:1049F0000B297047CBE93511CBE93711CBE93911D8
:104A000070474FF08441FDF73BBE502041F6A301B3
:104A1000A2B2CDE90010704781F82D20002131723B
:104A200002210228704700BF00BF00BF00BF00BFC7
:104A300000BF00BF00BF00BF00BF704797F8E6038C
:104A400000F0FE0102297047C9F82410C9E92311BA
:104A5000C9E92512C9F89C1089F8B8037047C4F851
:104A6000006825606560C4F8FC03704750F82100B9
:104A700052F821100068C9F818000968C9F89810A0
:104A80007047A7F8BC03D7F89800FDF7F9BDA7F861
:104A9000BC03D7F8BC00FDF7F3BDA9F8BC03D9F8F7
:104AA000BC00FDF7EDBD686101208AF80D004FF4F0
:104AB0007A70A9F8BC03D9F89800FDF7E1BD07F1B9
:104AC0008C0002EB8102704709F18C0002EB81023D
:104AD0007047BDF808109DF807201144B142704797
:104AE00020464FF07E51FDF7CBBD00200121102262
:104AF00084F82004C4F81804C4F81C0404F5826087
:104B000002F086BA4FF04241C9F82000FDF7B8BD67
:104B10004FF48C71FEF7BEBA0A6842F001020A60D7
:104B2000704787F8E60397F8E10397F8E31397F8DF
:104B3000E52387F8E00387F8E21387F8E42370475A
:104B400097F8B813C7F89840032970470246182011
:104B500043F286114FF6FF73CDE90010704797F8C6
:104B6000B813C7F8BC4003297047C4F81014C4F840
:104B7000140404F5A2604FF48171FDF776BD44F68C
:104B800038430095204799F8B813C9F8BC40032969
:104B9000704799F8B813C9F89840032970474FF245
:104BA0006043009520470021017299F8C91302293A
:104BB000704780F83010C185816280F82C107047F2
:104BC0002046FDF74FBE2046FDF75ABD002030724B
:104BD00081F832004FF47A70A7F8BA0397F8CD0342
:104BE000012870474FF042413862FDF749BD214628
:104BF000FDF746BE2946FDF743BED4217B2219238B
:104C000000904FF4877001F055BE78632846FDF799
:104C100037BD2046FDF718BE2046FDF768BE284682
:104C2000FDF72EBDD2217B221C2300905A2001F0DB
:104C300041BE0090A520282196224B2301F03ABEC8
:104C40000A6842F001020A60010E84F8240484F824
:104C50002114010C84F82214010AF02084F82504A0
:104C60007047FA2158222D230090C42001F022BE63
:104C70002846FDF73CBE0446FDF7D8BD0146204658
:104C8000384799F8E60300F0FE0002287047002438
:104C90008AF83240C9F8BA0370470446FDF7D4BD1C
:104CA00089F8BE43C9E92300C9F89400D9F89800EF
:104CB0007047286840F00100286070478DF80B109D
:104CC0009DF80B107047E040C0B200904FF4AA70FE
:104CD000284787F8E6130238B0FA80F0400987F8D1
:104CE000C60370479AF80E1001297047013A013B3C
:104CF00092B29BB2FEF73EB80130C1B203297047B1
:104D000005F5A2604FF48171FDF7AFBC9BF8C403B9
:104D1000002870470446FDF7A5BDC8F87800D8F80C
:104D20007000FDF7E4BD01463046FDF79BBD01462E
:104D30003046FDF77BBD00EBC000B0FBF7F0203044
:104D400080B2FDF7CFBD272087F8E60397F8E2038E
:104D500087F8E3037047252087F8E60397F8E00318
:104D600087F8E103704797F8C903022870472920A4
:104D700087F8E60397F8E40387F8E503704797F8A8
:104D8000DC030228704799F8C903022870472046BF
:104D9000FDF74CBD3046FDF7AABD0138C1B202296E
:104DA00070470020A4F86000704700EBC000B0FB23
:104DB000F4F0203080B2FDF795BD4FF4BC72FA23B9
:104DC0000095304786F8E40304F12600284786F86A
:104DD000E20304F12400284786F8E00304F12200EE
:104DE000284786F8C90304F12000284786F8D9032C
:104DF00004F11E00284786F8D30304F11C0028475D
:104E000086F8D60304F118002847B8633863B869F8
:104E1000FDF788BC86F8D00304F116002847C9F8CE
:104E20009C00C9E92300C9F89400C9F82400C9F816
:104E30001C000020C9F8BA13704786F8CD0304F1AE
:104E40001400284786F8C60304F112002847C6F864
:104E5000880004F110002847C6F8840004F10C0013
:104E60002847C6F8800004F108002847D7F82C80AE
:104E70002846FDF75DBC4FF48073CDF80090504795
:104E8000044628462146FDF7C3BC04462846214671
:104E9000FDF7DABC206820F00100206010BD7047EB
:104EA000704700002DE9F041DFF8746B307801386D
:104EB0003070000648D1DFF86C4B1420307094F845
:104EC000D003012813D1DFF8605B95F83400022885
:104ED0001DD001280ED058BB02F08EF8307A012880
:104EE00020D028BB012085F8340002201EE002F00B
:104EF00083F829E002F086F8FFF71EFD18D1317A19
:104F0000022085F8340089B101290ED010E002F0AA
:104F100073F8FFF711FD0BD102203072002085F8E5
:104F2000340003E0012085F83400192085F83500AD
:104F300094F8C40340B1707801387070000603D152
:104F40000120307228207070DFF8187D97F8C003B8
:104F5000022809D1FC6D00212046FDF791FC18B90B
:104F6000BF49FFF730FEF865B0890138B081000411
:104F700041F002800120B081DFF8F00C00F128043C
:104F80002046FDF75AFE01462046FDF7B1FD0138E7
:104F9000092800F27180DFE800F0051C6F6F3557BB
:104FA0006A0D272E97F8E603411F162900F24F815C
:104FB000022015E0DFF8B00C90F82E1000295BD12C
:104FC000012180F82E10FFF739FD40F0E882002023
:104FD000EEE297F8E603411F162900F2BB8003209A
:104FE0003071D9E0307247E0FFF728FD40F0DE80F5
:104FF0000720307163E0FFF721FD40F0FD800820BD
:10500000307181E097F8E603A0F12301062940F210
:105010005A81811E0229C0F0BF801B2800F0D38373
:105020002F2800F0DD83372800F0D083392840F0A6
:10503000B88397F8C603002800F0F884012840F0F0
:10504000AB80032000F0F3BCFFF7F8FC14D19349C8
:10505000FF22C7F8BA139249C7F89C10DFF8081C62
:10506000FFF7DAFC08BF0321FFF733FE04E0DFF8A7
:10507000F80B002180F82E103079172800F23485C3
:10508000DFE810F01800DD019C0148025102A30185
:1050900025021D00420060026B01BB0175019D00ED
:1050A000C3003E02320532053205830279022E0129
:1050B00032059201052087F8E60300F013BD97F84A
:1050C000C403002840F00E85DFF89C1BFFF77EFD2F
:1050D00000F03883002840F04D83B8697149FDF72E
:1050E000CFFA7149FFF7C7FD10B96F4C0020F86186
:1050F0006E492046BC61FDF71BFB6D49FDF74AFB7D
:10510000FFF77FFC386235E397F8C403002840F0CE
:10511000E984DFF8541BFFF759FD00F038830028BD
:1051200040F0B283B8696349FDF7AAFA6249FFF714
:10513000F1FD10B9604C0020F8615C492046BC616B
:10514000FDF7F6FA5A49FDF725FBFFF75AFC3862DE
:1051500000F09ABBA0F11D011A2900F25083DFE88C
:1051600011F0B0001B0064031B006A031B001D004C
:105170001B00DA031B00E1031B000B041B007A0376
:105180007F0370031B00D4031B006D031B0084030B
:105190001B001B001B006703002023E797F8DF03B9
:1051A0000138010608BF042000F0F4BB2F287FF46B
:1051B00063AFFFF7E4FD7FF45FAF0D20307197F828
:1051C000CD03012800F0F781002840F08B84BC69F2
:1051D0003649FD6A2046FDF7ABFA3549FDF7DAFAA4
:1051E000FFF70FFC2F49FFF710FD33490546FFF786
:1051F000EAFCFFF74AFE24E02F287FF43DAFFFF7DB
:10520000BEFD7FF439AF0E20307197F8CD03012831
:1052100000F0DD81002840F06584BC692349FD6A07
:105220002046FDF785FA2249FDF7B4FAFFF7E9FBBE
:105230002049FFF7EAFC21490546FFF7C4FCFFF7C8
:105240001FFE002818BF2546FD6200F04BBCA0F1F0
:105250001D011A2900F2DA820FF20800D0E811F0DD
:10526000000080BF31003000E5023000EB0230006A
:10527000930330009E03300076033000B00330000B
:10528000FB020003F102300069033000EE0230003F
:105290000503300030003000E80200BFE803E803F7
:1052A00000007F43000020410000FA43000010414D
:1052B0000000A040000020C10000C8420000C8C299
:1052C0006AE709208CE6DFE811F06F026C02070044
:1052D0006C0207006C0207002320FFF722FC5BE74B
:1052E000CF48D04CD04DD1490023012287F8E82384
:1052F00087F8B833BB6287F8D83387F8D63387F896
:10530000D223A7F8CC33A7F8C83387F8C6333B6558
:1053100087F8DB3387F8D93387F8D52387F8D32389
:10532000C7F89800C7F88800C148C7E92054C14CA5
:10533000B96138674FF48070C7E91A41A7F8CF0305
:105340004FF00130C7F8E20340F20220A7F8E00373
:10535000B948C7F8BA0300F0C5BB97F8CF030028D7
:1053600000F04681012840F0BD83002041E197F81C
:10537000CD03012800F04281002840F0B383BD69CD
:10538000AE49FFF773FDAE49FDF704FAFFF739FBAD
:10539000AC49FFF73AFC054640462946FDF762FA5C
:1053A000A9490446404644E097F8DD03002800F090
:1053B0003381012840F0968300202EE197F8E60320
:1053C000811C1A2888BF0521AAE097F8C403002889
:1053D00040F08883DFF89018FFF7F8FB00F0618257
:1053E000002840F04783BC699849FFF7D0FC0028AB
:1053F00000F02683FFF774FB25E397F8CD0301281F
:1054000000F03081002840F06D83BD698B49FFF7C3
:105410002DFD8B49FDF7BEF9FFF7F3FA8C49FFF735
:10542000F4FB05464046FFF794FA044640464FF029
:105430007E51FDF725F9002C08BF284630E197F88A
:10544000E613481F362800F2F682DFE810F0370036
:105450004B03E2064B03DB064B03EF064B03A106AF
:105460004B03C2064B03B2064B030C074B03EC067F
:105470004B0313074B03E9064B034B034B03F506A2
:105480004B0322074B0319074B034B034B034B03FF
:105490004B034B034B034B034B032B07AB06370765
:1054A0004B03D2064B03B9064B0303074B033407E8
:1054B0004B034B034B034B034B03F6021D2087F8B2
:1054C000E603FFF750FC08BF97F8CB03AAE197F873
:1054D000C403002840F00683DFF88C17FFF776FB43
:1054E00000F0E981002840F0E982BC695849FFF7E3
:1054F00067FB002800F0C8825349FFF764FBC6E24F
:1055000097F8D203002800F0CD80012840F0EA820D
:105510000020C8E097F8E603811E062838BF1B214B
:1055200087F8E613DEE297F8C603012800F0C08092
:10553000002840F0C08097F8C203012800F2BB8029
:105540000220B6E097F8CC03012800F0E0800028A4
:1055500040F0C882FFF707FC40F05F810120002186
:1055600087F8CC0340F2FF10A7F8CA03DFF8F8066B
:1055700080F83010B6E297F8DB03012800F0D680FF
:10558000002840F0AF820120D1E097F8D503012830
:1055900000F0D280002840F0A5820120CDE0411F1C
:1055A000372901D3812804D197F8E80308B90420EA
:1055B0003071012016E5786B26493C6AFDF760F8EA
:1055C00025490546FFF7FFFAFFF75FFC0AE0786B15
:1055D00022493C6AFDF754F821490546FFF7F3FAE2
:1055E000FFF74EFC002818BF254628467D634DE096
:1055F000012087F8CD0387F8CF0373E2386A184992
:105600007C6BFDF73DF8054620462946FDF72AF953
:105610000D498046204632E0012087F8DD0361E233
:10562000000020420000F0410000A0410000BE4305
:105630000000C8430000AF43E803E8030000104146
:105640000000A0400000C8C2000080BF0000FA4374
:105650000000C8420000204100005443000020C167
:10566000000054C3386AE3497C6BFDF709F805462E
:105670002046FFF76EF9804620464FF07E51FCF73A
:10568000FFFFB8F1000F08BF284678634FF0424192
:10569000FCF7F6FFD849FDF74BF8D849FDF77AF843
:1056A000F8621FE2012087F8D00387F8D20319E2DD
:1056B000032087F8E603DFF8740D90F82F10012916
:1056C00009D100214FF60172A0F82F10A7F8C923C5
:1056D00080F8311010E0002180F8311097F8C913DC
:1056E000022909D14FF47A71A7F8BC13FF2180F881
:1056F0002D1007F19C0007E0C148C7F89C0000206E
:10570000A7F8BC0307F1A000BD490160EAE1FFF77B
:105710002AFB40F08480FF210020A7F8CA13DFF89D
:105720000C1D87F8CC0381F83000DBE1002087F8FE
:10573000D90387F8DB03D5E1002087F8D30387F886
:10574000D503CFE1386AAF49FCF79AFFAE49FFF7BE
:1057500092FA10B9AC4C0020786220464FF04241DA
:105760003C62FCF78DFFA449FCF7E2FFA349FDF77B
:1057700011F8B86197F8B813032900F2B081FFF768
:105780009EF9DFE811F0AF01AA01A501A8013C6A6A
:105790009E49FFF715FA00286AD09D49FFF713FAD2
:1057A00069E00120FFF71CBC97F8DF0301380328EC
:1057B0003FF6F2ACDFE810F004007A044E04550422
:1057C000FFF7C9FAE8E40420FFF70ABC97F8DD0305
:1057D000012800F00B8100287FF4DEAC172026E1C1
:1057E00097F8DC03012871D10220B9693A6A87F879
:1057F000DC038348C7E90B10C7E90D20CCE402386D
:105800000228BFF4C9AC0620FFF7EABB0238022821
:10581000BFF4C2AC0520FFF7E3BB012000E000208D
:1058200087F8C90387F8CC035CE10A20FFF7D8BBEF
:105830001720FFF7D5BB0F20FFF7D2BB1320FFF7D0
:10584000CFBB97F8DC0300287FF4A6AC2F2087F8A5
:10585000E603012076E0012087F8D6032C20E6E05D
:10586000002087F8D6032B20E1E01420FFF7B8BB17
:10587000002078625F48FFF7B5F95F49FCF758FFF1
:105880005E49FCF787FFB86197F8B813032900F267
:105890002681FFF714F9DFE811F0250120011B0133
:1058A0001E013C6A5849FFF772FA002800F0D680C2
:1058B000FFF716F9D5E03C6A4E49FFF781F9002859
:1058C00000F0F0805349FFF77EF9EEE00120D7E9C0
:1058D0000A4187F8DC034A48FFF797FA0146FFF7C9
:1058E00072F94D49FFF7D9F94C4900281CBF002433
:1058F000C4F2C8242046FCF78BFF00281CBF0024FC
:10590000CCF2C824BC62FFF747BCFFF738FA14D1C9
:105910000C20FFF765BB97F8E103FFF73EFA38BFAD
:10592000032041E097F8E3030138010608BF032094
:1059300012E0FFF724FA00F0F18401287FF42CAC88
:10594000FFF749F887F8DC03FFF726BC97F8E30375
:10595000FFF7D2F988BF012087F8E303C0B203281C
:1059600000F0C584022800F0C084012804BF012093
:1059700087F8E203FFF710BC97F8E503013801064A
:1059800008BF032022E097F8DF030130C1B20429E9
:1059900088BF012087F8DF03FFF7FEBB97F8E1031C
:1059A000FFF7AAF988BF022087F8E103C0B20328F5
:1059B00000F04B8302287FF4EFAB022000F046BBDF
:1059C00097F8E503FFF798F988BF012087F8E5030A
:1059D000C0B2032800F09984022800F08D840128C9
:1059E0007FF4DAAB0120002100F088BC1520307173
:1059F00039201CE0000054430000A040000010418A
:105A000000007F43000048420000694400007D43DD
:105A1000000024C2000080BF0000C8420000C8C2CD
:105A200000000020CC17002008010020022087F889
:105A3000E603FFF7B1BB812954D11920FFF73BBB27
:105A40000020F86198489949B861FCF771FE9849BF
:105A5000FCF7A0FEFEF7D5FF38620BE0002078626D
:105A60009448FFF7BFF89249FCF762FE8F49FCF7B4
:105A700091FEB86197F8B813032930D8FFF71FF8E3
:105A8000DFE801F0302B26290020F8618A48874999
:105A9000B861FCF74DFE8649FCF77CFEFEF7B1FFCE
:105AA00038620BE0002078628448FFF79BF8804959
:105AB000FCF73EFE7D49FCF76DFEB86197F8B81320
:105AC00003290CD8FEF7FBFFDFE801F00C07020505
:105AD00007F1900001E007F194007949016000208E
:105AE00087F8B80316203071DFF898482046FDF794
:105AF000A4F801462046FCF7FBFF0138092800F214
:105B00007381DFE810F00A002300710171014B007E
:105B10006B007F0013002C003C00FEF78FFF7CD150
:105B2000FFF721F914BF0120052026E0DFF8400D22
:105B300090F82B10002940F05781012180F82B109C
:105B4000FEF77CFF40F0798000207FE0FEF776FFD3
:105B50005ED1FFF708F914BF022006200DE097F888
:105B6000E60300F0FE00022840F03C8197F8C903EC
:105B70000238B0FA80F040098000F07032E197F806
:105B8000E60300F0FE00022840F02C8197F8C903DC
:105B90000321022808BF0721F17023E197F8E603EB
:105BA000A0F1230106293ED9811E0229C0F01A81E5
:105BB0001B2800F0C3802F2800F0CB80372800F08E
:105BC000BF80392840F0AA8097F8C603002800F06B
:105BD0003882012840F00681032033E2FEF72EFFD1
:105BE00040F002813749FF22C7F8BA133449C7F899
:105BF0009C10DFF87C1CFEF70FFF08BF0321FFF7A6
:105C000068F8F1E0DFF8680C002180F82B10EBE079
:105C1000411F16291DD80320E3E0411F162900F279
:105C20005A800220DDE0DFE801F07B790479047915
:105C300004002320FEF775FFD4E0411F372901D36C
:105C4000812804D197F8E80308B9042030710120B5
:105C5000C9E01D381A2800F2C5800FF21401D1E8FE
:105C600010F000BFCC170020080100206C000020BD
:105C70005B00C100BF00C100BD00C1003300C10016
:105C80003102C1004B02C1003802C100AB00B000BC
:105C9000B500C1002C02C100A900C100A700C100CD
:105CA000C100C100A50000BF0000FA430000104180
:105CB0000000A040000069440000C84200005443B6
:105CC00000007F43E803E80397F8DF03013801068B
:105CD00008BF042044E21D381A2800F28380DFE860
:105CE00010F01B0081007F0081007D0081003802E0
:105CF00081001202810023028100420281006B00B8
:105D0000700075008100FF0181006900810067005B
:105D10008100810081006500092062E0012060E0CF
:105D200097F8DF03013803285CD8DFE810F004009F
:105D3000C3019701BD01FFF70EF853E0042050E0C6
:105D400097F8DD03012800F0788100284AD1172058
:105D500078E197F8DC0301280AD10220B9693A6A90
:105D600087F8DC03C048C7E90B10C7E90D2039E00C
:105D70000120D7E90A4187F8DC03BB48FFF745F863
:105D80000146FEF720FFB949FEF787FFB849002812
:105D90001CBF0024C4F2C8242046FCF739FD0028AB
:105DA0001CBF0024CCF2C824BC621BE0172018E002
:105DB000142016E0132014E0012087F8D6032C20CD
:105DC00040E1002087F8D6032B203BE197F8DC0365
:105DD00040B92F2087F8E60301208AE10F2000E078
:105DE0000A20307100203072F078072800F2C48059
:105DF000DFE800F0047632491B8BA0604FF47A7024
:105E00009C49FEF73EFE9C49FEF784FF00281CBF1C
:105E10000024C4F22034FEF793FE00F2A880FEF7BF
:105E20004EFEDFE801F0A7A29DA04FF47A709149E1
:105E3000FEF72DFE9049FEF7D3FD18B98E4C0020D9
:105E4000C7F8C000FEF78BFE00F29180FEF737FE28
:105E5000DFE801F0908B86894FF47A708749FEF76E
:105E600010FE8449FEF707FF00281CBF0024C4F27F
:105E7000A004FEF765FE00F27A80FEF720FEDFE860
:105E800001F079746F724FF47A707D49FEF7F9FD75
:105E90007849FEF7F0FE00281CBF0024C4F2A004DD
:105EA000FEF74EFE00F26380FEF709FEDFE801F028
:105EB000625D585B4FF47A707149FEF7E8FD6D49F9
:105EC000FEF7EBFE18B96B4C0020C7F8C000FEF7D8
:105ED00046FE4CD8FEF7F3FDDFE801F04C474245A3
:105EE000FEF76DFDFEF7CDFD6349FEF713FF0028B9
:105EF0001CBF0024C4F22034FEF722FE37D8FEF780
:105F0000DEFDDFE801F037322D30FEF758FDFEF7F9
:105F1000BEFD5949FEF764FD18B9574C0020C7F87B
:105F2000C000FEF71CFE22D8FEF7C9FDDFE801F035
:105F3000221D181B4FF47A705049FEF7A8FD4D49F9
:105F4000FEF7ABFE18B94B4C0020C7F8C000FEF7B7
:105F500006FE0CD8FEF7B3FDDFE801F00C070205E2
:105F600007F1900001E007F194003F490160002033
:105F700087F8B8030820F070708901387081000438
:105F800009D14FF47A707081DFF8E408C16DC7F869
:105F9000B0100021C165DFF8D858287888BB1020E0
:105FA00001F090FDA887A88FFCF72CFB354A364BF3
:105FB000FCF7A1F9354BFEF7C6FC354A354BFCF72B
:105FC000F3F8354A354BFCF708FA354BFEF7BEFCC3
:105FD000FCF7E6FC33490446B864FCF7A9FB254905
:105FE000FCF7D8FBFEF70DFDE549F864FEF7E8FD88
:105FF00038B920460021FCF70BFC10B901203C60A9
:106000002870286EE04C013028662069804794F89B
:106010003500012809D194F8340018B1013884F80A
:10602000340002E0022084F8350094F8440010B1F6
:10603000013884F84400BDE8F08115203071392022
:1060400000E0022087F8E603CCE6032087F8E003AF
:10605000FFF7A2B8FEF78BFEFFF79EB8FEF787FEAC
:10606000C0E60B20FFF739B900007F430000C842AB
:106070000000C8C20000A04000002043000080BF14
:106080000000A0C052B81E85EB510A400000303F0E
:10609000295C8FC2F528F4BF33E197FA7953713F39
:1060A00000001840000010410B20C3E5FEF74BFE36
:1060B000FFF772B8FEF747FE94E6FEF760FE13D1D5
:1060C0000C208EE697F8E103FEF767FE38BF032049
:1060D0001FE097F8E5030138010608BF032048E0F8
:1060E000FEF74DFE00F02F8101287FF47BAEFEF716
:1060F00072FC87F8DC0375E697F8E30301380106C4
:1061000008BF032016E097F8E103FEF7F5FD88BF0E
:10611000022087F8E103C0B2032800F0FB800228C8
:106120007FF460AE0220F6E097F8E303FEF7E4FDAB
:1061300088BF012087F8E303C0B2032800F0FB808A
:10614000022800F0EE80012804BF012087F8E20356
:1061500048E697F8DF030130C1B2042988BF012067
:1061600087F8DF033EE697F8E503FEF7C5FD88BF35
:10617000012087F8E503C0B2032800F0E080022880
:1061800000F0D18001287FF42DAE01200021CCE069
:1061900097F8D603002800F0D880012840F0D88076
:1061A0002C21D3E097F8D803012840F0818001200A
:1061B0007CE0312087F8E60397F8D303FFF7BFBAF6
:1061C00097F8D503012898BF87F8D3031120FEF76D
:1061D00072BFFEF700FC87F8DC0397F8C9030128BB
:1061E0007FF480AC91480121A0F82F104FF47F403C
:1061F00077E0FEF7C4FD00F0AF8001287FF472ACB9
:106200000220AAE0212087F8E60397F8D003FFF7E1
:106210004CBA1F2087F8E60397F8CD03FFF7EBB9D8
:106220008120FEF748BF3520FEF745BF042087F8E0
:10623000DF032320FEF73FBF97F8CC03012800F0CF
:10624000908000287EF436AFFEF78DFD40F09180FF
:1062500000208AE097F8DB03012898BF87F8D9036C
:106260001320FEF728BF332087F8E60397F8D903F9
:10627000FFF75FBA002087F8DD033720FEF71BBF6A
:1062800097F8D203012898BF87F8D0030920FEF7BA
:1062900012BF97F8CF03012898BF87F8CD030720D6
:1062A000FEF709BF97F8D80310B9002087F8D60386
:1062B0000D20FEF700BF1520FEF7FDBE97F8DC03AA
:1062C00000287FF40FAC0F2087F8E603574890F8BA
:1062D0002F1001297FF406AC0021A0F82F104FF6F3
:1062E0000170A7F8C903FFF7FDBB022000E00320FF
:1062F00087F8E203FEF750BF0220012187F8E4038C
:106300004A4880F82C10FEF747BF032087F8E403C3
:10631000FEF742BF032087F8E00363E50B20FEF79A
:106320005FBE022008E00220012187F8E4033F4815
:1063300080F82C1056E5032087F8E20352E503208D
:1063400087F8E4034EE50B204BE52B2187F8E61395
:1063500087F8D803FFF7C6BB012087F8DC03FFF7F7
:10636000C1BBFEF700FD06D1012087F8CB03FEF785
:10637000A1BE002000E0012087F8C903FEF79ABE05
:1063800000004842CC000020880100201848C16964
:1063900041F08051C16117490A7842F004020A7045
:1063A000C16921F08051C161016841F001010160C2
:1063B00001688907FCD5416821F00301416041680B
:1063C00011F00C0FFBD101680B4A11400160002154
:1063D000416041F61071C1624FF4801101634FF4C6
:1063E0001F01816005484FF000610160704700BFE8
:1063F0000010024050700040FFFFF2FE08ED00E088
:10640000B0B5094C606880070CD52068800709D5B5
:10641000064D4FF07E51E86DFCF732F9E8656FF0FC
:1064200002006060B0BD00BF0C4C014008010020BC
:106430002DE9F04F85B0B44F3869C00700F0608196
:10644000DFF8408998F8E903012811D1DFF820949A
:1064500099F8120001280FD1DFF83C4BAB4D666D67
:1064600029463046FCF7FEF968B965652E460AE014
:106470000024C8F840402DE1A54EDFF81C0B4FF07A
:106480008141C0E914160096D8F81860A149304639
:10649000FCF7F6F8834698F8C903012818BFB346FD
:1064A000D9F864005946FCF7EBF900287ED10025A5
:1064B000CA46B94698498DF80B50ADF808508DF88A
:1064C0000750D8F898703846FCF7A2F904465846A9
:1064D000FCF70DFA002C06464FEA900415D14A2C21
:1064E0008DF8075033D864204F460021D146ADF8CF
:1064F0000800DFF88C03FEF7E1FB13294CD8FEF708
:10650000E8FA49D2FEF744FAF5E783493846FCF742
:10651000A9F9002568BB38460021FCF779F94F46F8
:10652000D146E0BB00204A2C8DF8070024D8642017
:106530000021ADF80800D148FEF7C0FB132900F296
:106540005F81FEF7C6FA27D2FEF722FAF4E74FF48E
:1065500096704F461421D146ADF80800C848FEF7A2
:10656000ADFB272918D8FEF7B4FA15D2FEF710FABA
:10657000F5E74F46D14612E04FF496701421ADF87E
:106580000800BE48FEF79AFB272905D8FEF7A1FAB6
:1065900002D2FEF7FDF9F5E79DF80B10455C68B2F5
:1065A000C9F864B0FCF795F9C8F8D000B54E758D00
:1065B000092D16D896F82C0001F084FAFCF792F910
:1065C00046F825000446308D01357585FCF78AF9BB
:1065D0000146FEF7F8FAFCF78AF9A9B2B0FBF1F12F
:1065E0000CE0308D0A24B0FBF4F1451A96F82C002B
:1065F00001F068FA284481B2B1FBF4F130858808D3
:10660000FCF770F9D8F82810D8F8D040C8F8000086
:10661000FCF788F82146FCF733F8064698F8C903DA
:1066200002280DD193480021C16681660166C165CB
:10663000A9F84C1089F81210C8F8401081652EE0B6
:1066400098F8C20318B198F8D913012919D18E49C5
:106650005846BA46FCF714F8074630463946FCF768
:1066600001F930B98949FEF788F9FEF760FB002887
:1066700054D030463946FCF7F5F838B10025574676
:1066800015E0012808BF002909D1CBE77F49FEF7B3
:1066900074F9FEF74CFB574608B1854D07E0D8F872
:1066A0004040204600210025FCF7DCF810B92C46BC
:1066B000C8F8405098F8C40360B16E480024C4661E
:1066C00084660466C465A9F84C4089F81240C8F88D
:1066D0004040846598F8EB0320B920460021FCF780
:1066E000C1F810B90024C8F840402046FCF718F95A
:1066F0003864386840F0010038606FF0010038619C
:1067000005B0BDE8F08F00BF000C004000401C4603
:1067100000007A46000048420000A0415C49FEF7B4
:106720002CF9FEF700FB30B95A49FEF726F9FEF7BF
:10673000FEFA002866D00020A9F84C0089F8120063
:1067400058463146FBF7EEFF4A4F3866386EB96E51
:10675000FBF796FFB866554DB86EFEF7FAF800B92C
:10676000BD66B86E00210024FCF77CF800B9BC6659
:10677000D7E91354386EF96DFBF7D4FF78662046DD
:106780003E6EB96EFBF7D4FF396F04900391049805
:106790000399FCF73DF808B903980490049803990D
:1067A00081F00041FCF750F818B9039880F00040E0
:1067B000049028463146FBF7BBFF0499FBF760FFC6
:1067C0000446796E0098FBF7B3FF2146FBF758FFAC
:1067D000F866386EF865F86E796FFCF719F808B945
:1067E000786FF866F86E796F81F00041FCF72CF84D
:1067F00008B90020F866FC6E5746C8F8404050E7DC
:106800000025CCE6B9F84C000130A9F84C0080B264
:106810003C2895D320490098FBF732FF164F0446D9
:106820003946FCF71FF818B112480094446518E087
:10683000104D286D6F65FCF7A0F8184A184BFBF750
:10684000B3FC184B002204460F46FCF727F820B192
:1068500020463946FCF7A4F800E0134828650648AE
:106860000090012089F812000020A9F84C0067E789
:10687000080100208801002000401C4662D0010869
:1068800028D00108040E00200000C8420000C8C241
:106890000000A0400000A0C00000FAC49A99999995
:1068A0009999B9BF000008400000404000C82F4738
:1068B000007F3B472DE9F04102FB03F4069D0026D3
:1068C0004FEA4408DFF8BC44023D94F8D643012C5B
:1068D00000F08B80002C40F028827F2D00F2258272
:1068E000DFE815F0800040013201760123028401C7
:1068F00023028C0123029C012302B40123028001A4
:1069000023029001230292012302AE01230294018B
:1069100023027801230274012302B6012302AA0193
:1069200023027A012302960123029E0123027C01A5
:106930002302A201230234013601A0012302C00177
:106940002302B0012302B8012302A4012302A601FD
:10695000230286012302AC0123025C012A014401C7
:106960006E012302B2012302BA0123028E01230227
:1069700026012C013801520112012401BC0123021D
:106980002302A801700123028201230228011801B9
:1069900060015E011C01580198012302720123026B
:1069A000C20123026A012302640166015A01460101
:1069B0004201300148012001880123022302C40161
:1069C00054016C0123024A010E017E0123024C0195
:1069D000160168010A013C011A0123022302100179
:1069E0004E019A014FF496269FE17F2D00F29D8182
:1069F000DFE815F08000B800AA0064019B01660181
:106A00009B0156019B0168019B016A019B017E016C
:106A10009B016C019B014A019B0158019B015A019A
:106A20009B014C019B016E019B0170019B01800148
:106A30009B0182019B014E019B015C019B01840132
:106A40009B0150019B01AC00AE0072019B01520101
:106A50009B018C019B018E019B015E019B016001EA
:106A60009B0174019B0162019B01D400A200BC0048
:106A700090019B0146019B0176019B0148019B010E
:106A80009E00A400B000CA008A009C0078019B010F
:106A90009B017A0192019B017C019B01A000900067
:106AA000D800D6009400D00086019B0144019B01D0
:106AB00088019B018A019B01DC00DE00D200BE0040
:106AC000BA00A800C000980094019B019B019601A8
:106AD000CC009A019B01C200860054019B01C400B6
:106AE0008E00E0008200B40092009B01400188000B
:106AF000C60042019F4E18E1A64C04F5487614E109
:106B0000A84E12E1A04E10E1BD4C04F59C660CE1CC
:106B1000A14E0AE1B44C02E09D4E06E1B14C04F5F1
:106B2000196602E1A34C04F5E176FEE0B34EFCE009
:106B3000B44EFAE0AC4EF8E0B84C22E0B14C04F5AB
:106B4000BD66F2E09C4EF0E08B4EEEE0BD4EECE018
:106B5000BB4EEAE0AB4C04F53D66E6E08D4C04F537
:106B6000C866E2E0854EE0E0944EDEE0AA4EDCE04E
:106B7000934EDAE08F4ED8E08B4ED6E0874ED4E0CD
:106B8000814C04F5E146D0E09D4ECEE0884C04F502
:106B90005256CAE0924EC8E08A4EC6E09F4EC4E00C
:106BA000904EC2E0904C04F59956BEE0874EBCE092
:106BB000854EBAE0774EB8E0B94EB6E0B74EB4E0D5
:106BC000C14EB2E0BB4EB0E0B74EAEE0CE4EACE050
:106BD0006B4EAAE0CD4EA8E0C84EA6E0C44EA4E09D
:106BE000AD4EA2E0CE4EA0E0B14E9EE0D04E9CE075
:106BF000B74E9AE06F4C04F5617696E0CB4E94E088
:106C0000AE4E92E0C54E90E0C34E8EE0C04E8CE09A
:106C1000B94E8AE0A54E88E0C64E86E0C24E84E0BA
:106C2000B44E82E0B04E80E0B04E7EE0AA4E7CE0F2
:106C3000A84E7AE0A04E78E0B14E76E0A34E74E024
:106C4000B44E72E0A64E70E09E4E6EE0B54E6CE023
:106C5000AC4E6AE0A14E68E0994E66E0674C04F5E0
:106C6000527662E09F4E60E08E4E5EE0504C04F53E
:106C70000C565AE0454E58E0864E56E0564E54E0CB
:106C8000634E52E0604E50E07A4E4EE0764E4CE05D
:106C9000704E4AE06C4E48E0674E46E0404E44E09D
:106CA000794E42E0724E40E0704E3EE0684E3CE06D
:106CB0005E4E3AE05C4E38E0594E36E0744E34E0B9
:106CC000724E32E06F4E30E06D4E2EE06A4E2CE098
:106CD000644E2AE0624E28E0584E26E0514E24E0F1
:106CE0004A4E22E0444E20E0424E1EE03F4E1CE061
:106CF000624E1AE0594E18E0574E16E0534E14E01B
:106D0000364E12E0334E10E0314E0EE0494E0CE0AC
:106D1000474E0AE03F4E08E0354E06E0244E04E0C0
:106D2000234C04F58C5600E0204E02440B44FDF742
:106D3000DDFF814D3146B8F1000F08BFBDE8F0819D
:106D40004646B8F5806F28460F4628BF4FF4806648
:106D5000324603F077FA0024B44206D2285B00BA28
:106D6000000CFCF721FA0234F6E7A8EB0608F1194B
:106D7000E1E700BF0481B700002F0D0080EF08009D
:106D8000806E1100CC1700206818BC0084C0BB00C6
:106D9000104DB700ECEEB60064DDB600DCCBB600FB
:106DA000E897B600D25FB600A456B600F406B60067
:106DB000E47AB500E065B5000043B5002020B500D9
:106DC00040FDB40060DAB40080B7B400A094B40011
:106DD0009A7CB4008E4CB400A019B400D0E3B30088
:106DE0003CC0B30000AEB3005091B3005669B3008D
:106DF0006219B30088B3B2009894B2006072B20016
:106E0000386AB2008859B2006E9CB1003A22B000D4
:106E100006A8AE000893AD00B237AD00C0C3AC0009
:106E200050E7AA00CC6BA700A42DA4007CEFA00023
:106E300054B19D002C739A0004359700DCF6930042
:106E40008802910048AD8F003EDB8D002A378A0012
:106E50001693860002EF8200E47D7F00BC3F7C0039
:106E6000940179000023730000A46A0000256200E9
:106E700000A659000027510000A848000029400042
:106E800000AA3700002B2F0000AC2600002D1E00AA
:106E900000AE15005815C300F463B60044B7B50042
:106EA0009464B4008834B400B8FEB300E8C8B300FA
:106EB0005C41B30068F1B20078D2B20054DFB00098
:106EC0002065AF00ECEAAD00243BAD00E00AA9006C
:106ED000B8CCA500908EA20068509F0040129C0084
:106EE00018D49800F0959500C857920034098C008A
:106EF000206588000CC18400F81C8100D0DE7D0074
:106F0000A8A07A008062770080E36E00806466004B
:106F100080E55D008066550080E74C008068440095
:106F200080E93B00806A330080EB2A00806C2200FD
:106F300080ED1900E838C10000020020BCB5154CF6
:106F40002068E06880060CD52068800609D5616855
:106F5000114D05F12800C9B203F0FCF84FF482701E
:106F6000A886E068400610D5206840060DD50A4D79
:106F70006FF040000DF10701206005F1380003F0CB
:106F8000D6F818B1002085F84500BCBD9DF8070073
:106F90006060BCBD0038014088010020FEE70000B1
:106FA0000648BFF34F8F064A016801F4E0611143C0
:106FB0000160BFF34F8F00BFFDE700BF0CED00E0A5
:106FC0000400FA0510B500EB40010A284FF0070253
:106FD000084B28BF1E3902FA01F14FF00C0238BFEE
:106FE0001022D4582143D150596B21F01F0108437E
:106FF000586310BD00240140014810210160704712
:10700000141C01400148102101607047101C014010
:1070100018B3F0B50844511ABE4A4B1C990802F542
:10702000A2640D462DB150F8046B013D36BA40C440
:10703000F8E713F003030ED0002418250026A3421E
:1070400005D0075D0134AF40083D3E43F7E702EB52
:107050008100C0F81065BDE8F0407047AD4901F50A
:10706000A262044918B108CA01380B60FAE708683F
:10707000704700BF0030024032490A68C2F3810302
:10708000314AF0B5DFE803F002380A380B6D9B0592
:1070900032D5CB6A9B0148BF2D4A2DE00B688C6A24
:1070A0001B0C002C13D40C680D68C5F34175C4F398
:1070B00083440DB90F2C43D12D0101352C44DB073E
:1070C00002D00B689B0300D5204A624314E08C6A0F
:1070D0008D6A8E6ADB071D4BC4F30314C5F30825C4
:1070E00006F0070603D00F68BF0358BF134604FA23
:1070F00006F26B43B3FBF2F2026016A40B68C3F313
:107100000313E35C174CDA4042600B68C3F30223BD
:10711000E35C22FA03F3C3600B68C3F3C223E35CAE
:107120000424DA4082600B68096804EA9363C1F3BF
:10713000813119440CA3595CB2FBF1F10161F0BD3E
:107140000225BBE70410024000127A0000093D004E
:10715000006CDC02000000000000000001020304DB
:107160000607080920D0010802040608020C0810CE
:107170007CB5044600204FF6FF75C6B2152E09D81F
:10718000301900F08BFCADF80600B01CBDF80610FD
:10719000A942F2D1BDF806007CBD00000B4A53683D
:1071A000DB0103D4536843F0807353600823032842
:1071B00008BF102301FA03F06FF47F4108BF6FF49A
:1071C0007F0113681940084310607047A000024017
:1071D00002684BF6EF731A4002600A8903681A438B
:1071E00002604A7C036802F0030223F4405343EA3E
:1071F00002320260CA7B036802F0030223F4406398
:1072000043EA822202608A7B036802F0030223F4CD
:10721000407343EA022202604A7B036802F00102E3
:1072200023F0800343EAC21202600A7B036862F320
:10723000861303600A7C036862F3451303604A897E
:1072400042600A6882604968C1607047016821F045
:10725000010101600021016041608160C16040F274
:10726000FF4100EA01020B49B2F5816F04D3D20855
:10727000902A0ED801F5806100F0FC001422083835
:10728000B0FBF2F00F22800002FA00F00A6810430F
:107290000860704704000240064907480A7822B98E
:1072A0004CF6CC42026001220A704AF6AA21016023
:1072B000704700BF000E00200030004010B5154C94
:1072C00008480949FDF751FCFDF70FFCFDF771FB7C
:1072D0001349FDF7B5FC84F823141620BDE81040CF
:1072E00003F06ABA01000A18D103030910B5094C6A
:1072F00009480A49FDF739FCFDF7F7FBFDF759FB93
:107300000749FDF79DFC84F823141620BDE81040C2
:1073100003F052BAB40E002001000A1DD103020985
:107320000830024010B5214C226842F00102226070
:1073300001804FF4801000F017F8FDF7ABBD00BFDF
:1073400008480168C9071CBF002070470168490749
:1073500044BF012070470068C0064FF0020058BFCC
:10736000032070470C200240B0B50446FFF7E8FF49
:107370000025013C45F1000118B911B1FFF7E0FF0C
:10738000F7E7B0BD10B5094C216841F0020121605A
:107390006060206840F0400020604FF08040FFF7C0
:1073A000E3FF206820F00200206010BD10200240A2
:1073B0002DE9F047DFF8789899F8EB0308B1BDE8BC
:1073C000F087DFF8488998F801000328F7D8DFE84C
:1073D00000F002E109B999F8E903002800F0FE8104
:1073E0000120F7E1684E98F80C10684FDFF84CA6C2
:1073F00006F1100011F0010508BF07F10E0099F821
:10740000C613D04706F11200002D08BF07F1100087
:1074100099F8CD13D04706F11400002D08BF07F1ED
:10742000120099F8D013D04706F11600002D08BFBE
:1074300007F1140099F8D613D04706F11804002D6F
:1074400008BF07F11604D9F82800FBF750FA0146E7
:107450002046D04706F11A00002D08BF07F118009A
:1074600099F8D313D04706F11C00002D08BF07F18F
:107470001A0099F8D913D04706F11E00002D08BF55
:1074800007F11C0099F8C913D04706F12000002D20
:1074900008BF07F11E0099F8E013D04706F122005B
:1074A000002D08BF07F1200099F8E213D04706F13C
:1074B0002400002D08BF07F1220099F8E413D047FB
:1074C00006F12604002D08BF07F12404D9F8BC00FA
:1074D000FBF70DFA01462046D04799F8C60388F815
:1074E000020099F8CD0388F8030099F8D00388F8D2
:1074F000040099F8D60388F8050099F8D30388F8B2
:10750000060099F8D90388F8070099F8C90388F8A4
:10751000080099F8E00388F80900D9F82800FBF77B
:10752000E6F9A8F8460099F8E20388F80A0099F805
:10753000E40388F80B00D9F8BC00FBF7D8F9A8F8E9
:10754000480044E1104898F80C2010492830D20730
:1075500008BF01F12600B8F84A10FFF7E3FE0C4817
:10756000C16841F08001C160012088F80100B8F8CD
:107570004A000130A8F84A0098F80C00013088F859
:107580000C00BDE8F08700BF00F0010802F8010818
:1075900004200240B8F83E00FBF7A4F90146D9F8F0
:1075A0001800FBF76DF9002800F08C80B8F8400057
:1075B000FBF798F90146D9F89800FBF761F9002824
:1075C00000F08080B8F84200FBF78CF90446D9F847
:1075D0006800FDF70CFB002874D0B8F84400FBF7F6
:1075E00081F90546D9F88000FDF704FB002869D031
:1075F000D9F86C00FDF7FBFA002863D0D9F88400B5
:10760000FDF7F8FA00285DD0D9F87000FDF7EFFA21
:10761000002857D0D9F88800FDF7ECFA002851D09F
:1076200099F8C60398F8021081424BD199F8CD031E
:1076300098F80310814245D199F8D00398F80410C6
:1076400081423FD199F8D60398F80510814239D18B
:10765000B8F84600FBF746F90146D9F82800FBF7D1
:107660000FF978B399F8D30398F80610814229D11D
:1076700099F8D90398F80710814223D199F8C903E2
:1076800098F8081081421DD199F8E00398F8091084
:10769000814217D199F8E20398F80A10814211D17A
:1076A00099F8E40398F80B1081420BD1B8F8480020
:1076B000FBF718F90146D9F8BC00FBF7E1F8002800
:1076C0007FF47DAEDC48DE490160DE490160D949C6
:1076D00098F80C000C468A4610F0010608BF04F525
:1076E00000642046FFF74EFED9F81800FBF7FFF8BC
:1076F000D24FFDF7C3FA0AF10204002E04BF4FF681
:107700000204C0F60104D9F89800FBF7F0F8FDF781
:10771000B5FA0AF10404C64D002E08BFAC1CD9F816
:107720006800FBF7E4F8FDF7A9FA0AF10604002E59
:1077300008BF2C1DD9F88000FBF7D9F8FDF79EFA99
:107740000AF10804002E08BFAC1DD9F86C00FBF745
:10775000CEF8FDF793FA0AF10A04002E08BF05F1EE
:107760000804D9F88400FBF7C2F8FDF787FA0AF19C
:107770000C04002E08BF05F10A04D9F87000FBF7CD
:10778000B6F8FDF77BFA0AF10E04002E08BF05F1EA
:107790000C04D9F88800FBF7AAF8FDF76FFAD9F8BE
:1077A0001800D9F87040D9F88850D9F89860FBF7DC
:1077B0009EF8A8F83E00FDF7EDFAA8F84000FDF7A6
:1077C0002BFAA8F84200FDF753FAA8F8440098F8FD
:1077D0000100013088F80100BDE8F087EA4C20463E
:1077E000FFF7C6FC4FF6FF75A84210D02046FFF702
:1077F000BFFCA8420BD004F1280000F04FF904466A
:107800008B48263000F04AF9844205D80DE0204626
:10781000FFF7AEFCA84202D000F068F936E004F5AC
:107820000060FFF7A5FCA84202D000F0AFF92DE000
:1078300085488749884B874A884C0025012689F866
:10784000D65389F8D06389F8CD5389F8C65389F89F
:10785000D95389F8D363C9F8285089F8E46389F8C3
:10786000E26389F8C953C9F8BC007848C9F8181010
:10787000C9E92024C9E91A31C9F89800C9F8880073
:107880007748C9F87000022089F8E003D9F8184059
:107890007449FDF795F918B96B49FDF7BAF910B9B4
:1078A0006B48C9F81800D9F898406F49FDF788F976
:1078B00018B96E49FDF7ADF910B96448C9F89800D8
:1078C000D9F8BC406849FDF77BF918B96749FDF75D
:1078D000A0F910B95C48C9F8BC00D9F86840614902
:1078E000FDF76EF918B95849FDF793F910B95A48E0
:1078F000C9F86800D9F86C405A49FDF761F918B920
:107900005149FDF786F910B95148C9F86C00D9F80A
:1079100070405449FDF754F918B94B49FDF779F90E
:1079200010B94F48C9F87000D9F880404E49FDF7AA
:1079300047F918B94D49FDF76CF910B94548C9F830
:107940008000D9F884404849FDF73AF918B9474909
:10795000FDF75FF910B94148C9F88400D9F88840AB
:107960004149FDF72DF918B94049FDF752F910B911
:107970003648C9F8880099F8C6033349022824BF5D
:10798000002089F8C60399F8CD03022824BF0020FF
:1079900089F8CD0399F8D003022824BF012089F883
:1079A000D00399F8D603022824BF002089F8D60313
:1079B000D9F82840FDF704F918B92D49FDF729F940
:1079C00010B90020C9F8280099F8D303022824BF71
:1079D000002089F8D30399F8D90310B1002089F861
:1079E000D903FDF7D0F924BF002089F8C90399F81D
:1079F000E003043810F1030F9CBF022089F8E00374
:107A000099F8E203043810F1040F9CBF012089F8B3
:107A1000E20399F8E403043810F1040F9CBF01203D
:107A200089F8E403012089F8E903BDE8F08700BF85
:107A300002F8010800F00108042002402573000844
:107A400023016745AB89EFCD0000C842000020420A
:107A50000000BE430000A0410000AF430000F04121
:107A60000000C8430000FA43000020430000A0408B
:107A70000000C8C210B5074C0749206840F001005B
:107A80002060A64801604FF48010FFF76DFCFDF701
:107A900001BA00BF10200240384B544181B0016848
:107AA000D0F801008DF800108DF801009DF801005C
:107AB0009DF8001041EA0020ADF80200BDF8020078
:107AC00001B0704710B5084C6FF002012160FFF75C
:107AD00079FAA06840F48000A06020688007FCD597
