:020000040800F2
:10200000C02F0020852100084B480008712D0008D2
:1020100049480008472A0008B56E00080000000083
:10202000000000000000000000000000B34D0008A8
:10203000492A000800000000B14D0008B54D000815
:102040009F2100089F2100089F2100089F21000870
:102050009F2100089F2100089F2100089F21000860
:102060009F2100089F2100089F2100089F21000850
:102070009F2100089F2100089F2100089F21000840
:102080009F2100089F2100089F2100089F21000830
:102090009F2100089F2100089F2100089F21000820
:1020A000116300089F2100089F2100089F2100085C
:1020B0009F2100089F2100089F2100089F21000800
:1020C0009F2100089F2100089F2100089F210008F0
:1020D0009F210008556E00089F2100089F210008DD
:1020E0009F2100089F2100089F2100080000000098
:1020F00000000000000000000000000000000000E0
:10210000000000009F21000841630008000000005B
:102110009F2100089F21000800000000000000002F
:102120009F2100089F2100089F2100089F2100088F
:10213000000000000000000000000000000000009F
:102140000000000000000000000000009F210008C7
:1021500000000000000000009F2100089F210008EF
:102160000000000000000000000000009F210008A7
:10217000DFF80CD000F0A0F900480047CD88000837
:10218000C02F00200648804706480047FEE7FEE7CC
:10219000FEE7FEE7FEE7FEE7FEE7FEE7FEE7FEE717
:1021A0009D620008712100082DE9FE4F804681EAFA
:1021B0000300C00F0C46009021F0004123F00045C1
:1021C000B8EB0200A94105D24046214690461C4684
:1021D0000B46024623F00040104347D0270DC7F3BB
:1021E0000A00C3F30A510290401A019040286BDAAA
:1021F000C3F3130040F4801B0098924620B10023E3
:10220000D2EB030A63EB0B0B01985946C0F1400275
:10221000504600F069F906460D4650465946019A67
:1022200000F081F910EB08006141002487EA1152A7
:1022300084EAE7731A4340D0009A62B3019A012AF4
:102240004FEA075215DC001B61EB02014FF0004220
:1022500002EA0752CDE90042001C41F580113246E6
:102260002B4600F081F903B0BDE8F08F40462146CF
:10227000F9E7001B61EB0201001C41F58013001817
:102280005B412018A2F5001747EB030140EAD57027
:10229000B6196D4111E06D084FEA360645EAC07582
:1022A0004FEA0752001B61EB0201001C41F580114F
:1022B00049084FEA30000019514132462B4603B01D
:1022C000BDE8F04F00F041B9009801224000002322
:1022D000D0EB020263EBE073009821464FEAE07412
:1022E000B8EB000061EB0401E9E783F000435BE732
:1022F00081F0004158E72DE9FE4F81EA030404F024
:10230000004421F0004100944FF0000B23F0004303
:1023100050EA01045ED052EA03045BD0C3F30A54CE
:10232000C1F30A552C44A4F2F3340194A0FB0254E7
:10233000C1F3130141F48011C3F3130343F4801379
:1023400001FB024400FB034E840A970A44EA8154CD
:1023500047EA8357A4FB076802958D0A05FB0785AA
:102360004FEA932C04FB0C542705029D4FEA0658B4
:1023700047EA1637B5EB08056EEB070C870E920E91
:1023800047EA811742EA8312A7FB0201B6EB0B0171
:1023900064EB00042B0D43EA0C335E1844EB1C5035
:1023A000DA465146E7FB0201C5F313044FEA0B334B
:1023B00043EA14534FEA0432019C43EA0603A4F1B2
:1023C0000C040294009CCDE900B400F0CDF803B0F9
:1023D000BDE8F08F00200146F9E72DE9F04D81EAD4
:1023E000030404F0004B21F0004514464FF0000AAE
:1023F00023F0004150EA050220D054EA01021DD02A
:10240000C5F30A570246C5F31303C1F31300C1F322
:102410000A5640F4801543F48013A7EB0608101BFE
:10242000D64608F2FD3873EB050002D308F1010827
:1024300001E092185B41B8F1000F03DA0020014679
:10244000BDE8F08D00204FF48011064684460EE072
:10245000171B73EB050705D3121B63EB050306433C
:102460004CEA010C49084FEA300092185B4150EAEF
:102470000107EDD152EA030012D082EA040083EA98
:102480000501084305D0101BAB4106D201220023F1
:1024900006E000224FF0004302E06FF0010253100B
:1024A0001AEB06004CEB085110EB0A0041EB0B0154
:1024B000BDE8F04D00F049B81CB509480090094846
:1024C00001900546009C06E0E06840F0010394E8B6
:1024D000070098471034AC42F6D3FFF74DFE0000DA
:1024E00078CF010898CF0108202A04DB203A00FAAF
:1024F00002F1002070479140C2F1200320FA03F35B
:10250000194390407047202A04DB203A21FA02F058
:102510000021704721FA02F3D040C2F1200291401D
:10252000084319467047202A06DBCB17203A41FAA8
:1025300002F043EAE07306E041FA02F3D040C2F150
:102540002002914008431946704710B5141E73F1DC
:10255000000408DA401C41F1000192185B411A4363
:1025600001D120F0010010BD2DE9F04D92469B46AF
:1025700011B1B1FA81F202E0B0FA80F22032904655
:10258000FFF7B2FF04460F4640EA0A0041EA0B019A
:1025900053465A46084313D0114653EA010019D056
:1025A000C8F140025046FFF7AEFF05460E465046C2
:1025B00059464246FFF798FF084305D0012004E042
:1025C00020463946BDE8F08D0020054346EAE07616
:1025D0002C4337430A986305E40AA0EB0800002265
:1025E000FD0A44EA47540A3002D500200146E9E7D3
:1025F000010510196941DDE9084500196941BDE887
:10260000F04DA2E70EB540F2334102910021CDE931
:1026100000110A460B46FFF7A7FF03B000BD70B5D7
:10262000C1F30A5201F000450024C1F3130140F246
:10263000FF3341F480119A4201DA002070BD40F26C
:1026400033439A42A2F2334203DC5242FFF75BFF6C
:1026500000E090402C43F1D0404270BDD2B201E086
:1026600000F8012B491EFBD270470022F6E710B597
:1026700013460A4604461946FFF7F0FF204610BDF0
:10268000F0B480EA0102D40F4200B2EB410F02D253
:102690000246084611464A0042D0C30DDDB2C1F3DE
:1026A000C752AD1A202D35DAC1F3160141F40002EC
:1026B00004B15242C5F1200602FA06F12A41104443
:1026C000B3EBD05F23D0C4B1012DA0EBC35009DC24
:1026D000F0BC4FF0004202EAC352DBB200F500004A
:1026E00000F083B9400000F1807000EBC350A0F10E
:1026F000807040EAD170490009E0490841EAC071A0
:10270000A0EBC35000F50000400800EBC350F0BC44
:1027100000F062B96142012202EB4101001BF6E7C1
:10272000F0BC704781F00041AAE780F00040A7E7C5
:1027300080EA010210B502F00043400022D04A00B6
:102740001FD0010E01EB1261C0F35600C2F3560216
:1027500040F4000042F40002A0FB022000047F3994
:10276000140400D0401C50EA124001D44000491E1D
:10277000C2B20C0604EBD010401C4008802A02D0E4
:1027800003E0002010BD20F00100002900DA002045
:10279000184310BD30B480EA010202F0004530F069
:1027A000004221F0004013D090B1C30DD40DC2F30C
:1027B0001601C0F31600E41A41F4000140F40002CF
:1027C0007D34914201D3641C00E04900002C02DA00
:1027D00030BC002070474FF400000023914201D329
:1027E000891A034340084FEA4101F7D151B19142A0
:1027F00002D14FF0004105E002D24FF0010101E0AB
:102800006FF0010103EBC450284430BC00F0E4B881
:10281000002801DBC0F10040002901DBC1F10041CB
:10282000814201D80120704700207047002801DB59
:10283000C0F10040002901DBC1F10041814201D219
:102840000120704700207047002801DBC0F10040E4
:10285000002901DBC1F10041814201D30120704711
:1028600000207047002801DBC0F10040002901DB97
:10287000C1F10041814201D9012070470020704719
:10288000002801DBC0F10040002901DBC1F100415B
:10289000814201D1012070470020704730B5041EED
:1028A00071F1000404DB4FF00044404264EB01018D
:1028B000141E73F1000405DB1C464FF00043524226
:1028C00063EB0403801A994101D2012030BD00203E
:1028D00030BDC10F80EAE0700844CA07962300218A
:1028E00000F083B896230022114600F07EB800F075
:1028F000004220F00040C10DC0F3160040F400007B
:102900007F2901DA00207047962903DCC1F1960186
:10291000C84001E096398840002AF4D04042704710
:1029200020F00040C10DC0F3160040F400007F29E4
:1029300001DA00207047962903DCC1F19601C840F6
:102940007047963988407047C1F30A5210B5C1F3F9
:10295000130140F2FF3341F480119A4201DA002062
:1029600010BD40F233439A42A2F2334203DC52429A
:10297000FFF7C9FD10BD904010BD00F0004230F0DF
:1029800000400AD0C10D01F56071C0F3160042EAA3
:102990000151C208400711437047002001467047AB
:1029A00001F0004330B421F0004150EA010206D0AA
:1029B0000A0DA2F56072C1F31301002A02DC30BCDB
:1029C00000207047440F44EAC104C100E01830BC45
:1029D00000EBC250AFF300800029A8BF7047401C35
:1029E000490008BF20F00100704710B4B0FA80FC25
:1029F00000FA0CF050EA010404BF10BC704749B162
:102A0000CCF1200421FA04F411FA0CF118BF0121D1
:102A100021430843A3EB0C01CB1D4FEA00614FEAB1
:102A2000102042BF002010BC704700EBC350104480
:102A30000029A4BF10BC7047401C490008BF20F00B
:102A4000010010BC7047FEE7704700002DE9F84F09
:102A500041F6A309622A88460546DFF890A09B4606
:102A6000CDF8009028BF6222052A98BF0522C2F146
:102A70006400A62148436421424680B2B0FBF1F7CE
:102A80002846532107F153063346D0470A9831466A
:102A90000F220F230090681E84B2204603F096FE9A
:102AA0006137284642464FF48073CDF800B039466E
:102AB000D047204653212A463346CDF80090D047D0
:102AC000204639462A4602F058F908F10100532100
:102AD0003346CDF8009084B240462246D047404667
:102AE0003946224602F049F9BDE8F88F132F000855
:102AF000438E4FF6FF7293421CBF5A1C428670B53C
:102B0000CB1C0021062B24D8DFE803F00423142378
:102B10000823200001F0E5FF04211AE0038C418620
:102B20009A4238BF012180F834104FF0010138BFBC
:102B300009210EE0038C41869A4238BF012180F8BA
:102B400034104FF0020138BF0A2102E001F0C9FF42
:102B50000321024612F8305F12F8093C12F8036CA8
:102B6000DCB202F8033C84F001033343B3FA83F38D
:102B70005B094DB1002B5ED0002280F83020C28569
:102B8000826280F82C2056E0458D6DB1013D45856F
:102B90002D0401D0002508E090F82C50012D03D120
:102BA000002101F09EFF05210125BCB1002B42D080
:102BB000024632F8283F32F8104CA34239D3448BF6
:102BC000A3422FD290F82C3085F00104013B18BFAE
:102BD000012323432DD1838B43852AE0038D048B6E
:102BE000013303859BB2A3420AD12DB990F82C4042
:102BF000012C01D1062101E000F12C020124147006
:102C0000428B934217D3C38DC28B01339CB2B4FB6A
:102C1000F2F505FB1242002A18BF1A46C28508BF0A
:102C2000082108E0002180F83010C1851160117181
:102C3000072100201080084670BD2DE9F04701688B
:102C400082888B68816886898D680469818AA46816
:102C500005EA0607BD1B04EA010CB5FA85F5ACEBE5
:102C600001044FEA551E90F82450B4FA84F4640924
:102C700080F8264080F8274003EA0204A31AB3FA3A
:102C800083F34FEA531A837D1BB355452ED0B7EB20
:102C9000060918BF4FF0010990F82580B8F101032B
:102CA00018BF0123BD1BB5FA85F56D091D4394427C
:102CB0001FD165B1B8F1000F08BFB7423DD0A8EBF6
:102CC0000E02B2FA82F2520912EA090F3DD0012532
:102CD0001EE055450AD04FF0FF35B74280F825E099
:102CE00080F824A008BF0125944217D102200025B6
:102CF0001DE065B1B8F1000F08BFB74221D0A8EBC5
:102D00000E02B2FA82F2520912EA090F27D0FF2509
:102D10004FF0000E80F825E080F824A0EAB26FF0B2
:102D20000200012A08BF0320002A08BF02208C45A8
:102D300018BF054668B2BDE8F087FF254FF0010EC9
:102D4000E8E74FF0010E0125E4E787EA060288EA8A
:102D50000E031A43B2FA82F252095542DAE787EAC1
:102D6000060288EA0E031A43B2FA82F25509D1E745
:102D7000FEE700002DE9F84FDFF88CB007462A2067
:102D8000984692468946D8477C4C4FF40045380A0D
:102D90007B494FF480666560C4F8FC03F8B20E60AE
:102DA000C4F80068256065600F46C4F8FC034FEA6C
:102DB0001A200E6001F0E4FD5FFA8AF00E6001F067
:102DC000DFFD2B200E60C4F800682560D8474FEA6D
:102DD000192065605946C4F8FC035FFA89F03E602B
:102DE00001F0CEFD4FEA18203E6001F0C9FD5FFA08
:102DF00088F03E6001F0C4FD3E60C4F800682560C4
:102E00002C20BDE8F84F0847C531000870B5164CB6
:102E10004FF6FF724FF6FF7394F8380094F83A10AB
:102E2000002818BF40F2DF12002918BF40F23F13FC
:102E3000002000210025FFF79DFF94F838000128AD
:102E400011D168090E280ED8002694F83A000128FE
:102E500007D1B009042804D8002000F0A5F90136F4
:102E6000F3E70135E9E770BD080100202DE9FE4FC9
:102E70000C46A3EB010B111A05460029029101DD56
:102E8000012008E005D00298404202904FF0FF3048
:102E900001E000200290BBF1000F019001DD01264E
:102EA00007E019BFCBF1000B4FF0FF364FF0000BDE
:102EB000002602985F464FF000084FF000094FF0DF
:102EC000000A584588BF07461FFA88F08742B8BFF6
:102ED000BDE8FE8FA8B2A1B202460B46FFF74AFF3B
:102EE0000C9800F061F90AEB0B0008F10108B842F8
:102EF000C8BF34440299019A4944B942C8BF154435
:102F0000B0EB070AD8BF8246B1EB0709D8BF8946A4
:102F1000DAE72DE9F8438146501E154698460E46DD
:102F200082B2581E83B24846FFF724FF089CB0B215
:102F3000404528BFBDE8F8834F46B8B2A84204D246
:102F4000204600F031F90137F7E70136EFE70000DE
:102F500010B5002007F08EF8A548A44A4FF40041B0
:102F60004FF4006341601360D0F8F843C0F80038B4
:102F70000160102007F07EF8A0B210BD10080140DB
:102F8000141001402DE9F04F87B0119F1C46904668
:102F900000EB5702CB1901F032FE01203909109ED7
:102FA0004FF0000B17F00E0F18BF00EB171101FBCD
:102FB00007F00690A8F120004FF4C8717D084FF08B
:102FC0000008C2B22D48059212FB010004902F4860
:102FD00000EB021003902B4800EB8210029028486F
:102FE00000EB022001900698804543D0502F16D068
:102FF000102F18D00598182F00EB400009D0202F73
:103000000FD0402F09D00C2F34D1214901EB800083
:103010000AE01D4901EB001006E0019804E0049865
:1030200002E0029800E0039840440BF108074FF0DB
:10303000000A90F80090BAF1080F13D029FA0AF0AC
:10304000C007204608BF304600F0AEF80BF1010B78
:103050001FFA8BF0B0FBF5F101FB150020B10AF16E
:10306000010AE8E7BB4601E04FF0000B119F08F1B1
:103070000108B8E707B0BDE8F08F00BF9C3A01082F
:103080009CDB0008DCC300080CB200081CAC000884
:10309000A8A700082DE9FE4F07460D9899469246CD
:1030A0000E4600254FF00A084FF0000B4408032D90
:1030B00008BFBDE8FE8FC5F102000121020604D061
:1030C00001EB810101384900F8E7BAFBF1F0BBF1EF
:1030D000000FB0FBF8F101EB8101A0EB410105D13C
:1030E000012D03D8080410D04FF0010BDDE90C20AE
:1030F00041F030014B46CDE9002005FB0470CAB217
:10310000314601F0D6FB0135D1E7DDE90C10302264
:103110004B46CDE9001005FB0470314601F0C9FBB8
:103120004FF0000BEFE72DE9FC47DDF828809946CA
:1031300015460E4607464FF0000A4FEA58042A7813
:103140004AB1B8B231464B46CDE900A8FFF71AFFA5
:1031500027440135F3E7BDE8FC8700002DE9FE4F69
:103160001C469046894683465D0800260FF2300AC9
:103170000027072F08BFBDE8FE8F781EC0B20528C4
:103180000AD81AF800200BEB060049464FF6FF73E9
:10319000CDE9008401F08DFB2E440137E9E700BF43
:1031A00056312E302E37000011494FF400424FF4B3
:1031B00080634A60C1F8FC030C480360C1F8003822
:1031C0000A60704710B50949094B4FF480524FF41B
:1031D00000440A605C60C3F8FC034FF48060086040
:1031E000C3F80008C3F800281C6010BD141001408B
:1031F000100801402DE9F04F95B0DFF8B8BB9BF8FF
:103200001C0001282BD0002841F0E182DFF8A89BA8
:1032100099F8E60302282BD1D9F8B040D94901F03A
:10322000BBFC00286FD0D74901F079FC002840F0A2
:10323000B78099F8C003002840F0B2809BF82400C2
:10324000002840F0AD809BF8250001308BF8250068
:10325000C0B2032824BF0120ABF824006FE09BF824
:103260003000012808D1DFF8340E90F8D1031CE0BB
:1032700000208BF8240093E07F2000214FF4F072AF
:103280001E230090002003F0A1FA40F29F100821B5
:1032900043F286121023FFF761FF0120DFF8FC1DC7
:1032A0008BF83000FF2081F8D103DFF8F08D98F81B
:1032B000D01388420FD03F20012908BF3E20009044
:1032C0004FF4C77006211522152303F07FFA98F8F2
:1032D000D00388F8D10398F8C90398F8CA1381423B
:1032E00034D0012803D098F8CB13012929D17020BC
:1032F00003212A221823009040F2631003F066FA9B
:1033000098F8C90320E09BF8230001308BF82300D4
:10331000C0B215280AD300208BF823009BF82200A6
:10332000013000F003008BF8220001E09BF822003E
:1033300000218BF82410DFE800F0022A262856200E
:1033400026E000218BF8301088F8CA0398F8E603CD
:103350004FF6FF7A00F0FE0102294FF6FF7140F0B0
:10336000508798F8C41398F8C5238A4200F0DB8090
:10337000032900F2D280DFE801F002C8C4C60120B0
:1033800088F8E703C9E0582002E0592000E0572000
:1033900000904FF4D77028212422222303F016FA3C
:1033A00099F8E80301280FD1DFF8F40C81694A1E6F
:1033B0000029826108DC002189F8E8134FF4967136
:1033C0008161172089F8E6039BF8201099F8C6035D
:1033D00019B108BB99F8C2130CE0012101288BF840
:1033E00020100CD0C0B999F8C213012909D80220C5
:1033F00089F8E6030020022938BF012002E00320FB
:1034000008E0002099F8E61301F0FE01022903D13B
:1034100010B1022089F8E60399F8E60399F8E7234A
:103420004FF6FF71824200F0CE80DFF8742C564BCD
:1034300089F8E703D1815549FF22C9E90433C9F866
:103440003830C9F8303089F8B92389F8CE2389F8A3
:10345000D42389F8C7238BF81E20C9F81C10C9F89B
:103460005410C9F8081001F056FAC9F89C10C9F8B0
:103470004410C9F8A41001F012FAA0F11D01CAB25B
:10348000202A04D300F17F02D2B2012A22D89BF86D
:10349000212082B904201E214FF4F0724FF4917361
:1034A0000090002003F092F901208BF8210099F898
:1034B000E603A0F11D01C9B2062904D3A0F12D0134
:1034C000C9B20D2911D800904F2046214FF4A172A6
:1034D000A52376E00021009000204FF4F0724FF415
:1034E00091738BF821101E216BE0A0F12301C9B26A
:1034F00007294DD8009050203B2140F23F12BB23BA
:103500005FE0462002E0442000E0422000907B2063
:103510007B21EB22672303F059F998F8C41398F83C
:10352000E60388F8C51302284FF6FF7140F069865C
:1035300098F8C003022804D0012812D0002840F0D7
:10354000218618200024342100224FF6FF73CDE994
:10355000004040F24510FFF79DFDABF8524000F0EF
:1035600011BE98F8C203012802D198F8D90320B1FE
:1035700098F8C943022C40F0D2840020ABF85200E6
:1035800000F000BE0000A04200007A4400007F432B
:10359000A0F1810102290ED3A0F13B0102290AD337
:1035A000A0F12B0101290ED80090482058214FF49A
:1035B000A872822305E00090092057214FF4E7729A
:1035C000842303F003F99BF8280001280DD000287C
:1035D00040F02581B9F8BA0390B199F8E663022E5C
:1035E00051D0032E54D119214EE0B9F8BC0388B153
:1035F00099F8E663022E72D0032E75D119216FE07F
:103600009BF83100002800F0B48001385F468BF849
:1036100031009EE0D9F89850D9F8A000D9F8B4400C
:1036200001F07AFA30B1D9F8B80001F072FA002846
:1036300040F0F28099F8C01399F8C22399F8D93371
:1036400099F8E603C9F8B840C9F8A050090608BFC0
:103650002C4682F00101DAB2114318BF2C46CBF898
:103660007040022800F0C480032840F0D58001F0AB
:1036700059FA0246202043F28611CDE900104FF49A
:10368000CA70CD21C4E00521D0FA51F0A9F8BA03DF
:103690000020D9F820505F46C9E90200D9E9064068
:1036A00001F037FA28B1D9F8240001F035FA0028E2
:1036B0004FD199F8CD03C9F82450C9F81C4000280F
:1036C00008BF254601F06BFA0446022E37D0032EC0
:1036D0003FD101F066FB40F28910502135E0052111
:1036E000D0FA51F0A9F8BC0399F8C973022F04D09D
:1036F000CE48C9F8B800C9F8A000D9E92640D9F8E1
:10370000BC5001F006FA30B1D9F8C00001F004FA5B
:10371000002840F08180C9F8C050C9F89C40022FB1
:1037200008BF2C4601F0FEF90446022E16D0032EE7
:1037300072D101F036FB4FF4CA70CD2116E05E2045
:1037400001F0FFF901F0EEF878214FF66143FFF741
:10375000A1FC97F82800BB4601305EE0622001F032
:10376000E4F901F0DFF84FF48770782143F67F43E6
:1037700050E099F8C4035F460028EAD1D9F82850F0
:10378000D9F8008000212846FFF77AF8A8490646B4
:103790002846FEF7CDFFA749FEF7FCFF01F0DBF856
:1037A00085F00041002E18BF084699F8CDB3BBF153
:1037B000010F18BF0846FFF79AF899F8C9A3054604
:1037C000BAF1010F40F0D583BBF1010F40F0FB834C
:1037D00097494046FEF7ACFF9649FEF7DBFF01F044
:1037E000BAF89549C9F80400FEF74AFF0646CFE348
:1037F000602001F09AF9DBF87000FFF778F80246D4
:10380000502041F6A301CDE900104FF487707821D4
:103810004FF6FF73FFF73EFC00208BF8280099F865
:10382000E603022800F07081032840F082819BF8B3
:103830001F0058B9002029214FF4BC72FA230090D0
:103840001220FFF766FB01208BF81F00D9F80060FB
:103850007A49D9F84850D9F8B08001F0C9F999F8F7
:10386000C943012C18BF3046FFF741F80646FFF761
:1038700030F801462846FEF7F5FF074601F08FF9BC
:103880000546002F08BF354699F8C00350B16C4972
:103890004046FEF7CBFF28B99820022C08BFBC2079
:1038A00059F8008028B2CA46FFF713F86549054663
:1038B000FEF7CAFF644E00281CBF0025C4F2FA358B
:1038C00028463146FEF7A4FF604A00281CBF0025A9
:1038D000C4F2C8252846314606F00AFFABF8580066
:1038E0004046FFF704F8FEF7FDFF594901F05AF989
:1038F00000281CBF0024C4F24834204600210026C2
:10390000FEF786FF0028534A18BF002420460021F6
:1039100006F0EEFEABF85A0040F2651744F6384B5D
:103920004FF00009B9453CD009F112000AEB090833
:10393000009684B209F1140098F8EC1098F8ED3074
:1039400085B220462A46FFF791FA98F8521298F865
:10395000533220462A460096FFF788FAB9F5B27F1F
:1039600014D04FF2604098F8EE3098F8ED102A46E7
:1039700000902046FFF77AFA98F8543298F85312DC
:1039800020462A46CDF800B0FFF770FA98F8ED000F
:1039900009F1010988F8EC0098F8530288F85202FE
:1039A000C0E7DFF8301EDFF8486ED146002448F249
:1039B0000F454727B1F858008AF85102B1F85A006C
:1039C0008AF8B7034FF02A0ABCB1052C44D004FB97
:1039D0000AF04FF4BC720095283081B212200B46D9
:1039E000FFF744FA04FB07F02821FA230095123070
:1039F00080B20246FFF73AFA15E0122028214FF470
:103A0000BC7228230095B047122028211222FA23E5
:103A10000095B0471220FA2101F04AF94FF4BC702A
:103A2000282101F045F90134CEE700BF00007F43B3
:103A3000000010410000A0400000F4C2000048C295
:103A40000000F0410000FA430000C84200001644A4
:103A50000000484300007A4373202A212F221923B3
:103A60000090142002F0B2FEDFF8944D0C250FF602
:103A700084521520462101F02AF80FF688521520AD
:103A8000702101F024F80FF6885215209A2101F0D8
:103A90001EF80FF688521520C42101F018F80FF611
:103AA00088521520EE2101F012F874202A211722E5
:103AB0001723009040F25F1002F088FE0FF6745258
:103AC0004FF4B270462100F0FEFF0FF66C524FF437
:103AD000B270702100F0F7FF0FF660524FF4B27031
:103AE0009A2100F0F0FF0FF658524FF4B570C42140
:103AF00000F0E9FF0FF64C524FF4B870EE2100F0E1
:103B0000E2FFDFF8D0BC91E0D9E90045D9F8100018
:103B100000F0FFFF88B9B9F8BA1399F8CD03C9E9E5
:103B20000445A1B100B3D9F820009B49FEF7A8FDD8
:103B300017E000208BF81F0078E0D9F8140000F09F
:103B4000EBFFB9F8BA130028E7D059B3E5E799F8C5
:103B5000C96360B190492846FEF792FD012E18BF57
:103B600028468E4C8E4D0AE0D9F8180005E08D49A4
:103B700000F0C1FF012E18BF20468B4C8B4DFEF785
:103B8000FCFE02460B4628462146FEF7B4FBFEF734
:103B900046FD02466A2027214FF6A04300901A20D6
:103BA000FEF754FFD9F89840D9F8A400D9F8B450DA
:103BB00000F0AFFF10B9D9F8BC600CE0D9F8A8004C
:103BC000D9F8BC6000F0A8FF28B1D9F8AC003146A4
:103BD000FEF756FE50BB09F1A40070C099F8C0036F
:103BE000012809D199F8C203012805D199F8D90310
:103BF00010B9B9F8BC0320B101F010F808BF344681
:103C0000254600F0CCFFFEF7FDFC694B0022FEF7D5
:103C100072FBFEF704FD02466B204FF4E37140F2A5
:103C20005F43009040F2B910FEF710FF99F8E603E9
:103C3000011F11F1020FC0F0CD8046F269605D21D5
:103C40004FF481724FF49473ADF85000302010930C
:103C500046F268531291CDE90C21CDE9072199F87C
:103C6000B813119213900E9009905A20ADF83C3081
:103C7000C123069099F8B9030B9346F26743ADF858
:103C80002830884247D006AC012604F10805042EEE
:103C900010D099F8B903864209D16F7AAB882A8887
:103CA00035F8041C35F8080C009702F08FFD143528
:103CB0000136ECE799F8B90308B104280DD30025C3
:103CC0003C2D0AD06619605BB3893289B188767C55
:103CD000009602F07BFD1435F2E799F8B803411E17
:103CE000CAB2022A0FD8900050FA81F134F82100AC
:103CF00004EB8104A3892289A188247C009402F02A
:103D000065FD99F8B803E749002289F8B9038BF8F3
:103D1000292000F000FE00285AD09BF82900002836
:103D200056D1D9E91A06D9F81850D9F82040FEF72B
:103D3000DEFDADF8120000F0ACFFADF81400D9F8CC
:103D40007000FEF7D4FDADF81600D9F87400FEF748
:103D5000CEFDADF80C00D9F87800FEF7C8FDADF83F
:103D60000E00D9F87C00FEF7C2FDADF8100000F09F
:103D700016FF054600F0D6FE00210DF1120203AB3E
:103D800003291BD032F81140AC4221D033F8114046
:103D900001318442F4D11BE00000F4C2E3A5BB3F33
:103DA000D9CEF753000048C29999C93F9A99999979
:103DB0000000E43F08010020CC170020B948C9E901
:103DC0003500C9E93700C9E9390001208BF829001D
:103DD00099F8E60300F0FE00022840F09B80D9F835
:103DE0006840D9F8D400D9F8745000F092FE20B1A0
:103DF000D9F8E00000F090FE90B900F0C9FE08BFCD
:103E00002C4600F08FFE00F0ADFE602000F015FEA5
:103E1000D9F86800D9F87410C9F8D400C9F8E010CE
:103E2000D9F86C40D9F8D800D9F8785000F071FE74
:103E300020B1D9F8E40000F06FFE90B900F0A8FEC0
:103E400008BF2C4600F06EFE00F08CFEC72000F08C
:103E5000F4FDD9F86C00D9F87810C9F8D800C9F881
:103E6000E410D9F87040D9F8DC00D9F87C5000F0A3
:103E700050FE20B1D9F8E80000F04EFE98B900F0ED
:103E800087FE08BF2C4600F04DFE00F06BFE4FF49D
:103E9000977000F0D2FDD9F87000D9F87C10C9F8FD
:103EA000DC00C9F8E810D9F88040D9F88C0000F09F
:103EB00030FE50B900F036FE00F054FE8D2000F0C8
:103EC000BCFDD9F88000C9F88C00D9F88440D9F835
:103ED000900000F01EFE50B900F024FE00F042FEFB
:103EE000F42000F0AAFDD9F88400C9F89000D9F8B0
:103EF0008840D9F8940000F00CFE58B900F012FE8A
:103F000000F030FE40F25B1000F097FDD9F8880019
:103F1000C9F894009BF81C00013000F056BCD8F89A
:103F20000000D8F81870FEF7E2FC012C08BF323808
:103F300000B2FEF7CEFC5C4904463846FEF7A0FB13
:103F400021468246FEF772FC584905463846FEF780
:103F500097FB064635B930462146FEF783FC00281C
:103F600000F0AC8030462146FEF752FCF0B901204B
:103F7000FDE0BBF1010F7BD14D494046FEF7D8FB78
:103F80004C49FEF707FC00F0E6FC0646C9F80400C1
:103F90002846FEF79EFC014600F02AFEFEF7A7FC2D
:103FA0000546FEF796FCD9F84C601EE050462146C7
:103FB000FEF74AFC00284FF6FF7A40F0DF80002031
:103FC0008BF82600D8E03C494046FEF759FB0646F0
:103FD0002846FEF77EFC014600F00AFEFEF787FC4D
:103FE0000546FEF776FCD9F84860014600F04AFC29
:103FF00010B100F04EFE054699F8E64344F0020089
:10400000032801D1142004E099F8C003002818BF48
:10401000142087F83100D9E901604146FEF730FCF1
:1040200038B1D9F80C003146FEF72AFC00287FF49D
:1040300090ABBAF1020FC9E9028617D099F8D30301
:10404000012813D197F83200CA46B946002855D046
:104050000AF11800BBF1010F08BF0AF12000006847
:10406000FEF745FC0546C9F8740060E07D675FE037
:104070002846FEF72EFC01464046FEF701FBFEF700
:1040800036FC0546FEF725FCD9F848600146304667
:10409000FEF7BEFB0028ACD0AEE700BFCC17002077
:1040A0000000002000007F430000C8420000C8C29A
:1040B000000010410000A040000048C29BF827000B
:1040C000022853D1DFF810074FF6FF7A018A013931
:1040D000018209B2002951DC322101823846214691
:1040E000FEF720FBFEF703FC01B280EAE130A0EB13
:1040F000E13000B20128D8BF01203DE02846C9F8D0
:104100007450FEF7E6FBDAF81860DC49804600F0F0
:104110006FFD4146FEF7A6FB48B9D94900F068FD9E
:104120004146FEF783FB10B9012089F83200D146E1
:10413000032C0ED0022C7FF40CAB5C2000F001FDB0
:10414000B7F87420502041F6A301CDE90010782182
:1041500008E0202043F28611AAB2CDE9001040F217
:10416000891050214FF6FF73FFF7F1BA02208BF848
:10417000260064204FF6FF7AABF852009BF8260029
:104180008BF82700DFF85016BBF85200C98981422E
:104190003AD0C0B2642828BF6420012898BF01200B
:1041A000C0F16400FEF79EFBB649FEF7F3FAB6498C
:1041B000FEF7BEFAFEF79BFBC0F5877044F2507124
:1041C000432384B20091CF203F212246FEF7A1FE77
:1041D00041F6A3003F214FF487724323009020460D
:1041E000FEF797FEBBF85220182000214FF6FF7310
:1041F000CDE9001040F245103421FEF74BFFBBF82B
:104200005210DFF8D405C18198F8E67307F0FD007D
:104210002D2804D1D8F82C50D8F8344007E0D8F82D
:104220001850D8F82040C8F82C50C8F83440D8F8B6
:104230003000D8F8386000F06FFC18B1304600F05C
:1042400068FC28BB47F00200C8F83840C8F8305076
:104250002F281DD198F8CD0398F8DC63002808BFFB
:104260002C4600F05FFC0246202043F266114FF618
:10427000FF73CDE90010F0B2022808BF4FF4FC63D1
:104280004FF487702F2F18BF53469621FEF702FF79
:104290009BF82A0038BB0120D8F81860D8E91A54D6
:1042A0008BF82A00D8F80000FEF721FB00EBC000D5
:1042B000052700F023FCC8F8040000F0EAFC00F039
:1042C000CCFAC8F8200000F06AFC00F0C6FAC8F882
:1042D000740000F027FC00F0C0FA00F0A7FC00F02A
:1042E000BCFAC8F87C0098F8CD9398F8CE434C45BA
:1042F00027D0D8F80000D8F81860D8E91A5AFEF785
:10430000F6FA00EBC000052700F0F8FBC8F804003F
:1043100000F0BFFC00F0A1FAC8F8200000F03FFC5C
:1043200000F09BFAC8F8740050464FF6FF7AFEF78B
:10433000DEFA00F092FA00F079FC00F08EFAC8F88C
:104340007C009BF81D00062800F23E82DFE800F0AA
:104350000478183C09A2BF004C4540F0CB800120F6
:1043600030E298F8E603372840F0188198F8DD032A
:10437000012800F00981002840F021826F2004E12B
:1043800098F8E603232840F0B38098F8DF0301385B
:10439000C1B2032900F2AC80C000DFF84854782194
:1043A00014221423C4B2394800F091FC384EA121E4
:1043B0001422142306F57F4000F089FC26FA04F04D
:1043C000CA2114221423C1E198F8E603A0F12301C5
:1043D00000F09AFA00F2F381012202FA01F140F6AC
:1043E0006162114200F0EB812D2808D0352806D0FB
:1043F000372802D198F8DD1309B1392804D14E20AD
:1044000000F0A6FB98F8E6032F2805D0372808D13E
:1044100098F8DD13012904D1512000F099FB98F898
:10442000E603232840F0CB8198F8DF0351210428CC
:1044300008BF4E210091C420FF2158222D2343E0C4
:1044400098F8E603A0F11D0100F05EFA00F2B781D2
:10445000012202FA01F140F67742114200F0AF81E9
:104460001D2840F0C88098F8CC03002800F0BA80DE
:10447000012840F0C0808924B121B5E0000020C1AE
:10448000000020410000C84200007C42797A7A7A1C
:104490007A7A797A98F8C0039BF81E10814200F06E
:1044A0008E8198F8C913022900F0898198F8E613E3
:1044B00000288BF81E004CD102294AD14020282127
:1044C00096224B230090A52002F080F977E19BF81B
:1044D0002D2098F8C913022A22D1022920D098F859
:1044E000E6038BF82D10022840F053817C2049E12F
:1044F000032067E198F8E6032F283BD0032800F05B
:1045000028812D2836D0022840F05581B9F1010FBD
:1045100000F04981B9F1000F40F04D814C2043E19A
:104520000020022A00F04E81022940F04B81022037
:104530008BF82D0098F8E603022840F02A8198F8BD
:10454000D603002800F01581012840F01A817E2052
:1045500010E1012808BF022940F031817B20282189
:1045600096224B230090A52002F030F99A48A0F83B
:104570000EA024E1B9F1010F00F0F380B9F1000FB2
:1045800040F019814820EDE06C200090CD20BE2144
:104590004622202302F01AF998F8E603352840F065
:1045A0000E81EC20832143F2661220234FF0EC08A9
:1045B00043F266152026FEF7D1FD002787A4072FBA
:1045C00000F0FD80781EC0B2052809D8225C08EBF7
:1045D0000710B5214FF6FF73CDE9005600F069F9D9
:1045E0000137ECE7B12489215A2000F02FF95B2034
:1045F000214600F02BF998F8E6031F2812D198F80D
:10460000CF03012803D0A8BB8924B12101E0B12444
:1046100089215A2000F01AF95B20214600F016F992
:1046200098F8E603212810D198F8D20320B1012888
:104630000BD18924B12101E0B12489215A2000F055
:1046400005F95B20214600F001F998F8E6033128CE
:1046500012D198F8D503012803D0B8BB8924B12121
:1046600001E0B12489215A2000F0F0F85B202146B6
:1046700000F0ECF898F8E603332810D198F8DB0343
:10468000012803D058B98924B12101E0B12489213E
:104690005A2000F0DBF85B20214600F0D7F898F8AC
:1046A000E603252814D198F8E103022805D0032851
:1046B00040F085808924B12101E0B12489215A206C
:1046C00000F0C4F85B20214600F0C0F898F8E6033B
:1046D00027281ED198F8E30300F0E2FA6FD8C00053
:1046E000404D752125221E23C4B23F4800F0EFFA49
:1046F0003E4E9E2125221E2306F57F4000F0E7FA5C
:1047000026FA04F0C72125221E2300F018FB98F892
:10471000E603292853D198F8E50300F0C1FA4ED8F2
:10472000C000304D752125221E23C4B22E4800F052
:10473000CEFA2E4E9E2125221E2306F57F4000F044
:10474000C6FA26FA04F0C72125221E2300F0F7FA44
:1047500035E0B9F1010F1ED0B9F1000F2BD14A207D
:104760001AE0492000904FF4A07099211C221B23CD
:104770001FE07B200090A520282196224B2302F0E9
:1047800025F87520009091205021BE22232302F0AD
:104790001DF8002016E04B2000904FF4DC705421EF
:1047A0001A22182305E04D200090C820AA211422C7
:1047B000152302F00BF898F8CD0388F8CE039BF888
:1047C0001D0001308BF81D0000208BF81C0015B077
:1047D000BDE8F08F080100200000002056312E3087
:1047E0002E310000CD6700085A5B5B005B5B5A000E
:1047F0006D2E000835303028393332290000000092
:1048000027310008343030283735322900000000C5
:10481000333030283537322900000000323030285C
:10482000333932290000000031303028323132294A
:1048300000000000323030003135300031303000BF
:104840003530000030000000FEE7704725221E23AF
:1048500000904FF4AA7001F0B9BF00EBC000B0FBAC
:10486000F7F0203080B2FEF73DB8C9F89C00C9E9E6
:104870002300C9F89400C9F8BA13C9F82400C9F88C
:104880001C0070473046FDF7EDBFB7F860000130FF
:10489000A7F8600080B270475846FDF7F1BEC9E93D
:1048A0002311C9F894107047D9F820004FF0424105
:1048B000704780B2FEF766BBCDE90144ADF8144005
:1048C0007047042002F056BB656005F0F9BB4FF459
:1048D0007A704FF07E517047BDF808100A31ADF87C
:1048E00008109DF80B100131704701F0070125F405
:1048F000E04545EA013170472D2087F8E6030020A6
:1049000070470446FDF784BFCAB2C90141EA5201AB
:10491000C9B20B297047C9E93511C9E93711C9E98D
:1049200039117047502041F6A301A2B2CDE9001021
:10493000704781F82D200021317202210228704732
:1049400000BF00BF00BF00BF00BF00BF00BF00BF6F
:1049500000BF00BF70474FF08441FDF791BE97F84C
:10496000E60300F0FE0102297047C9F82410C9E9E6
:104970002311C9E92512C9F89C1089F8B8037047BA
:10498000C4F8006825606560C4F8FC03704750F8FF
:10499000210052F821100068C9F818000968C9F808
:1049A00098107047A7F8BC03D7F89800FDF768BEC9
:1049B000A7F8BC03D7F8BC00FDF762BEA9F8BC039A
:1049C000D9F8BC00FDF75CBE01208AF80D0000207C
:1049D0008AF83200502068614FF47A70A9F8BA035F
:1049E00099F8CD030128704707F18C0002EB810292
:1049F000704709F18C0002EB81027047BDF8081086
:104A00009DF807201144B142704720464FF07E5177
:104A1000FDF736BE00200121102284F82004C4F8DE
:104A20001804C4F81C0404F5826002F07DBA4FF04B
:104A30004241C9F82000FDF723BE4FF48C71FEF708
:104A400029BB0A6842F001020A60704787F8E60352
:104A500097F8E10397F8E31397F8E52387F8E00365
:104A600087F8E21387F8E423704797F8B813C7F87C
:104A7000BC4003297047686101208AF80D004FF49B
:104A80007A70A9F8BC03D9F89800FDF7F9BD97F83A
:104A9000B813C7F8984003297047C4F81014C4F835
:104AA000140404F5A2604FF48171FDF7DEBD99F89E
:104AB000B813C9F8BC400329704799F8B813C9F86E
:104AC00098400329704744F63843009520474FF239
:104AD0006043009520470021017299F8C91302290B
:104AE000704780F83010C185816280F82C107047C3
:104AF0002046FDF7B7BE2046FDF7C2BDB0FBF7F07C
:104B0000203080B2FDF7EEBE4FF042413862FDF733
:104B1000B7BD2146FDF7B4BE2946FDF7B1BE20461C
:104B2000FDF792BE2046FDF7E2BED4217B22192379
:104B300000904FF4877001F049BE78632846FDF776
:104B40009FBDD2217B221C2300905A2001F03EBE43
:104B5000FA2158222D230090C42001F037BE0446CC
:104B6000FDF764BE0246182043F286114FF6FF732C
:104B7000CDE90010704701462046384799F8E60312
:104B800000F0FE000228704797F8C903022870471A
:104B900099F8CD03012870472046FDF747BE284607
:104BA000FDF7A5BE0446FDF74FBE286840F00100A2
:104BB0002860704787F8E6130238B0FA80F04009A1
:104BC00087F8C60370478DF80B109DF80B107047DF
:104BD0000020307281F832004FF47A70A7F8BA03DF
:104BE00097F8CD03012870479AF80E1001297047F5
:104BF0003046FDF745BD0130C1B203297047013A87
:104C0000013B92B29BB2FEF7B5B805F5A2604FF436
:104C10008171FDF72ABD0446FDF724BE99F8C9034A
:104C20000228704701463046FDF700BEC8F87800FC
:104C3000D8F87000FDF75BBE272087F8E60397F8E9
:104C4000E20387F8E30370470A6842F001020A6052
:104C5000010E84F8240484F82114010C84F8221431
:104C6000010AF02084F825047047252087F8E60320
:104C700097F8E00387F8E1037047292087F8E603F7
:104C800097F8E40387F8E503704797F8DC030228F8
:104C900070473046FDF72BBE97F8C40300287047D5
:104CA0000138C1B2022970470020A7F860007047A0
:104CB0004FF4BC72FA230095304786F8E40304F100
:104CC0002600284786F8E20304F124002847E04044
:104CD000C0B200904FF4AA70284786F8E00304F1B0
:104CE0002200284786F8C90304F12000284786F8E7
:104CF000D90304F11E00284786F8D30304F11C00F1
:104D0000284786F8D60304F118002847B8633863AB
:104D1000B869FDF707BD86F8D00304F116002847EF
:104D200086F8CD0304F11400284786F8C60304F181
:104D300012002847C6F8880004F110002847C0B2C6
:104D400000904FF4AA702847C6F8840004F10C00C4
:104D50002847C6F8800004F108002847D7F82C80BF
:104D60002846FDF7E5BC044628462146FDF750BD20
:104D7000044628462146FDF767BD4FF48073CDF801
:104D800000905047206820F00100206010BD95F889
:104D90003500013885F83500000670472946FDF7D3
:104DA00045BD202043F28611A2B2CDE90010704724
:104DB000704770472DE9F041DFF8706B30780138AB
:104DC0003070000648D1DFF8684B1420307094F83A
:104DD000D003012813D1DFF85C5B95F8340002287A
:104DE0001DD001280ED058BB02F092F8307A01286D
:104DF00020D028BB012085F8340002201EE002F0FC
:104E000087F829E002F08AF8FFF7C1FF18D1317A5C
:104E1000022085F8340089B101290ED010E002F09B
:104E200077F8FFF7B4FF0BD102203072002085F82D
:104E3000340003E0012085F83400192085F835009E
:104E400094F8C40340B1707801387070000603D143
:104E50000120307228207070DFF8147D97F8C003AD
:104E6000022809D1FC6D00212046FDF709FD18B983
:104E7000BE49FFF740FEF865B0890138B0810004F3
:104E800041F000800120B081DFF8EC0C00F1280433
:104E90002046FDF7D2FE01462046FDF729FE0138E7
:104EA000092800F27180DFE800F0051C6F6F3557AC
:104EB0006A0D272E97F8E603411F162900F24D814F
:104EC000022015E0DFF8AC0C90F82E1000295BD121
:104ED000012180F82E10FFF742FD40F0E58200200E
:104EE000EBE297F8E603411F162900F2B980032090
:104EF0003071D7E0307247E0FFF731FD40F0DC80E1
:104F00000720307163E0FFF72AFD40F0FB800820A6
:104F1000307180E097F8E603A0F12301062940F202
:104F20005881811E0229C0F0BD801B2800F0D1836A
:104F30002F2800F0DB83372800F0CE83392840F09B
:104F4000B68397F8C603002800F0F684012840F0E5
:104F5000A980032000F0F1BCFFF701FD14D19249B4
:104F6000FF22C7F8BA139149C7F89C10DFF8041C58
:104F7000FFF7DFFC08BF0321FFF71CFE04E0DFF8AA
:104F8000F40B002180F82E103079172800F23285BA
:104F9000DFE810F01800DB019B0145024E02A20180
:104FA00023021D0041005D026A01B90174019B00EA
:104FB000C1003B02300530053005800276022C012D
:104FC00030059101052087F8E60300F011BDFFF7D9
:104FD00063FE40F00D85DFF89C1BFFF7F9FD00F044
:104FE0003783002840F04C83B8697149FDF748FBCE
:104FF0007049FFF7B4FD10B96E4C0020F8616E499E
:105000002046BC61FDF794FB6C49FDF7C3FBFFF73D
:10501000A2FC386234E3FFF73FFE40F0E984DFF89A
:10502000541BFFF7D5FD00F03883002840F0B28311
:10503000B8696349FDF724FB6249FFF7ECFD10B93D
:10504000604C0020F8615C492046BC61FDF770FBB4
:105050005A49FDF79FFBFFF77EFC386200F09ABBD0
:10506000A0F11D011A2900F25083DFE811F0B00011
:105070001B0064031B006A031B001D001B00DA03F6
:105080001B00E1031B000B041B007A037F0370036A
:105090001B00D4031B006D031B0084031B001B00BB
:1050A0001B006703002025E797F8DF03013801069E
:1050B00008BF042000F0F4BB2F287FF465AFFFF792
:1050C000E4FD7FF461AF0D20307197F8CD03012826
:1050D00000F0F681002840F08B84BC693649FD6AF7
:1050E0002046FDF725FB3549FDF754FBFFF733FC60
:1050F0002F49FFF722FD33490546FFF7FCFCFFF778
:1051000037FE24E02F287FF43FAFFFF7BEFD7FF48A
:105110003BAF0E20307197F8CD03012800F0DC8101
:10512000002840F06584BC692349FD6A2046FDF7EC
:10513000FFFA2249FDF72EFBFFF70DFC2049FFF790
:10514000FCFC21490546FFF7D6FCFFF70CFE0028C2
:1051500018BF2546FD6200F04BBCA0F11D011A29C5
:1051600000F2DA820FF20800D0E811F0000080BFF0
:1051700031003000E5023000EB02300093033000D4
:105180009E03300076033000B0033000FB020003C2
:10519000F102300069033000EE02300005033000F8
:1051A00030003000E80200BFE803E80300007F435E
:1051B000000020410000FA43000010410000A04020
:1051C000000020C10000C8420000C8C26AE70920F0
:1051D0008EE6DFE811F06F026C0207006C02070038
:1051E0006C0207002320FFF731FC5BE7CF48D04C6F
:1051F000D04DD14B0022012187F8E81387F8B8235E
:10520000BA6287F8D82387F8D62387F8D213A7F88D
:10521000CC23A7F8C82387F8C6233A6587F8DB2391
:1052200087F8D92387F8D51387F8D313C7F89800E0
:10523000C248C7E92054C24CC7F88830C14BB86196
:10524000C7E91A044FF480703B67A7F8CF034FF00B
:105250000130C7F8E20340F20220A7F8E003BA48A1
:10526000C7F8BA0300F0C4BB97F8CF03002800F0DA
:105270004481012840F0BC8300203FE197F8CD0332
:10528000012800F04081002840F0B283BD69AF4999
:10529000FFF764FDAE49FDF77DFAFFF75CFBAD4912
:1052A000FFF74BFC054640462946FDF7DBFAAA49C5
:1052B0000446404643E097F8DD03002800F03181C2
:1052C000012840F0958300202CE197F8E603811C2B
:1052D0001A2888BF0521A8E0FFF7DEFC40F088838C
:1052E000DFF89018FFF774FC00F06182002840F0AE
:1052F0004783BC699949FFF74FFC002800F02683DB
:10530000FFF783FB25E397F8CD03012800F03081F8
:10531000002840F06D83BD698C49FFF71FFD8C4963
:10532000FDF738FAFFF717FB8149FFF706FC054642
:105330004046FFF733FD044640464FF07E51FDF7EF
:105340009FF9002C08BF284630E197F8E613481F64
:10535000362800F2F682DFE810F037004B03E4064F
:105360004B03DD064B03F1064B03A3064B03C406B8
:105370004B03B4064B030E074B03EE064B03150716
:105380004B03EB064B034B034B03F7064B0324077E
:105390004B031B074B034B034B034B034B034B03C9
:1053A0004B034B034B032D07AD0639074B03D406C4
:1053B0004B03BB064B0305074B0336074B034B035D
:1053C0004B034B034B03F6021D2087F8E603FFF760
:1053D000DBFB08BF97F8CB03AAE1FFF75DFC40F0C9
:1053E0000783DFF89017FFF7F3FB00F0EA8100284E
:1053F00040F0EA82BC694E49FFF77AFB002800F0D2
:10540000C9825549FFF777FBC7E297F8D203002816
:1054100000F0CE80012840F0EB820020C9E097F830
:10542000E603811E062838BF1B2187F8E613DFE25A
:1054300097F8C603012800F0C180002840F0C18021
:1054400097F8C203012800F2BC800220B7E097F869
:10545000CC03012800F0E180002840F0C982FFF76A
:1054600093FB40F060810120002187F8CC0340F2DB
:10547000FF10A7F8CA03DFF8FC0680F83010B7E287
:1054800097F8DB03012800F0D780002840F0B082B5
:105490000120D2E097F8D503012800F0D38000283E
:1054A00040F0A6820120CEE0411F372901D3812898
:1054B00004D197F8E80308B904203071012019E5F8
:1054C000786B27493C6AFDF7DBF826490546FFF76C
:1054D00012FBFFF74DFC0AE0786B23493C6AFDF7AD
:1054E000CFF822490546FFF706FBFFF73CFC0028F2
:1054F00018BF254628467D634EE0012087F8CD037E
:1055000087F8CF0374E2386A18497C6BFDF7B8F866
:10551000054620462946FDF7A5F90F498046204655
:1055200033E0012087F8DD0362E200BF0000204283
:105530000000C8420000A0420000F0420000BE434C
:105540000000C8430000D243E803E8030000104114
:105550000000A0400000C8C2000080BF0000FA4365
:105560000000204100005443000020C1000054C34B
:10557000386AE3497C6BFDF783F805462046FFF760
:105580000DFC804620464FF07E51FDF779F8B8F1CA
:10559000000F08BF284678634FF04241FDF770F8CE
:1055A000D849FDF7C5F8D849FDF7F4F8F8621FE2CD
:1055B000012087F8D00387F8D20319E2032087F887
:1055C000E603DFF8780D90F82F10012909D10021AA
:1055D0004FF60172A0F82F10A7F8C92380F83110F8
:1055E00010E0002180F8311097F8C913022909D181
:1055F0004FF47A71A7F8BC13FF2180F82D1007F142
:105600009C0007E0C148C7F89C000020A7F8BC0335
:1056100007F1A000BD490160EAE1FFF7B5FA40F0EB
:105620008480FF210020A7F8CA13DFF8101D87F837
:10563000CC0381F83000DBE1002087F8D90387F83C
:10564000DB03D5E1002087F8D30387F8D503CFE14A
:10565000386AAF49FDF714F8AE49FFF780FA10B980
:10566000AC4C0020786220464FF042413C62FDF78E
:1056700007F8A449FDF75CF8A349FDF78BF8B8617A
:1056800097F8B813032900F2B081FFF7ADF9DFE80E
:1056900011F0AF01AA01A501A8013C6A9E49FFF7DC
:1056A00027FA00286AD09D49FFF725FA69E0012012
:1056B000FFF71EBC97F8DF03013803283FF6F2AC72
:1056C000DFE810F004007C0450045704FFF7CDFA23
:1056D000E8E40420FFF70CBC97F8DD03012800F094
:1056E0000B8100287FF4DEAC172026E197F8DC035D
:1056F000012871D10220B9693A6A87F8DC0383482E
:10570000C7E90B10C7E90D20CCE402380228BFF42A
:10571000C9AC0620FFF7ECBB02380228BFF4C2ACCC
:105720000520FFF7E5BB012000E0002087F8C90352
:1057300087F8CC035CE10A20FFF7DABB1720FFF7FC
:10574000D7BB0F20FFF7D4BB1320FFF7D1BB97F8CF
:10575000DC0300287FF4A6AC2F2087F8E6030120A5
:1057600076E0012087F8D6032C20E6E0002087F8B9
:10577000D6032B20E1E01420FFF7BABB00207862AB
:105780005F48FFF7C1F95F49FCF7D2FF5E49FDF7BB
:1057900001F8B86197F8B813032900F22681FFF7E2
:1057A00023F9DFE811F0250120011B011E013C6AED
:1057B0005849FFF7F1F9002800F0D680FFF725F9E6
:1057C000D5E03C6A4E49FFF793F9002800F0F080DD
:1057D0005349FFF790F9EEE00120D7E90A4187F835
:1057E000DC034A48FFF792FA0146FFF784F94D4976
:1057F000FFF7D8F94C4900281CBF0024C4F2C82484
:105800002046FDF705F800281CBF0024CCF2C82470
:10581000BC62FFF747BCFFF738FA14D10C20FFF742
:1058200067BB97F8E103FFF73BFA38BF032041E07D
:1058300097F8E3030138010608BF032012E0FFF7E1
:1058400024FA00F0F38401287FF42CACFFF754F81D
:1058500087F8DC03FFF726BC97F8E303FFF7CBF9E3
:1058600088BF012087F8E303C0B2032800F0C78493
:10587000022800F0C284012804BF012087F8E20357
:10588000FFF710BC97F8E5030138010608BF0320B5
:1058900022E097F8DF030130C1B2042988BF01205C
:1058A00087F8DF03FFF7FEBB97F8E103FFF7A3F9E3
:1058B00088BF022087F8E103C0B2032800F04D83BF
:1058C00002287FF4EFAB022000F048BB97F8E50315
:1058D000FFF791F988BF012087F8E503C0B20328DC
:1058E00000F09B84022800F08F8401287FF4DAAB5B
:1058F0000120002100F08ABC1520307139201CE005
:10590000000054430000A0400000104100007F430D
:10591000000048420000694400007D43000024C2AA
:10592000000080BF0000C8420000C8C20000002084
:10593000CC17002008010020022087F8E603FFF7BB
:10594000B1BB812954D11920FFF73DBB0020F8617C
:1059500098489949B861FCF7EBFE9849FCF71AFFA3
:10596000FEF7F9FF38620BE0002078629448FFF7F9
:10597000CBF89249FCF7DCFE8F49FCF70BFFB861CE
:1059800097F8B813032930D8FFF72EF8DFE801F0B5
:10599000302B26290020F8618A488749B861FCF736
:1059A000C7FE8649FCF7F6FEFEF7D5FF38620BE02E
:1059B000002078628448FFF7A7F88049FCF7B8FE1A
:1059C0007D49FCF7E7FEB86197F8B81303290CD8B6
:1059D000FFF70AF8DFE801F00C07020507F1900075
:1059E00001E007F1940079490160002087F8B803CD
:1059F00016203071DFF89C482046FDF71EF901465D
:105A00002046FDF775F80138092800F27381DFE8B8
:105A100010F00A002300710171014B006B007F0040
:105A200013002C003C00FEF79AFF7CD1FFF7ACF886
:105A300014BF0120052026E0DFF84C0D90F82B1054
:105A4000002940F05781012180F82B10FEF787FFD5
:105A500040F0798000207FE0FEF781FF5ED1FFF704
:105A600093F814BF022006200DE097F8E60300F03B
:105A7000FE00022840F03C8197F8C9030238B0FAD2
:105A800080F040098000F07032E197F8E60300F002
:105A9000FE00022840F02C8197F8C9030321022858
:105AA00008BF0721F17023E197F8E603A0F1230175
:105AB00006293ED9811E0229C0F01A811B2800F058
:105AC000C3802F2800F0CB80372800F0BF80392812
:105AD00040F0AA8097F8C603002800F03A82012817
:105AE00040F00681032035E2FEF739FF40F00281E5
:105AF0003749FF22C7F8BA133449C7F89C10DFF8BA
:105B0000881CFEF716FF08BF0321FFF753F8F1E0EA
:105B1000DFF8740C002180F82B10EBE0411F1629F0
:105B20001DD80320E3E0411F162900F25A8002200D
:105B3000DDE0DFE801F07B790479047904002320BB
:105B4000FEF784FFD4E0411F372901D3812804D117
:105B500097F8E80308B9042030710120C9E01D3826
:105B60001A2800F2C5800FF21401D1E810F000BF2E
:105B7000CC170020080100206C0000205B00C10051
:105B8000BF00C100BD00C1003300C1003302C1002D
:105B90004D02C1003A02C100AB00B000B500C10027
:105BA0002E02C100A900C100A700C100C100C100B0
:105BB000A50000BF0000FA43000010410000A04013
:105BC000000069440000C8420000544300007F43C5
:105BD000E803E80397F8DF030138010608BF042053
:105BE00046E21D381A2800F28380DFE810F01B001F
:105BF00081007F0081007D0081003A028100140253
:105C0000810025028100440281006B007000750054
:105C1000810001028100690081006700810081002C
:105C200081006500092062E0012060E097F8DF0351
:105C3000013803285CD8DFE810F00400C5019901A1
:105C4000BF01FFF712F853E0042050E097F8DD039E
:105C5000012800F07A8100284AD117207AE197F8CC
:105C6000DC0301280AD10220B9693A6A87F8DC030B
:105C7000C148C7E90B10C7E90D2039E00120D7E979
:105C80000A4187F8DC03BC48FFF740F80146FEF7FD
:105C900032FFBA49FEF786FFB94900281CBF00242D
:105CA000C4F2C8242046FCF7B3FD00281CBF002422
:105CB000CCF2C824BC621BE0172018E0142016E0C8
:105CC000132014E0012087F8D6032C2042E10020A5
:105CD00087F8D6032B203DE197F8DC0340B92F204D
:105CE00087F8E60301208CE10F2000E00A203071E4
:105CF00000203072F078072800F2C480DFE800F05E
:105D0000047632491B8BA0604FF47A709D49FEF7F0
:105D100049FE9D49FEF77FFF00281CBF0024C4F206
:105D20002034FEF7B4FE00F2A880FEF75DFEDFE847
:105D300001F0A7A29DA04FF47A709249FEF738FEB9
:105D40009149FEF7DEFD18B98F4C0020C7F8C0005E
:105D5000FEF78BFE00F29180FEF746FEDFE801F0D1
:105D6000908B86894FF47A708849FEF71BFE85492F
:105D7000FEF7F5FE00281CBF0024C4F2A004FEF7C5
:105D800086FE00F27A80FEF72FFEDFE801F07974DC
:105D90006F724FF47A707E49FEF704FE7949FEF780
:105DA000DEFE00281CBF0024C4F2A004FEF76FFE34
:105DB00000F26380FEF718FEDFE801F0625D585BD9
:105DC0004FF47A707249FEF7F3FD6E49FEF7EAFE72
:105DD00018B96C4C0020C7F8C000FEF746FE4CD83E
:105DE000FEF702FEDFE801F04C474245FEF76FFD8B
:105DF000FEF7D8FD6449FEF70EFF00281CBF002403
:105E0000C4F22034FEF743FE37D8FEF7EDFDDFE89D
:105E100001F037322D30FEF75AFDFEF7C9FD5A4921
:105E2000FEF76FFD18B9584C0020C7F8C000FEF708
:105E30001CFE22D8FEF7D8FDDFE801F0221D181B5A
:105E40004FF47A705149FEF7B3FD4E49FEF7AAFEB2
:105E500018B94C4C0020C7F8C000FEF706FE0CD85D
:105E6000FEF7C2FDDFE801F00C07020507F1900024
:105E700001E007F1940040490160002087F8B80371
:105E80000820F070708901387081000409D14FF446
:105E90007A707081DFF8F008C16DC7F8B01000218A
:105EA000C165DFF8E458287898BB102001F098FD10
:105EB000A887A88FFCF7A6FB364A374BFCF71BFADE
:105EC000364B0022FCF717FA354A364BFCF76CF9D3
:105ED000354A364BFCF781FA354B0022FCF764F962
:105EE000FCF75EFD33490446B864FCF721FC254904
:105EF000FCF750FCFEF72FFDE549F864FEF7F8FDCE
:105F000038B920460021FCF783FC10B901203C6021
:105F10002870286EE04C013028662069804794F88C
:105F20003500012809D194F8340018B1013884F8FB
:105F3000340002E0022084F8350094F8440010B1E7
:105F4000013884F84400BDE8F08115203071392013
:105F500000E0022087F8E603CAE6032087F8E003A2
:105F6000FFF7A0B8FEF789FEFFF79CB8FEF785FEA5
:105F7000BEE60B20FFF737B900007F430000C842A0
:105F80000000C8C20000A04000002043000080BF05
:105F90000000A0C052B81E85EB510A400000303FFF
:105FA000295C8FC2F528F4BF33E197FA7953713F2A
:105FB00000001840000010410B20C1E5FEF73CFE38
:105FC000FFF770B8FEF738FE92E6FEF75EFE13D1DB
:105FD0000C208CE697F8E103FEF762FE38BF032041
:105FE0001FE097F8E5030138010608BF032048E0E9
:105FF000FEF74BFE00F02F8101287FF479AEFEF70B
:106000007BFC87F8DC0373E697F8E30301380106AD
:1060100008BF032016E097F8E103FEF7ECFD88BF08
:10602000022087F8E103C0B2032800F0FB800228B9
:106030007FF45EAE0220F6E097F8E303FEF7DBFDA7
:1060400088BF012087F8E303C0B2032800F0FB807B
:10605000022800F0EE80012804BF012087F8E20347
:1060600046E697F8DF030130C1B2042988BF01205A
:1060700087F8DF033CE697F8E503FEF7BCFD88BF31
:10608000012087F8E503C0B2032800F0E080022871
:1060900000F0D18001287FF42BAE01200021CCE05C
:1060A00097F8D603002800F0D880012840F0D88067
:1060B0002C21D3E097F8D803012840F081800120FB
:1060C0007CE0312087F8E60397F8D303FFF7BDBAE9
:1060D00097F8D503012898BF87F8D3031120FEF75E
:1060E00072BFFEF709FC87F8DC0397F8C9030128A3
:1060F0007FF47EAC91480121A0F82F104FF47F402F
:1061000077E0FEF7C2FD00F0AF8001287FF470ACAD
:106110000220AAE0212087F8E60397F8D003FFF7D2
:106120004ABA1F2087F8E60397F8CD03FFF7E8B9CE
:106130008120FEF748BF3520FEF745BF042087F8D1
:10614000DF032320FEF73FBF97F8CC03012800F0C0
:10615000908000287EF436AFFEF716FD40F0918067
:1061600000208AE097F8DB03012898BF87F8D9035D
:106170001320FEF728BF332087F8E60397F8D903EA
:10618000FFF75DBA002087F8DD033720FEF71BBF5D
:1061900097F8D203012898BF87F8D0030920FEF7AB
:1061A00012BF97F8CF03012898BF87F8CD030720C7
:1061B000FEF709BF97F8D80310B9002087F8D60377
:1061C0000D20FEF700BF1520FEF7FDBE97F8DC039B
:1061D00000287FF40DAC0F2087F8E603574890F8AD
:1061E0002F1001297FF404AC0021A0F82F104FF6E6
:1061F0000170A7F8C903FFF7FBBB022000E00320F2
:1062000087F8E203FEF74EBF0220012187F8E4037E
:106210004A4880F82C10FEF745BF032087F8E403B6
:10622000FEF740BF032087F8E00361E50B20FEF78F
:106230005FBE022008E00220012187F8E4033F4806
:1062400080F82C1054E5032087F8E20350E5032082
:1062500087F8E4034CE50B2049E52B2187F8E6138A
:1062600087F8D803FFF7C4BB012087F8DC03FFF7EA
:10627000BFBBFEF789FC06D1012087F8CB03FEF7F0
:10628000A1BE002000E0012087F8C903FEF79ABEF6
:1062900000004842CC000020880100201848C16955
:1062A00041F08051C16117490A7842F004020A7036
:1062B000C16921F08051C161016841F001010160B3
:1062C00001688907FCD5416821F0030141604168FC
:1062D00011F00C0FFBD101680B4A11400160002145
:1062E000416041F61071C1624FF4801101634FF4B7
:1062F0001F01816005484FF000610160704700BFD9
:106300000010024050700040FFFFF2FE08ED00E078
:10631000B0B5094C606880070CD52068800709D5A6
:10632000064D4FF07E51E86DFCF7AAF9E8656FF075
:1063300002006060B0BD00BF0C4C014008010020AD
:106340002DE9F04F85B0B54F3869C00700F0628184
:10635000DFF8488998F8E903012810D1DFF828947C
:1063600099F8120001280ED1DFF8444BAC4D666D50
:106370002946FEF787FA68B965652E460AE00024CB
:10638000C8F8404030E1A74EDFF8240B4FF08141C0
:10639000C0E914160096D8F81860A349FEF728FC47
:1063A000834698F8C903012818BFB346D9F864009A
:1063B0005946FCF765FA002840F08780DFF8F04A7C
:1063C0004FF07C51CA46B946A06EFCF7B1F90025E2
:1063D000A06696498DF80B50ADF808508DF807501F
:1063E000D8F898703846FCF713FA04465846FCF77C
:1063F0007EFA002C06464FEA900415D14A2C8DF8FF
:10640000075033D864204F460021D146ADF808002C
:10641000DFF88403FEF7D7FB13294CD8FEF7EEFA1A
:1064200049D2FEF759FAF5E780493846FCF71AFADF
:10643000002568BB38460021FCF7EAF94F46D146F3
:10644000E0BB00204A2C8DF8070024D864200021EE
:10645000ADF80800CF48FEF7B6FB132900F25B81C8
:10646000FEF7CCFA27D2FEF737FAF4E74FF496702E
:106470004F461421D146ADF80800C748FEF7A3FBEC
:10648000272918D8FEF7BAFA15D2FEF725FAF5E74C
:106490004F46D14612E04FF496701421ADF8080033
:1064A000BC48FEF790FB272905D8FEF7A7FA02D2D1
:1064B000FEF712FAF5E79DF80B10455C68B2C9F8D3
:1064C00064B0FCF706FAC8F8D000B44E758D092DFB
:1064D00016D896F82C0001F083FAFCF703FA46F878
:1064E00025000446308D01357585FCF7FBF9014622
:1064F000FEF701FBFCF7FBF9A9B2B0FBF1F10CE0F0
:10650000308D0A24B0FBF4F1451A96F82C0001F006
:1065100067FA284481B2B1FBF4F130858808FCF7B2
:10652000E1F9D8F82810C8F80000FCF7FBF8064697
:1065300098F8C90302280DD194480021C1668166EC
:106540000166C165A9F84C1089F81210C8F840100E
:1065500081652EE098F8C20318B198F8D913012983
:1065600019D18F495846BA46FCF78AF80746304693
:106570003946FCF777F930B98A49FEF78DF9FEF70D
:1065800051FB002854D030463946FCF76BF938B13E
:106590000025574615E0012808BF002909D1CBE79F
:1065A0008049FEF779F9FEF73DFB574608B1864D65
:1065B00007E0D8F84040204600210025FCF752F9BA
:1065C00010B92C46C8F8405098F8C40360B16F4821
:1065D0000024C46684660466C465A9F84C4089F842
:1065E0001240C8F84040846598F8EB0320B9204673
:1065F0000021FCF737F910B90024C8F840402046C4
:10660000FCF78EF93864386840F0010038606FF0AC
:106610000100386105B0BDE8F08F00BF000C0040FC
:1066200000401C4600007A46000048420000A0419D
:106630005D49FEF731F90146FEF724F930B95B49AF
:10664000FEF72AF9FEF7EEFA002866D00020A9F836
:106650004C0089F8120058463146FCF763F84B4F5E
:106660003866386EB96EFCF70BF8B866554DB86EE3
:10667000FEF794FB00B9BD66B86E00210024FCF75C
:10668000F1F800B9BC66D7E91354386EF96DFCF720
:1066900049F8786620463E6EB96EFCF749F8396FC6
:1066A0000490039104980399FCF7B2F808B9039891
:1066B00004900498039981F00041FCF7C5F818B9DB
:1066C000039880F00040049028463146FCF730F8EB
:1066D0000499FBF7D5FF0446796E0098FCF728F87B
:1066E0002146FBF7CDFFF866386EF865F86E796FD6
:1066F000FCF78EF808B9786FF866F86E796F81F05C
:106700000041FCF7A1F808B90020F866FC6E574676
:10671000C8F840404FE70025D0E6B9F84C000130FA
:10672000A9F84C0080B23C2895D321490098FBF78A
:10673000A7FF174F04463946FCF794F818B11348E1
:106740000094446518E0114D286D6F65FCF715F94C
:10675000184A194BFBF728FD184B002204460F4638
:10676000FCF79CF820B120463946FCF719F900E007
:106770001348286506480090012089F8120000207F
:10678000A9F84C0067E700BF08010020880100203D
:1067900000401C464ECF010814CF0108040E002013
:1067A0000000C8420000C8C20000A0400000A0C015
:1067B0000000FAC49A9999999999B9BF00000840C4
:1067C0000000404000C82F47007F3B472DE9F041C3
:1067D00002FB03F4069D00264FEA4408DFF8BC44A0
:1067E000023D94F8D643012C00F08B80002C40F041
:1067F00028827F2D00F22582DFE815F0800040011D
:10680000320176012302840123028C0123029C01C0
:106810002302B4012302800123029001230292018A
:106820002302AE01230294012302780123027401A2
:106830002302B6012302AA0123027A012302960150
:1068400023029E0123027C012302A20123023401C0
:106850003601A0012302C0012302B0012302B801C6
:106860002302A4012302A601230286012302AC0114
:1068700023025C012A0144016E012302B2012302BA
:10688000BA0123028E01230226012C013801520194
:1068900012012401BC0123022302A801700123027A
:1068A000820123022801180160015E011C015801C8
:1068B0009801230272012302C20123026A0123020A
:1068C000640166015A01460142013001480120017C
:1068D000880123022302C40154016C0123024A01EE
:1068E0000E017E0123024C01160168010A013C01E0
:1068F0001A012302230210014E019A014FF4962639
:106900009FE17F2D00F29D81DFE815F08000B80047
:10691000AA0064019B0166019B0156019B0168016D
:106920009B016A019B017E019B016C019B014A0155
:106930009B0158019B015A019B014C019B016E0177
:106940009B0170019B0180019B0182019B014E0113
:106950009B015C019B0184019B0150019B01AC00E8
:10696000AE0072019B0152019B018C019B018E01C3
:106970009B015E019B0160019B0174019B0162010F
:106980009B01D400A200BC0090019B0146019B0129
:1069900076019B0148019B019E00A400B000CA0043
:1069A0008A009C0078019B019B017A0192019B0166
:1069B0007C019B01A0009000D800D6009400D0007C
:1069C00086019B0144019B0188019B018A019B0177
:1069D000DC00DE00D200BE00BA00A800C0009800B3
:1069E00094019B019B019601CC009A019B01C2007E
:1069F000860054019B01C4008E00E0008200B400B8
:106A000092009B0140018800C60042019F4E18E1A0
:106A1000A64C04F5487614E1A84E12E1A04E10E110
:106A2000BD4C04F59C660CE1A14E0AE1B44C02E0B9
:106A30009D4E06E1B14C04F5196602E1A34C04F544
:106A4000E176FEE0B34EFCE0B44EFAE0AC4EF8E086
:106A5000B84C22E0B14C04F5BD66F2E09C4EF0E08B
:106A60008B4EEEE0BD4EECE0BB4EEAE0AB4C04F5E5
:106A70003D66E6E08D4C04F5C866E2E0854EE0E058
:106A8000944EDEE0AA4EDCE0934EDAE08F4ED8E082
:106A90008B4ED6E0874ED4E0814C04F5E146D0E041
:106AA0009D4ECEE0884C04F55256CAE0924EC8E0A6
:106AB0008A4EC6E09F4EC4E0904EC2E0904C04F572
:106AC0009956BEE0874EBCE0854EBAE0774EB8E0FE
:106AD000B94EB6E0B74EB4E0C14EB2E0BB4EB0E046
:106AE000B74EAEE0CE4EACE06B4EAAE0CD4EA8E085
:106AF000C84EA6E0C44EA4E0AD4EA2E0CE4EA0E04B
:106B0000B14E9EE0D04E9CE0B74E9AE06F4C04F53B
:106B1000617696E0CB4E94E0AE4E92E0C54E90E0AA
:106B2000C34E8EE0C04E8CE0B94E8AE0A54E88E0A0
:106B3000C64E86E0C24E84E0B44E82E0B04E80E0A5
:106B4000B04E7EE0AA4E7CE0A84E7AE0A04E78E0FF
:106B5000B14E76E0A34E74E0B44E72E0A64E70E003
:106B60009E4E6EE0B54E6CE0AC4E6AE0A14E68E021
:106B7000994E66E0674C04F5527662E09F4E60E005
:106B80008E4E5EE0504C04F50C565AE0454E58E0EF
:106B9000864E56E0564E54E0634E52E0604E50E052
:106BA0007A4E4EE0764E4CE0704E4AE06C4E48E035
:106BB000674E46E0404E44E0794E42E0724E40E07F
:106BC000704E3EE0684E3CE05E4E3AE05C4E38E08F
:106BD000594E36E0744E34E0724E32E06F4E30E083
:106BE0006D4E2EE06A4E2CE0644E2AE0624E28E0A4
:106BF000584E26E0514E24E04A4E22E0444E20E01A
:106C0000424E1EE03F4E1CE0624E1AE0594E18E024
:106C1000574E16E0534E14E0364E12E0334E10E05D
:106C2000314E0EE0494E0CE0474E0AE03F4E08E080
:106C3000354E06E0244E04E0234C04F58C5600E06B
:106C4000204E02440B44FDF7DAFF814D3146B8F186
:106C5000000F08BFBDE8F0814646B8F5806F2846B2
:106C60000F4628BF4FF48066324603F061FA0024D5
:106C7000B44206D2285B00BA000CFCF795FA023445
:106C8000F6E7A8EB0608F119E1E700BF0481B700B9
:106C9000002F0D0080EF0800806E1100CC1700203F
:106CA0006818BC0084C0BB00104DB700ECEEB60005
:106CB00064DDB600DCCBB600E897B600D25FB60064
:106CC000A456B600F406B600E47AB500E065B50057
:106CD0000043B5002020B50040FDB40060DAB400E8
:106CE00080B7B400A094B4009A7CB4008E4CB40079
:106CF000A019B400D0E3B3003CC0B30000AEB300B1
:106D00005091B3005669B3006219B30088B3B20062
:106D10009894B2006072B200386AB2008859B2002A
:106D20006E9CB1003A22B00006A8AE000893AD00F8
:106D3000B237AD00C0C3AC0050E7AA00CC6BA700CF
:106D4000A42DA4007CEFA00054B19D002C739A00E8
:106D500004359700DCF693008802910048AD8F005F
:106D60003EDB8D002A378A001693860002EF8200F0
:106D7000E47D7F00BC3F7C00940179000023730018
:106D800000A46A000025620000A6590000275100F7
:106D900000A848000029400000AA3700002B2F005F
:106DA00000AC2600002D1E0000AE15005815C300D3
:106DB000F463B60044B7B5009464B4008834B400FA
:106DC000B8FEB300E8C8B3005C41B30068F1B2009C
:106DD00078D2B20054DFB0002065AF00ECEAAD001D
:106DE000243BAD00E00AA900B8CCA500908EA2001B
:106DF00068509F0040129C0018D49800F0959500B0
:106E0000C857920034098C00206588000CC18400AA
:106E1000F81C8100D0DE7D00A8A07A008062770097
:106E200080E36E008064660080E55D00806655004A
:106E300080E74C008068440080E93B00806A3300B2
:106E400080EB2A00806C220080ED1900E838C10038
:106E500000020020BCB5154C2068E06880060CD507
:106E60002068800609D56168114D05F12800C9B276
:106E700003F0E6F84FF48270A886E068400610D56B
:106E8000206840060DD50A4D6FF040000DF1070156
:106E9000206005F1380003F0C0F818B1002085F833
:106EA0004500BCBD9DF807006060BCBD00380140D6
:106EB00088010020FEE700000648BFF34F8F064A16
:106EC000016801F4E06111430160BFF34F8F00BF1F
:106ED000FDE700BF0CED00E00400FA0510B500EB83
:106EE00040010A284FF00702084B28BF1E3902FA5A
:106EF00001F14FF00C0238BF1022D4582143D15079
:106F0000596B21F01F010843586310BD0024014054
:106F10000148102101607047141C014001481021F4
:106F200001607047101C014018B3F0B50844511AB5
:106F3000BE4A4B1C990802F5A2640D462DB150F8CB
:106F4000046B013D36BA40C4F8E713F003030ED0DA
:106F5000002418250026A34205D0075D0134AF4068
:106F6000083D3E43F7E702EB8100C0F81065BDE83D
:106F7000F0407047AD4901F5A262044918B108CA52
:106F800001380B60FAE70868704700BF0030024024
:106F900032490A68C2F38103314AF0B5DFE803F0F1
:106FA00002380A380B6D9B0532D5CB6A9B0148BF6E
:106FB0002D4A2DE00B688C6A1B0C002C13D40C6836
:106FC0000D68C5F34175C4F383440DB90F2C43D14B
:106FD0002D0101352C44DB0702D00B689B0300D543
:106FE000204A624314E08C6A8D6A8E6ADB071D4B6F
:106FF000C4F30314C5F3082506F0070603D00F6891
:10700000BF0358BF134604FA06F26B43B3FBF2F218
:10701000026016A40B68C3F30313E35C174CDA4059
:1070200042600B68C3F30223E35C22FA03F3C360FC
:107030000B68C3F3C223E35C0424DA4082600B686C
:10704000096804EA9363C1F3813119440CA3595CC4
:10705000B2FBF1F10161F0BD0225BBE70410024073
:1070600000127A0000093D00006CDC020000000004
:107070000000000001020304060708090CCF010804
:1070800002040608020C08107CB5044600204FF6E6
:10709000FF75C6B2152E09D8301900F08DFCADF879
:1070A0000600B01CBDF80610A942F2D1BDF80600DA
:1070B0007CBD00000B4A5368DB0103D4536843F0E6
:1070C000807353600823032808BF102301FA03F0DC
:1070D0006FF47F4108BF6FF47F01136819400843C4
:1070E00010607047A000024002684BF6EF731A4030
:1070F00002600A8903681A4302604A7C036802F04E
:10710000030223F4405343EA02320260CA7B03685D
:1071100002F0030223F4406343EA822202608A7B86
:10712000036802F0030223F4407343EA0222026080
:107130004A7B036802F0010223F0800343EAC21293
:1071400002600A7B036862F3861303600A7C0368AB
:1071500062F3451303604A8942600A6882604968A5
:10716000C1607047016821F00101016000210160E8
:1071700041608160C16040F2FF4100EA01020B49B9
:10718000B2F5816F04D3D208902A0ED801F5806140
:1071900000F0FC0014220838B0FBF2F00F2280004F
:1071A00002FA00F00A6810430860704704000240C9
:1071B000064907480A7822B94CF6CC4202600122FF
:1071C0000A704AF6AA210160704700BF000E002035
:1071D0000030004010B5154C08480949FDF75DFC2A
:1071E000FDF718FCFDF76DFB1349FDF72DFD84F845
:1071F00023141620BDE8104003F054BA01000A1809
:10720000D103030310B5094C09480A49FDF745FCB1
:10721000FDF700FCFDF755FB0749FDF715FD84F868
:1072200023141620BDE8104003F03CBAB40E002031
:1072300001000A1DD10302030830024010B5214CA1
:10724000226842F00102226001804FF4801000F0B9
:1072500017F8FDF797BD00BF08480168C9071CBFB4
:10726000002070470168490744BF0120704700684B
:10727000C0064FF0020058BF032070470C200240A8
:10728000B0B50446FFF7E8FF0025013C45F10001D9
:1072900018B911B1FFF7E0FFF7E7B0BD10B5094C21
:1072A000216841F0020121606060206840F04000E8
:1072B00020604FF08040FFF7E3FF206820F00200DD
:1072C000206010BD102002402DE9F047DFF87C98C7
:1072D00099F8EB0308B1BDE8F087DFF84C8998F81E
:1072E00001000328F7D8DFE800F002E109B999F8B6
:1072F000E903002800F0FE810120F7E1684E98F8CC
:107300000C10684FDFF850A606F1100011F00105CF
:1073100008BF07F10E0099F8C613D04706F1120016
:10732000002D08BF07F1100099F8CD13D04706F1E2
:107330001400002D08BF07F1120099F8D013D047B0
:1073400006F11600002D08BF07F1140099F8D613B6
:10735000D04706F11804002D08BF07F11604D9F82C
:107360002800FBF7C4FA01462046D04706F11A0070
:10737000002D08BF07F1180099F8D313D04706F184
:107380001C00002D08BF07F11A0099F8D913D04747
:1073900006F11E00002D08BF07F11C0099F8C91363
:1073A000D04706F12000002D08BF07F11E0099F814
:1073B000E013D04706F12200002D08BF07F120009E
:1073C00099F8E213D04706F12400002D08BF07F119
:1073D000220099F8E413D04706F12604002D08BFD7
:1073E00007F12404D9F8BC00FBF781FA01462046D6
:1073F000D04799F8C60388F8020099F8CD0388F8B9
:10740000030099F8D00388F8040099F8D60388F8A7
:10741000050099F8D30388F8060099F8D90388F88D
:10742000070099F8C90388F8080099F8E00388F87C
:107430000900D9F82800FBF75AFAA8F8460099F88D
:10744000E20388F80A0099F8E40388F80B00D9F8F9
:10745000BC00FBF74CFAA8F8480044E1104898F843
:107460000C2010492830D20708BF01F12600B8F8D7
:107470004A10FFF7E3FE0C48C16841F08001C1608B
:10748000012088F80100B8F84A000130A8F84A0045
:1074900098F80C00013088F80C00BDE8F08700BFB8
:1074A00000F0010802F8010804200240B8F83E008C
:1074B000FBF718FA0146D9F81800FBF7E1F90028A4
:1074C00000F08C80B8F84000FBF70CFA0146D9F8C0
:1074D0009800FBF7D5F9002800F08080B8F842004A
:1074E000FBF700FA0446D9F86800FDF712FB002804
:1074F00074D0B8F84400FBF7F5F90546D9F88000D8
:10750000FDF70AFB002869D0D9F86C00FDF701FBF4
:10751000002863D0D9F88400FDF7FEFA00285DD07A
:10752000D9F87000FDF7F5FA002857D0D9F888008F
:10753000FDF7F2FA002851D099F8C60398F8021026
:1075400081424BD199F8CD0398F80310814245D17F
:1075500099F8D00398F8041081423FD199F8D603E6
:1075600098F80510814239D1B8F84600FBF7BAF90E
:107570000146D9F82800FBF783F978B399F8D303CB
:1075800098F80610814229D199F8D90398F8071084
:10759000814223D199F8C90398F8081081421DD17E
:1075A00099F8E00398F80910814217D199F8E2039D
:1075B00098F80A10814211D199F8E40398F80B1059
:1075C00081420BD1B8F84800FBF78CF90146D9F895
:1075D000BC00FBF755F900287FF47DAEDD48DF499C
:1075E0000160DF490160DA4998F80C000C468A46D0
:1075F00010F0010608BF04F500642046FFF74EFEB8
:10760000D9F81800FBF773F9D34FFDF7B4FA0AF174
:107610000204002E04BF4FF60204C0F60104D9F89C
:107620009800FBF764F9FDF7A6FA0AF10404C74DC8
:10763000002E08BFAC1CD9F86800FBF758F9FDF71D
:107640009AFA0AF10604002E08BF2C1DD9F8800012
:10765000FBF74DF9FDF78FFA0AF10804002E08BF79
:10766000AC1DD9F86C00FBF742F9FDF784FA0AF17A
:107670000A04002E08BF05F10804D9F88400FBF7BE
:1076800036F9FDF778FA0AF10C04002E08BF05F16F
:107690000A04D9F87000FBF72AF9FDF76CFA0AF131
:1076A0000E04002E08BF05F10C04D9F88800FBF782
:1076B0001EF9FDF760FAD9F81800D9F87040D9F82A
:1076C0008850D9F89860FBF712F9A8F83E00FDF74A
:1076D000E0FAA8F84000FDF725FAA8F84200FDF707
:1076E0005EFAA8F8440098F80100013088F801001B
:1076F000BDE8F087EB4C2046FFF7C6FC4FF6FF7560
:10770000A84210D02046FFF7BFFCA8420BD004F1DE
:10771000280000F051F904468C48263000F04CF95E
:10772000844205D80DE02046FFF7AEFCA84202D007
:1077300000F06AF938E004F50060FFF7A5FCA84204
:1077400002D000F0B1F92FE08648894A8A4B864979
:107750000024012589F8D64389F8D05389F8CD4310
:1077600089F8C64389F8D94389F8D353C9F8284022
:1077700089F8E45389F8E25389F8C943C9F8BC0091
:107780007A48C9F88020C9F884307A4A7B4BC9F816
:107790009810C9F88810C9F81800C9F870000220BC
:1077A000C9E91A2389F8E003D9F818407449FDF7AC
:1077B0009FF918B96B49FDF7B2F910B96B48C9F8D0
:1077C0001800D9F898406F49FDF792F918B96E4939
:1077D000FDF7A5F910B96448C9F89800D9F8BC407C
:1077E0006849FDF785F918B96749FDF798F910B9A7
:1077F0005C48C9F8BC00D9F868406149FDF778F9E0
:1078000018B95849FDF78BF910B95A48C9F86800FA
:10781000D9F86C405A49FDF76BF918B95149FDF791
:107820007EF910B95548C9F86C00D9F87040544930
:10783000FDF75EF918B94B49FDF771F910B94B48DE
:10784000C9F87000D9F880404E49FDF751F918B9D0
:107850004D49FDF764F910B94548C9F88000D9F8D9
:1078600084404849FDF744F918B94749FDF757F9ED
:1078700010B94148C9F88400D9F888404149FDF75A
:1078800037F918B94049FDF74AF910B93648C9F82F
:10789000880099F8C6033349022824BF002089F8DC
:1078A000C60399F8CD03022824BF002089F8CD0330
:1078B00099F8D003022824BF012089F8D00399F851
:1078C000D603022824BF002089F8D603D9F828401F
:1078D000FDF70EF918B92D49FDF721F910B900206F
:1078E000C9F8280099F8D303022824BF002089F89A
:1078F000D30399F8D90310B1002089F8D903FDF713
:107900008DF924BF002089F8C90399F8E0030438F1
:1079100010F1030F9CBF022089F8E00399F8E203FD
:10792000043810F1040F9CBF012089F8E20399F894
:10793000E403043810F1040F9CBF012089F8E4032C
:10794000012089F8E903BDE8F08700BF02F80108CB
:1079500000F00108042002403D7200082301674541
:10796000AB89EFCD0000C8420000A0420000BE433A
:10797000000048420000A043000070420000AF43F6
:107980000000FA43000020430000A0400000C8C2ED
:1079900010B5074C0749206840F001002060A64858
:1079A00001604FF48010FFF76BFCFDF7EBB900BFEF
:1079B00010200240384B544181B00168D0F80100DA
:1079C0008DF800108DF801009DF801009DF8001061
:1079D00041EA0020ADF80200BDF8020001B0704796
:1079E00010B5084C6FF002012160FFF777FAA0682C
:1079F00040F48000A06020688007FCD5E06C80B275
:107A000010BD00BF0024014070B5264C4E4D2046ED
:107A1000A847FAF767FF4D4EB061A01CA847FAF7D8
:107A200061FFC6F89800201DA847FAF75BFFB06613
:107A3000A01DA847FAF756FFFDF78BF9FAF752FF9A
:107A4000F06604F10A00A847FAF74CFFFDF77CF94D
:107A5000FAF748FF306704F10E00A847FAF742FF33
:107A6000FDF768F9FDF761F9FDF75AF9FDF753F9EC
:107A7000FDF747F9FAF736FFB06204F11A00A8479C
:107A8000FDF73AF9FDF733F9FDF72CF9FDF725F984
:107A9000FDF718F9FDF711F9FAF724FFC6F8BC0055
:107AA00070BD00BF00F0010870B5264C264D204681
:107AB000A847FAF717FF254EB061A01CA847FAF7B0
:107AC00011FFC6F89800201DA847FAF70BFFB06613
:107AD000A01DA847FAF706FFFDF73BF9FAF702FFEA
