:020000040800F2
:10200000C02F00208521000863480008712D0008BA
:1020100061480008472A0008ED6E00080000000033
:10202000000000000000000000000000EB4D000870
:10203000492A000800000000E94D0008ED4D0008A5
:102040009F2100089F2100089F2100089F21000870
:102050009F2100089F2100089F2100089F21000860
:102060009F2100089F2100089F2100089F21000850
:102070009F2100089F2100089F2100089F21000840
:102080009F2100089F2100089F2100089F21000830
:102090009F2100089F2100089F2100089F21000820
:1020A000496300089F2100089F2100089F21000824
:1020B0009F2100089F2100089F2100089F21000800
:1020C0009F2100089F2100089F2100089F210008F0
:1020D0009F2100088D6E00089F2100089F210008A5
:1020E0009F2100089F2100089F2100080000000098
:1020F00000000000000000000000000000000000E0
:10210000000000009F210008796300080000000023
:102110009F2100089F21000800000000000000002F
:102120009F2100089F2100089F2100089F2100088F
:10213000000000000000000000000000000000009F
:102140000000000000000000000000009F210008C7
:1021500000000000000000009F2100089F210008EF
:102160000000000000000000000000009F210008A7
:10217000DFF80CD000F0A0F900480047F98800080B
:10218000C02F00200648804706480047FEE7FEE7CC
:10219000FEE7FEE7FEE7FEE7FEE7FEE7FEE7FEE717
:1021A000D5620008712100082DE9FE4F804681EAC2
:1021B0000300C00F0C46009021F0004123F00045C1
:1021C000B8EB0200A94105D24046214690461C4684
:1021D0000B46024623F00040104347D0270DC7F3BB
:1021E0000A00C3F30A510290401A019040286BDAAA
:1021F000C3F3130040F4801B0098924620B10023E3
:10220000D2EB030A63EB0B0B01985946C0F1400275
:10221000504600F069F906460D4650465946019A67
:1022200000F081F910EB08006141002487EA1152A7
:1022300084EAE7731A4340D0009A62B3019A012AF4
:102240004FEA075215DC001B61EB02014FF0004220
:1022500002EA0752CDE90042001C41F580113246E6
:102260002B4600F081F903B0BDE8F08F40462146CF
:10227000F9E7001B61EB0201001C41F58013001817
:102280005B412018A2F5001747EB030140EAD57027
:10229000B6196D4111E06D084FEA360645EAC07582
:1022A0004FEA0752001B61EB0201001C41F580114F
:1022B00049084FEA30000019514132462B4603B01D
:1022C000BDE8F04F00F041B9009801224000002322
:1022D000D0EB020263EBE073009821464FEAE07412
:1022E000B8EB000061EB0401E9E783F000435BE732
:1022F00081F0004158E72DE9FE4F81EA030404F024
:10230000004421F0004100944FF0000B23F0004303
:1023100050EA01045ED052EA03045BD0C3F30A54CE
:10232000C1F30A552C44A4F2F3340194A0FB0254E7
:10233000C1F3130141F48011C3F3130343F4801379
:1023400001FB024400FB034E840A970A44EA8154CD
:1023500047EA8357A4FB076802958D0A05FB0785AA
:102360004FEA932C04FB0C542705029D4FEA0658B4
:1023700047EA1637B5EB08056EEB070C870E920E91
:1023800047EA811742EA8312A7FB0201B6EB0B0171
:1023900064EB00042B0D43EA0C335E1844EB1C5035
:1023A000DA465146E7FB0201C5F313044FEA0B334B
:1023B00043EA14534FEA0432019C43EA0603A4F1B2
:1023C0000C040294009CCDE900B400F0CDF803B0F9
:1023D000BDE8F08F00200146F9E72DE9F04D81EAD4
:1023E000030404F0004B21F0004514464FF0000AAE
:1023F00023F0004150EA050220D054EA01021DD02A
:10240000C5F30A570246C5F31303C1F31300C1F322
:102410000A5640F4801543F48013A7EB0608101BFE
:10242000D64608F2FD3873EB050002D308F1010827
:1024300001E092185B41B8F1000F03DA0020014679
:10244000BDE8F08D00204FF48011064684460EE072
:10245000171B73EB050705D3121B63EB050306433C
:102460004CEA010C49084FEA300092185B4150EAEF
:102470000107EDD152EA030012D082EA040083EA98
:102480000501084305D0101BAB4106D201220023F1
:1024900006E000224FF0004302E06FF0010253100B
:1024A0001AEB06004CEB085110EB0A0041EB0B0154
:1024B000BDE8F04D00F049B81CB509480090094846
:1024C00001900546009C06E0E06840F0010394E8B6
:1024D000070098471034AC42F6D3FFF74DFE0000DA
:1024E000ACCF0108CCCF0108202A04DB203A00FA47
:1024F00002F1002070479140C2F1200320FA03F35B
:10250000194390407047202A04DB203A21FA02F058
:102510000021704721FA02F3D040C2F1200291401D
:10252000084319467047202A06DBCB17203A41FAA8
:1025300002F043EAE07306E041FA02F3D040C2F150
:102540002002914008431946704710B5141E73F1DC
:10255000000408DA401C41F1000192185B411A4363
:1025600001D120F0010010BD2DE9F04D92469B46AF
:1025700011B1B1FA81F202E0B0FA80F22032904655
:10258000FFF7B2FF04460F4640EA0A0041EA0B019A
:1025900053465A46084313D0114653EA010019D056
:1025A000C8F140025046FFF7AEFF05460E465046C2
:1025B00059464246FFF798FF084305D0012004E042
:1025C00020463946BDE8F08D0020054346EAE07616
:1025D0002C4337430A986305E40AA0EB0800002265
:1025E000FD0A44EA47540A3002D500200146E9E7D3
:1025F000010510196941DDE9084500196941BDE887
:10260000F04DA2E70EB540F2334102910021CDE931
:1026100000110A460B46FFF7A7FF03B000BD70B5D7
:10262000C1F30A5201F000450024C1F3130140F246
:10263000FF3341F480119A4201DA002070BD40F26C
:1026400033439A42A2F2334203DC5242FFF75BFF6C
:1026500000E090402C43F1D0404270BDD2B201E086
:1026600000F8012B491EFBD270470022F6E710B597
:1026700013460A4604461946FFF7F0FF204610BDF0
:10268000F0B480EA0102D40F4200B2EB410F02D253
:102690000246084611464A0042D0C30DDDB2C1F3DE
:1026A000C752AD1A202D35DAC1F3160141F40002EC
:1026B00004B15242C5F1200602FA06F12A41104443
:1026C000B3EBD05F23D0C4B1012DA0EBC35009DC24
:1026D000F0BC4FF0004202EAC352DBB200F500004A
:1026E00000F083B9400000F1807000EBC350A0F10E
:1026F000807040EAD170490009E0490841EAC071A0
:10270000A0EBC35000F50000400800EBC350F0BC44
:1027100000F062B96142012202EB4101001BF6E7C1
:10272000F0BC704781F00041AAE780F00040A7E7C5
:1027300080EA010210B502F00043400022D04A00B6
:102740001FD0010E01EB1261C0F35600C2F3560216
:1027500040F4000042F40002A0FB022000047F3994
:10276000140400D0401C50EA124001D44000491E1D
:10277000C2B20C0604EBD010401C4008802A02D0E4
:1027800003E0002010BD20F00100002900DA002045
:10279000184310BD30B480EA010202F0004530F069
:1027A000004221F0004013D090B1C30DD40DC2F30C
:1027B0001601C0F31600E41A41F4000140F40002CF
:1027C0007D34914201D3641C00E04900002C02DA00
:1027D00030BC002070474FF400000023914201D329
:1027E000891A034340084FEA4101F7D151B19142A0
:1027F00002D14FF0004105E002D24FF0010101E0AB
:102800006FF0010103EBC450284430BC00F0E4B881
:10281000002801DBC0F10040002901DBC1F10041CB
:10282000814201D80120704700207047002801DB59
:10283000C0F10040002901DBC1F10041814201D219
:102840000120704700207047002801DBC0F10040E4
:10285000002901DBC1F10041814201D30120704711
:1028600000207047002801DBC0F10040002901DB97
:10287000C1F10041814201D9012070470020704719
:10288000002801DBC0F10040002901DBC1F100415B
:10289000814201D1012070470020704730B5041EED
:1028A00071F1000404DB4FF00044404264EB01018D
:1028B000141E73F1000405DB1C464FF00043524226
:1028C00063EB0403801A994101D2012030BD00203E
:1028D00030BDC10F80EAE0700844CA07962300218A
:1028E00000F083B896230022114600F07EB800F075
:1028F000004220F00040C10DC0F3160040F400007B
:102900007F2901DA00207047962903DCC1F1960186
:10291000C84001E096398840002AF4D04042704710
:1029200020F00040C10DC0F3160040F400007F29E4
:1029300001DA00207047962903DCC1F19601C840F6
:102940007047963988407047C1F30A5210B5C1F3F9
:10295000130140F2FF3341F480119A4201DA002062
:1029600010BD40F233439A42A2F2334203DC52429A
:10297000FFF7C9FD10BD904010BD00F0004230F0DF
:1029800000400AD0C10D01F56071C0F3160042EAA3
:102990000151C208400711437047002001467047AB
:1029A00001F0004330B421F0004150EA010206D0AA
:1029B0000A0DA2F56072C1F31301002A02DC30BCDB
:1029C00000207047440F44EAC104C100E01830BC45
:1029D00000EBC250AFF300800029A8BF7047401C35
:1029E000490008BF20F00100704710B4B0FA80FC25
:1029F00000FA0CF050EA010404BF10BC704749B162
:102A0000CCF1200421FA04F411FA0CF118BF0121D1
:102A100021430843A3EB0C01CB1D4FEA00614FEAB1
:102A2000102042BF002010BC704700EBC350104480
:102A30000029A4BF10BC7047401C490008BF20F00B
:102A4000010010BC7047FEE7704700002DE9F84F09
:102A500041F6A309622A88460546DFF890A09B4606
:102A6000CDF8009028BF6222052A98BF0522C2F146
:102A70006400A62148436421424680B2B0FBF1F7CE
:102A80002846532107F153063346D0470A9831466A
:102A90000F220F230090681E84B2204603F0B2FE7E
:102AA0006137284642464FF48073CDF800B039466E
:102AB000D047204653212A463346CDF80090D047D0
:102AC000204639462A4602F085F908F101005321D3
:102AD0003346CDF8009084B240462246D047404667
:102AE0003946224602F076F9BDE8F88F132F000828
:102AF000438E4FF6FF7293421CBF5A1C428670B53C
:102B0000CB1C0021062B24D8DFE803F00423142378
:102B10000823200002F005F804211AE0038C418606
:102B20009A4238BF012180F834104FF0010138BFBC
:102B300009210EE0038C41869A4238BF012180F8BA
:102B400034104FF0020138BF0A2102E001F0E9FF22
:102B50000321024612F8305F12F8093C12F8036CA8
:102B6000DCB202F8033C84F001033343B3FA83F38D
:102B70005B094DB1002B5ED0002280F83020C28569
:102B8000826280F82C2056E0458D6DB1013D45856F
:102B90002D0401D0002508E090F82C50012D03D120
:102BA000002101F0BEFF05210125BCB1002B42D060
:102BB000024632F8283F32F8104CA34239D3448BF6
:102BC000A3422FD290F82C3085F00104013B18BFAE
:102BD000012323432DD1838B43852AE0038D048B6E
:102BE000013303859BB2A3420AD12DB990F82C4042
:102BF000012C01D1062101E000F12C020124147006
:102C0000428B934217D3C38DC28B01339CB2B4FB6A
:102C1000F2F505FB1242002A18BF1A46C28508BF0A
:102C2000082108E0002180F83010C1851160117181
:102C3000072100201080084670BD2DE9F04701688B
:102C400082888B68816886898D680469818AA46816
:102C500005EA0607BD1B04EA010CB5FA85F5ACEBE5
:102C600001044FEA551E90F82450B4FA84F4640924
:102C700080F8264080F8274003EA0204A31AB3FA3A
:102C800083F34FEA531A837D1BB355452ED0B7EB20
:102C9000060918BF4FF0010990F82580B8F101032B
:102CA00018BF0123BD1BB5FA85F56D091D4394427C
:102CB0001FD165B1B8F1000F08BFB7423DD0A8EBF6
:102CC0000E02B2FA82F2520912EA090F3DD0012532
:102CD0001EE055450AD04FF0FF35B74280F825E099
:102CE00080F824A008BF0125944217D102200025B6
:102CF0001DE065B1B8F1000F08BFB74221D0A8EBC5
:102D00000E02B2FA82F2520912EA090F27D0FF2509
:102D10004FF0000E80F825E080F824A0EAB26FF0B2
:102D20000200012A08BF0320002A08BF02208C45A8
:102D300018BF054668B2BDE8F087FF254FF0010EC9
:102D4000E8E74FF0010E0125E4E787EA060288EA8A
:102D50000E031A43B2FA82F252095542DAE787EAC1
:102D6000060288EA0E031A43B2FA82F25509D1E745
:102D7000FEE700002DE9F84FDFF88CB007462A2067
:102D8000984692468946D8477C4C4FF40045380A0D
:102D90007B494FF480666560C4F8FC03F8B20E60AE
:102DA000C4F80068256065600F46C4F8FC034FEA6C
:102DB0001A200E6001F004FE5FFA8AF00E6001F046
:102DC000FFFD2B200E60C4F800682560D8474FEA4D
:102DD000192065605946C4F8FC035FFA89F03E602B
:102DE00001F0EEFD4FEA18203E6001F0E9FD5FFAC8
:102DF00088F03E6001F0E4FD3E60C4F800682560A4
:102E00002C20BDE8F84F0847C531000870B5164CB6
:102E10004FF6FF724FF6FF7394F8380094F83A10AB
:102E2000002818BF40F2DF12002918BF40F23F13FC
:102E3000002000210025FFF79DFF94F838000128AD
:102E400011D168090E280ED8002694F83A000128FE
:102E500007D1B009042804D8002000F0A5F90136F4
:102E6000F3E70135E9E770BD080100202DE9FE4FC9
:102E70000C46A3EB010B111A05460029029101DD56
:102E8000012008E005D00298404202904FF0FF3048
:102E900001E000200290BBF1000F019001DD01264E
:102EA00007E019BFCBF1000B4FF0FF364FF0000BDE
:102EB000002602985F464FF000084FF000094FF0DF
:102EC000000A584588BF07461FFA88F08742B8BFF6
:102ED000BDE8FE8FA8B2A1B202460B46FFF74AFF3B
:102EE0000C9800F061F90AEB0B0008F10108B842F8
:102EF000C8BF34440299019A4944B942C8BF154435
:102F0000B0EB070AD8BF8246B1EB0709D8BF8946A4
:102F1000DAE72DE9F8438146501E154698460E46DD
:102F200082B2581E83B24846FFF724FF089CB0B215
:102F3000404528BFBDE8F8834F46B8B2A84204D246
:102F4000204600F031F90137F7E70136EFE70000DE
:102F500010B5002007F0A8F8A548A44A4FF4004196
:102F60004FF4006341601360D0F8F843C0F80038B4
:102F70000160102007F098F8A0B210BD10080140C1
:102F8000141001402DE9F04F87B0119F1C46904668
:102F900000EB5702CB1901F063FE01203909109EA6
:102FA0004FF0000B17F00E0F18BF00EB171101FBCD
:102FB00007F00690A8F120004FF4C8717D084FF08B
:102FC0000008C2B22D48059212FB010004902F4860
:102FD00000EB021003902B4800EB8210029028486F
:102FE00000EB022001900698804543D0502F16D068
:102FF000102F18D00598182F00EB400009D0202F73
:103000000FD0402F09D00C2F34D1214901EB800083
:103010000AE01D4901EB001006E0019804E0049865
:1030200002E0029800E0039840440BF108074FF0DB
:10303000000A90F80090BAF1080F13D029FA0AF0AC
:10304000C007204608BF304600F0AEF80BF1010B78
:103050001FFA8BF0B0FBF5F101FB150020B10AF16E
:10306000010AE8E7BB4601E04FF0000B119F08F1B1
:103070000108B8E707B0BDE8F08F00BFD03A0108FB
:10308000D0DB000810C4000840B2000850AC0008B3
:10309000DCA700082DE9FE4F07460D989946924699
:1030A0000E4600254FF00A084FF0000B4408032D90
:1030B00008BFBDE8FE8FC5F102000121020604D061
:1030C00001EB810101384900F8E7BAFBF1F0BBF1EF
:1030D000000FB0FBF8F101EB8101A0EB410105D13C
:1030E000012D03D8080410D04FF0010BDDE90C20AE
:1030F00041F030014B46CDE9002005FB0470CAB217
:10310000314601F0F6FB0135D1E7DDE90C10302244
:103110004B46CDE9001005FB0470314601F0E9FB98
:103120004FF0000BEFE72DE9FC47DDF828809946CA
:1031300015460E4607464FF0000A4FEA58042A7813
:103140004AB1B8B231464B46CDE900A8FFF71AFFA5
:1031500027440135F3E7BDE8FC8700002DE9FE4F69
:103160001C469046894683465D0800260FF2300AC9
:103170000027072F08BFBDE8FE8F781EC0B20528C4
:103180000AD81AF800200BEB060049464FF6FF73E9
:10319000CDE9008401F0ADFB2E440137E9E700BF23
:1031A00056312E302E38000011494FF400424FF4B2
:1031B00080634A60C1F8FC030C480360C1F8003822
:1031C0000A60704710B50949094B4FF480524FF41B
:1031D00000440A605C60C3F8FC034FF48060086040
:1031E000C3F80008C3F800281C6010BD141001408B
:1031F000100801402DE9F04F95B0DFF8C8AB9AF800
:103200001C0001282BD0002841F0B082DFF8B89BC9
:1032100099F8E60302282BD1D9F8B040D94901F03A
:10322000E2FC00286FD0D74901F09CFC002840F058
:10323000B78099F8C003002840F0B2809AF82400C3
:10324000002840F0AD809AF8250001308AF825006A
:10325000C0B2032824BF0120AAF824006FE09AF826
:103260003000012808D1DFF8400E90F8D1031CE0AF
:1032700000208AF8240093E07F2000214FF4F072B0
:103280001E230090002003F0BDFA40F29F10082199
:1032900043F286121023FFF761FF0120DFF8081EBA
:1032A0008AF83000FF2081F8D103DFF8FC8D98F810
:1032B000D01388420FD03F20012908BF3E20009044
:1032C0004FF4C77006211522152303F09BFA98F8D6
:1032D000D00388F8D10398F8C90398F8CA1381423B
:1032E00034D0012803D098F8CB13012929D17020BC
:1032F00003212A221823009040F2631003F082FA7F
:1033000098F8C90320E09AF8230001308AF82300D6
:10331000C0B215280AD300208AF823009AF82200A8
:10332000013000F003008AF8220001E09AF8220040
:1033300000218AF82410DFE800F0022A262856200F
:1033400026E000218AF8301088F8CA0398F8E603CE
:103350004FF6FF7B00F0FE0102294FF6FF7140F0AF
:103360004B8798F8C41398F8C5238A4200F0DB8095
:10337000032900F2D280DFE801F002C8C4C60120B0
:1033800088F8E703C9E0582002E0592000E0572000
:1033900000904FF4D77028212422222303F032FA20
:1033A00099F8E80301280FD1DFF8000D81694A1E62
:1033B0000029826108DC002189F8E8134FF4967136
:1033C0008161172089F8E6039AF8201099F8C6035E
:1033D00019B108BB99F8C2130CE0012101288AF841
:1033E00020100CD0C0B999F8C213012909D80220C5
:1033F00089F8E6030020022938BF012002E00320FB
:1034000008E0002099F8E61301F0FE01022903D13B
:1034100010B1022089F8E60399F8E60399F8E7234A
:103420004FF6FF71824200F0CE80DFF8802C564BC1
:1034300089F8E703D1815549FF22C9E90433C9F866
:103440003830C9F8303089F8B92389F8CE2389F8A3
:10345000D42389F8C7238AF81E20C9F81C10C9F89C
:103460005410C9F8081001F076FAC9F89C10C9F890
:103470004410C9F8A41001F032FAA0F11D01CAB23B
:10348000202A04D300F17F02D2B2012A22D89AF86E
:10349000212082B904201E214FF4F0724FF4917361
:1034A0000090002003F0AEF901208AF8210099F87D
:1034B000E603A0F11D01C9B2062904D3A0F12D0134
:1034C000C9B20D2911D800904F2046214FF4A172A6
:1034D000A52376E00021009000204FF4F0724FF415
:1034E00091738AF821101E216BE0A0F12301C9B26B
:1034F00007294DD8009050203B2140F23F12BB23BA
:103500005FE0462002E0442000E0422000907B2063
:103510007B21EB22672303F075F998F8C41398F820
:10352000E60388F8C51302284FF6FF7140F0648661
:1035300098F8C003022804D0012812D0002840F0D7
:103540001C8618200024342100224FF6FF73CDE999
:10355000004040F24510FFF79DFDAAF8524000F0F0
:103560000CBE98F8C203012802D198F8D90320B103
:1035700098F8C943022C40F0DA840020AAF85200DF
:1035800000F0FBBD0000A04200007A4400007F4331
:10359000A0F1810102290ED3A0F13B0102290AD337
:1035A000A0F12B0101290ED80090482058214FF49A
:1035B000A872822305E00090092057214FF4E7729A
:1035C000842303F01FF99AF8280001280DD0002861
:1035D00040F02181B9F8BA0390B199F8E663022E60
:1035E00050D0032E53D119214DE0B9F8BC0380B15E
:1035F00099F8E663022E72D0032E75D119216FE07F
:103600009AF83100002800F0B28001388AF83100C1
:103610009EE0D9F89850D9F8A000D9F8B44001F04C
:103620009BFA30B1D9F8B80001F093FA002840F0C5
:10363000EF8099F8C01399F8C22399F8D93399F813
:10364000E603C9F8B840C9F8A050090608BF2C46DF
:1036500082F00101DAB2114318BF2C46CAF870405B
:10366000022800F0C180032840F0D28001F077FAF0
:103670000246202043F28611CDE900104FF4CA70B3
:10368000CD21C1E00521D0FA51F0A9F8BA030020FC
:10369000D9F82050C9E90200C9E90400D9E9064077
:1036A00001F057FA28B1D9F8240001F055FA0028A2
:1036B0004ED199F8CD03C9F82450C9F81C40002810
:1036C00008BF254601F092FA0446022E36D0032E9A
:1036D0003ED101F0F3F840F28910502134E0052189
:1036E000D0FA51F0A9F8BC0399F8C973022F04D09D
:1036F000D048C9F8B800C9F8A000D9E92640D9F8DF
:10370000BC5001F026FA28B1D9F8C00001F024FA23
:1037100000287DD1C9F8C050C9F89C40022F08BFCD
:103720002C4601F01CFA0446022E15D0032E6FD150
:1037300001F0C4F84FF4CA70CD2115E05E2001F00D
:1037400020FA01F00FF978214FF66143FFF7A2FC50
:103750009AF8280001305CE0622001F006FA01F0DE
:1037600001F94FF48770782143F67F434EE099F8D2
:10377000C4030028ECD1D9F82850D9F800B00021B2
:103780002846FFF77DF8AC4906462846FEF7D0FFED
:10379000AA49FEF7FFFF01F0ECF885F00041002E8A
:1037A00018BF084699F8CD83B8F1010F18BF084635
:1037B000FFF79DF899F8C9730546012F40F0E5839E
:1037C000B8F1010F40F00A849B495846FEF7B0FF5C
:1037D0009A49FEF7DFFF01F0CCF89949C9F80400D7
:1037E000FEF74EFF0646E0E3602001F0BEF9DAF88E
:1037F0007000FFF77CF80246502041F6A301CDE9A6
:1038000000104FF4877078214FF6FF73FFF742FCEA
:1038100000208AF8280099F8E603022800F0768153
:10382000032840F088819AF81F0058B90020292108
:103830004FF4BC72FA2300901220FFF76AFB0120BC
:103840008AF81F00D9F800407E49D9F8485001F0A5
:1038500072F999F8C973012F18BF2046FFF747F88E
:103860000446FFF736F801462846FEF7FBFF0646FA
:1038700001F0BCF90546002E08BF254699F8D9038A
:10388000B421012808BF982199F8C203012818BF64
:10389000982159F80100FFF72AF8804699F8C003EB
:1038A000002638B1D9F8B0006749FEF7BFFF0028FD
:1038B00000F04F814FF0000828B2FFF70AF8634983
:1038C0000546FEF7C1FF624C00281CBF0025C4F26C
:1038D000FA3501F0BBF95F4A00281CBF0025C4F28D
:1038E000C8252846214606F01DFFAAF85800404684
:1038F000FEF7F8FF584901F07CF900281CBF0024AE
:10390000C4F2483420460021FEF782FF0028534AC3
:1039100018BF00242046002106F004FFAAF85A0030
:1039200040F2651744F6384B4FF0000ABA453DD0D7
:103930000AF11200C846D144009684B20AF114007C
:1039400099F8EC1099F8ED3085B220462A46FFF739
:103950008DFA99F8521299F8533220462A46009669
:10396000FFF784FABAF5B27F14D04FF2604099F8AD
:10397000EE3099F8ED102A4600902046FFF776FACF
:1039800099F8543299F8531220462A46CDF800B0DF
:10399000FFF76CFA99F8ED000AF1010A89F8EC00DA
:1039A00099F8530289F85202C146BFE7DFF83CAEEE
:1039B000DFF8546E002448F20F454FF02A084727DD
:1039C000BAF8580089F85102BAF85A0089F8B703D2
:1039D000BCB1052C44D004FB08F04FF4BC72009538
:1039E000283081B212200B46FFF740FA04FB07F0A3
:1039F0002821FA230095123080B20246FFF736FAEA
:103A000015E0122028214FF4BC7228230095B047FE
:103A1000122028211222FA230095B0471220FA2101
:103A200001F07EF94FF4BC70282101F079F90134DE
:103A3000CEE700BF00007F43000010410000A0401F
:103A40000000F4C2000048C20000F0410000FA4348
:103A50000000C842000016440000484300007A43BA
:103A600073202A212F2219230090142002F0CAFE6D
:103A7000DFF8A44D0C250FF694521520462101F0D5
:103A800046F80FF698521520702101F040F80FF615
:103A9000985215209A2101F03AF80FF69852152005
:103AA000C42101F034F80FF698521520EE2101F0F0
:103AB0002EF874202A2117221723009040F25F105D
:103AC00002F0A0FE0FF684524FF4B270462101F0CE
:103AD0001AF80FF67C524FF4B270702101F013F80F
:103AE0000FF670524FF4B2709A2101F00CF80FF6F5
:103AF00068524FF4B570C42101F005F80FF65C521E
:103B00004FF4B870EE2100F0FEFF97E0D9E90045D0
:103B1000D9F8100001F01DF888B9B9F8BA1399F86E
:103B2000CD03C9E90445D9B138B3D9F820009E497D
:103B3000FEF7A6FD1EE000208AF81F007EE0D9F8FF
:103B4000140001F009F8B9F8BA130028E7D091B3CE
:103B5000E5E7022F7FF4B0AE01F08FF88046ABE6C8
:103B600099F8C96360B190492846FEF789FD012E96
:103B700018BF28468D4C8E4D0AE0D9F8180005E094
:103B80008C4900F0D8FF012E18BF20468A4C8B4D7F
:103B9000FEF7F3FE02460B4628462146FEF7ABFB36
:103BA000FEF73DFD02466A2027214FF6A043009014
:103BB0001A20FEF74BFFD9F89840D9F8A400D9F89D
:103BC000B45000F0C6FF10B9D9F8BC600CE0D9F8C9
:103BD000A800D9F8BC6000F0BFFF28B1D9F8AC004C
:103BE0003146FEF74DFE48BB09F1A40070C099F8BC
:103BF000C003012809D199F8C203012805D199F819
:103C0000D90310B9B9F8BC0320B101F032F808BFEC
:103C10003446254600F0EAFFFEF7F4FC684B00F05E
:103C200047FEFEF7FCFC02466B204FF4E37140F2C6
:103C30005F43009040F2B910FEF708FF99F8E603E1
:103C4000011F11F1020FC0F0CD8046F269605D21C5
:103C50004FF481724FF49473ADF8500030201093FC
:103C600046F268531291CDE90C21CDE9072199F86C
:103C7000B813119213900E9009905A20ADF83C3071
:103C8000C123069099F8B9030B9346F26743ADF848
:103C90002830884247D006AC012604F10805042EDE
:103CA00010D099F8B903864209D16F7AAB882A8877
:103CB00035F8041C35F8080C009702F0A3FD143504
:103CC0000136ECE799F8B90308B104280DD30025B3
:103CD0003C2D0AD06619605BB3893289B188767C45
:103CE000009602F08FFD1435F2E799F8B803411EF3
:103CF000CAB2022A0FD8900050FA81F134F821009C
:103D000004EB8104A3892289A188247C009402F019
:103D100079FD99F8B803E649002289F8B9038AF8D1
:103D2000292000F018FE00285AD09AF8290000280F
:103D300056D1D9E91A06D9F81850D9F82040FEF71B
:103D4000D6FDADF8120000F0D3FFADF81400D9F89D
:103D50007000FEF7CCFDADF81600D9F87400FEF740
:103D6000C6FDADF80C00D9F87800FEF7C0FDADF83F
:103D70000E00D9F87C00FEF7BAFDADF8100000F097
:103D800035FF054600F0EBFE00210DF1120203ABFA
:103D900003291BD032F81140AC4221D033F8114036
:103DA00001318442F4D11BE00000F4C2E3A5BB3F23
:103DB000D9CEF753000048C29999C93F9A99999969
:103DC0000000E43F08010020CC170020B848C9E9F2
:103DD0003500C9E93700C9E9390001208AF829000E
:103DE00099F8E60300F0FE00022840F09B80D9F825
:103DF0006840D9F8D400D9F8745000F0AAFE20B178
:103E0000D9F8E00000F0A8FE90B900F0E8FE08BF85
:103E10002C4600F0A4FE00F0C9FE602000F02DFE4C
:103E2000D9F86800D9F87410C9F8D400C9F8E010BE
:103E3000D9F86C40D9F8D800D9F8785000F089FE4C
:103E400020B1D9F8E40000F087FE90B900F0C7FE79
:103E500008BF2C4600F083FE00F0A8FEC72000F04B
:103E60000CFED9F86C00D9F87810C9F8D800C9F858
:103E7000E410D9F87040D9F8DC00D9F87C5000F093
:103E800068FE20B1D9F8E80000F066FE98B900F0AD
:103E9000A6FE08BF2C4600F062FE00F087FE4FF43D
:103EA000977000F0EAFDD9F87000D9F87C10C9F8D5
:103EB000DC00C9F8E810D9F88040D9F88C0000F08F
:103EC00048FE50B900F04BFE00F070FE8D2000F06F
:103ED000D4FDD9F88000C9F88C00D9F88440D9F80D
:103EE000900000F036FE50B900F039FE00F05EFEA2
:103EF000F42000F0C2FDD9F88400C9F89000D9F888
:103F00008840D9F8940000F024FE58B900F027FE4C
:103F100000F04CFE40F25B1000F0AFFDD9F88800D5
:103F2000C9F894009AF81C00013000F01DBCD8F8C4
:103F30000000D8F82810D8F81870FEF7F3FBFEF749
:103F4000D6FC012C08BF323800B2FEF7C2FC59493A
:103F500005463846FEF794FB29468146FEF766FC87
:103F6000554904463846FEF78BFB064634B93046C1
:103F70002946FEF777FC002800F0BA803046294633
:103F8000FEF746FCF8B90120EEE0B8F1010F40F071
:103F90009B804A495846FEF7CBFB4949FEF7FAFB9E
:103FA00000F0E7FC0646C9F804002846FEF791FC3D
:103FB000014600F0A0FEFEF79AFC0546FEF789FCDC
:103FC000D9F84C601BE048462946FEF73DFC002826
:103FD00040F0CF8000208AF82600C8E0394900F080
:103FE0002EFE06462846FEF774FC014600F083FECE
:103FF000FEF77DFC0546FEF76CFCD9F848600146EB
:1040000000F063FC10B100F073FE05461420594621
:104010008AF83100D9E90160FEF732FC99F8E643ED
:1040200038B1D9F80C003146FEF72AFC00287FF49D
:104030008FAB022FC9E902B615D099F8D303012836
:1040400011D19AF83200002870D009F11800B8F1A7
:10405000010F08BF09F120000068FEF748FC054683
:10406000CAF8740001E0CAF87450032C0ED0022C78
:104070007FF46EAB5C2000F084FDBAF87420502011
:1040800041F6A301CDE90010782108E0202043F299
:104090008611AAB2CDE9001040F2891050214FF6E6
:1040A000FF73FFF753BB00BFCC17002000000020B8
:1040B00000007F430000C8420000C8C20000104159
:1040C0000000A040000048C22846FEF702FC01465E
:1040D00000F0B5FDFEF70BFC0546FEF7FAFBD9F83C
:1040E000486001463046FEF793FB00288BD08DE7F1
:1040F0009AF82700022836D1DFF8F406018A013940
:10410000018209B2002934DC322101823846294675
:10411000FEF708FBFEF7EBFB01B280EAE130A0EB13
:10412000E13000B20128D8BF012020E02846CAF8BB
:104130007450FEF7CEFBD9F81860E049804600F0D5
:10414000DAFD4146FEF78EFB00288ED1DC4900F0F7
:10415000D2FD4146FEF76AFB00287FF486AF0120BE
:104160008AF8320081E702208AF826006420AAF843
:1041700052009AF826008AF82700DFF87416BAF879
:104180005200C98981423AD0C0B2642828BF642055
:10419000012898BF0120C0F16400FEF7A3FBC949C4
:1041A000FEF7F8FAC849FEF7C3FAFEF7A0FBC0F520
:1041B000877044F25071432384B20091CF203F2195
:1041C0002246FEF7A6FE41F6A3003F214FF4877278
:1041D000432300902046FEF79CFEBAF85220182098
:1041E00000214FF6FF73CDE9001040F24510342155
:1041F000FEF750FFBAF85210DFF8F405C18198F8C5
:10420000E67307F0FD002D2804D1D8F82C50D8F81B
:10421000344007E0D8F81850D8F82040C8F82C509F
:10422000C8F83440D8F83000D8F8386000F094FC72
:1042300018B1304600F08DFC28BB47F00200C8F8EA
:104240003840C8F830502F281DD198F8CD0398F881
:10425000DC63002808BF2C4600F081FC02462020C9
:1042600043F266114FF6FF73CDE90010F0B2022859
:1042700008BF4FF4FC634FF487702F2F18BF5B46C5
:104280009621FEF707FF9AF82A0038BB0120D8F8DC
:104290001860D8E91A548AF82A00D8F80000FEF706
:1042A00026FB00EBC000052700F048FCC8F804001E
:1042B00000F01EFD00F0DDFAC8F8200000F096FCCA
:1042C00000F0D7FAC8F8740000F049FC00F0D1FA09
:1042D00000F0ECFC00F0CDFAC8F87C00D34698F86A
:1042E000CDA398F8CE43544525D0D8F80000D8F88F
:1042F0001860D8E91A59FEF7FAFA00EBC000052752
:1043000000F01CFCC8F8040000F0F2FC00F0B1FA68
:10431000C8F8200000F06AFC00F0ABFAC8F874009E
:104320004846FEF7E4FA00F0A4FA00F0BFFC00F003
:10433000A0FAC8F87C009BF81D00062800F27D80DA
:10434000DFE800F0047E193E099DC800544540F0A6
:10435000D6800120D1E098F8E603DA46372840F00D
:10436000248198F8DD03012800F01581002840F031
:10437000F5816F2010E198F8E603232840F0BC8017
:1043800098F8DF03DA460138C1B2032900F2E6806B
:10439000C000DFF86854782114221423C4B24B48BB
:1043A00000F0B4FC4A4EA1211422142306F57F40EC
:1043B00000F0ACFC26FA04F0CA2114221423CBE14D
:1043C00098F8E603DA46A0F1230100F0BDFA00F206
:1043D000C581012202FA01F140F66162114200F04A
:1043E000BD812D2808D0352806D0372802D198F86D
:1043F000DD1309B1392804D14E2000F0D0FB98F824
:10440000E6032F2805D0372808D198F8DD130129B5
:1044100004D1512000F0C3FB98F8E603232840F0B4
:104420009D8198F8DF035121042808BF4E21009197
:10443000C420FF2158222D233CE00020DA4693E1DE
:1044400098F8E603DA46A0F11D0100F07DFA00F2CB
:104450008581012202FA01F140F67742114200F013
:104460007D811D2840F0CE8098F8CC03002800F014
:10447000C080012840F0C6808924B121BBE098F8B3
:10448000C0039BF81E10DA46814200F0678198F85D
:10449000C913022900F0628198F8E61300288AF80F
:1044A0001E005DD102295BD14020282196224B239A
:1044B0000090A52002F0A6F950E100BF000020C145
:1044C000000020410000C84200007C42797A7A7ADC
:1044D0007A7A797A9BF82D2098F8C913DA46022A5D
:1044E00023D1022921D098F8E6038AF82D1002285A
:1044F00040F05A817C2050E10320DA4631E198F8FF
:10450000E6032F283DD0032800F033812D2838D032
:10451000022840F05B81BAF1010F00F04F81BAF13F
:10452000000F40F053814C2049E10020022A00F0A6
:104530001881022940F0158102208AF82D0098F890
:10454000E603022840F0308198F8D603002800F0F6
:104550002081012840F020817E201BE1032000E122
:10456000012808BF022940F0F98098F8D6030028F6
:1045700000F0348101284FF6FF7440F034817E2032
:104580002FE1BAF1010F00F0FC80BAF1000F40F00A
:104590001D814820F6E06C200090CD20BE214622EF
:1045A000202302F02FF998F8E603352840F0D68052
:1045B000EC20832143F2661220234FF0EC0843F2F3
:1045C00066152026FEF7CAFD00278AA4072F00F0F3
:1045D000C580781EC0B2052809D8225C08EB0710F8
:1045E000B5214FF6FF73CDE9005600F082F901378F
:1045F000ECE7B12489215A2000F034F95B202146F0
:1046000000F030F998F8E6031F2812D198F8CF038C
:10461000012803D0A8BB8924B12101E0B12489215C
:104620005A2000F01FF95B20214600F01BF998F892
:10463000E603212810D198F8D20320B101280BD12C
:104640008924B12101E0B12489215A2000F00AF91E
:104650005B20214600F006F998F8E603312812D1D4
:1046600098F8D503012803D0B0BB8924B12101E01B
:10467000B12489215A2000F0F5F85B20214600F092
:10468000F1F898F8E603332810D198F8DB030128F5
:1046900003D058B98924B12101E0B12489215A20DD
:1046A00000F0E0F85B20214600F0DCF898F8E60323
:1046B000252813D198F8E103022804D003284DD10E
:1046C0008924B12101E0B12489215A2000F0CAF8DF
:1046D0005B20214600F0C6F898F8E60327281ED193
:1046E00098F8E30300F00EFB38D8C000434D752165
:1046F00025221E23C4B2424800F008FB414E9E21F1
:1047000025221E2306F57F4000F000FB26FA04F068
:10471000C72125221E2300F030FB98F8E603292844
:104720001CD198F8E50300F0EDFA17D8C000334D1E
:10473000752125221E23C4B2314800F0E7FA314E1C
:104740009E2125221E2306F57F4000F0DFFA26FA7F
:1047500004F0C72125221E2300F00FFB9AF81D004C
:1047600001308AF81D0000208AF81C0015B0BDE851
:10477000F08FBAF1010F19D0BAF1000F26D14A20FB
:1047800015E0492000904FF4A07099211C221B23B2
:104790001AE07B2000F0FCF9752000909120502158
:1047A000BE22232302F02EF80020DAE74B200090EF
:1047B0004FF4DC7054211A22182305E04D2000909C
:1047C000C820AA211422152302F01CF898F8CD0362
:1047D000DA4688F8CE039BF81D00C1E77B204FF630
:1047E000FF7400F0D5F90248C481B7E70801002042
:1047F0000000002056312E302E31000005680008E0
:104800005A5B5B005B5B5A006D2E00083530302828
:1048100039333229000000002731000834303028B5
:10482000373532290000000033303028353732293F
:1048300000000000323030283339322900000000F7
:10484000313030283231322900000000323030005F
:10485000313530003130300035300000300000009C
:10486000FEE7704725221E2300904FF4AA7001F046
:10487000C9BF00EBC000B0FBF7F0203080B2FEF7FC
:1048800031B8C9F89C00C9E92300C9F89400C9F8F7
:10489000BA13C9F82400C9F81C00704795F8350010
:1048A000013885F83500000670470022FDF77CBC12
:1048B0000022FDF720BD2946FDF7B8BF202043F2B6
:1048C0008611A2B2CDE9001070473046FDF7CABF8D
:1048D000B7F860000130A7F8600080B27047C9E9FE
:1048E0002311C9F894107047D9F820004FF04241C5
:1048F000704780B2FEF746BBBDF808100A31ADF82C
:1049000008109DF80B1001317047CDE90144ADF856
:1049100014407047042002F049BB656005F0EABB13
:104920004FF47A704FF07E51704701F0070125F483
:10493000E04545EA013170472D2087F8E603002065
:1049400070470446FDF764BFCAB2C90141EA52018B
:10495000C9B20B297047C9E93511C9E93711C9E94D
:1049600039117047502041F6A301A2B2CDE90010E1
:1049700070474FF08441FDF783BE81F82D20002160
:10498000317202210228704700BF00BF00BF00BF84
:1049900000BF00BF00BF00BF00BF00BF704797F857
:1049A000E60300F0FE0102297047C9F82410C9E9A6
:1049B0002311C9E92512C9F89C1089F8B80370477A
:1049C000C4F8006825606560C4F8FC03704750F8BF
:1049D000210052F821100068C9F818000968C9F8C8
:1049E00098107047A7F8BC03D7F89800FDF748BEA9
:1049F000A7F8BC03D7F8BC00FDF742BEA9F8BC037A
:104A0000D9F8BC00FDF73CBE01208AF80D0000205B
:104A10008AF83200502068614FF47A70A9F8BA031E
:104A200099F8CD030128704707F18C0002EB810251
:104A3000704709F18C0002EB81027047BDF8081045
:104A40009DF807201144B142704720464FF07E5137
:104A5000FDF716BE00200121102284F82004C4F8BE
:104A60001804C4F81C0404F5826002F079BA4FF00F
:104A70004241C9F82000FDF703BE4FF48C71FEF7E8
:104A800009BB0A6842F001020A60704787F8E60332
:104A900097F8E10397F8E31397F8E52387F8E00325
:104AA00087F8E21387F8E423704797F8B813C7F83C
:104AB000BC4003297047686101208AF80D004FF45B
:104AC0007A70A9F8BC03D9F89800FDF7D9BD97F81A
:104AD000B813C7F8984003297047C4F81014C4F8F5
:104AE000140404F5A2604FF48171FDF7BEBD99F87E
:104AF000B813C9F898400329704799F8B813C9F852
:104B0000BC400329704744F63843009520474FF2D4
:104B10006043009520470021017299F8C9130229CA
:104B2000704780F83010C185816280F82C10704782
:104B30002046FDF797BE2046FDF7A2BDB0FBF7F07B
:104B4000203080B2FDF7CEBE4FF042413862FDF713
:104B500097BD2146FDF794BE2946FDF791BE20463C
:104B6000FDF7C5BE2046FDF76FBED4217B22192379
:104B700000904FF4877001F045BE78632846FDF73A
:104B80007FBDD2217B221C2300905A2001F03ABE27
:104B90000090A520282196224B2301F033BEFA2154
:104BA00058222D230090C42001F02CBE024618206C
:104BB00043F286114FF6FF73CDE9001070470446AB
:104BC000FDF734BE01462046384799F8E60300F069
:104BD000FE000228704797F8C9030228704799F829
:104BE000CD03012870472046FDF720BE2846FDF77B
:104BF0007EBE0446FDF728BE286840F0010028600C
:104C0000704787F8E6130238B0FA80F0400987F859
:104C1000C60370470020307281F832004FF47A707A
:104C2000A7F8BA0397F8CD03012870478DF80B1049
:104C30009DF80B1070479AF80E10012970475846DE
:104C4000FDF71EBD0130C1B2032970472846214639
:104C5000FDF7DEBD05F5A2604FF48171FDF705BDDE
:104C6000013A013B92B29BB2FEF784B80446FDF7CD
:104C7000F9BD99F8C90302287047D9F8BC00FDF7BF
:104C800036BE0A6842F001020A60010E84F824046C
:104C900084F82114010C84F82214010AF02084F80D
:104CA0002504704701463046FDF7C0BDC8F87800BE
:104CB000D8F87000FDF71BBE272087F8E60397F8A9
:104CC000E20387F8E3037047252087F8E60397F8A7
:104CD000E00387F8E1037047292087F8E60397F897
:104CE000E40387F8E503704797F8DC030228704770
:104CF0003046FDF7FCBD3046FDF7C2BC97F8C40353
:104D0000002870470138C1B202297047E040C0B2A4
:104D100000904FF4AA7028470020A7F86000704761
:104D20004FF4BC72FA230095304786F8E40304F18F
:104D30002600284786F8E20304F12400284786F875
:104D4000E00304F12200284786F8C90304F120009B
:104D5000284786F8D90304F11E00284786F8D303B4
:104D600004F11C00284786F8D60304F118002847F0
:104D7000B8633863B869FDF7D5BCC0B200904FF492
:104D8000AA70284786F8D00304F11600284786F851
:104D9000CD0304F11400284786F8C60304F112007D
:104DA0002847C6F8880004F110002847C6F8840098
:104DB00004F10C002847C6F8800004F108002847D9
:104DC000D7F82C802846FDF7B3BC04462846214678
:104DD000FDF73ABD4FF48073CDF80090504720683E
:104DE00020F00100206010BD704770472DE9F041B0
:104DF000DFF8746B307801383070000648D1DFF886
:104E00006C4B1420307094F8D003012813D1DFF8D4
:104E1000605B95F8340002281DD001280ED058BBE5
:104E200002F092F8307A012820D028BB012085F8C2
:104E3000340002201EE002F087F829E002F08AF830
:104E4000FFF72CFD18D1317A022085F8340089B1A2
:104E500001290ED010E002F077F8FFF71FFD0BD10B
:104E600002203072002085F8340003E0012085F82C
:104E70003400192085F8350094F8C40340B17078E7
:104E800001387070000603D1012030722820707044
:104E9000DFF8187D97F8C003022809D1FC6D0021C6
:104EA0002046FDF7EDFC18B9BF49FFF744FEF86551
:104EB000B0890138B081000441F002800120B08146
:104EC000DFF8F00C00F128042046FDF7B6FE01469D
:104ED0002046FDF70DFE0138092800F27180DFE859
:104EE00000F0051C6F6F35576A0D272E97F8E60303
:104EF000411F162900F24E81022015E0DFF8B00CA8
:104F000090F82E1000295BD1012180F82E10FFF7B8
:104F100046FD40F0E6820020ECE297F8E603411FF0
:104F2000162900F2B98003203071D7E0307247E0D3
:104F3000FFF735FD40F0DC800720307163E0FFF7BC
:104F40002EFD40F0FB800820307180E097F8E603EA
:104F5000A0F12301062940F25A81811E0229C0F0E6
:104F6000BD801B2800F0D3832F2800F0DD83372875
:104F700000F0D083392840F0B88397F8C6030028A2
:104F800000F0F884012840F0A980032000F0F3BC71
:104F9000FFF705FD14D19349FF22C7F8BA139249D0
:104FA000C7F89C10DFF8081CFFF7E7FC08BF0321D7
:104FB000FFF727FE04E0DFF8F80B002180F82E1041
:104FC0003079172800F23485DFE810F01800DC0192
:104FD0009C0146024F02A30124021D0041005E0213
:104FE0006B01BA0175019B00C1003C02320532051C
:104FF0003205810277022E0132059201052087F8E1
:10500000E60300F013BDFFF779FE40F00F85DFF8EF
:10501000A01BFFF7FFFD00F03983002840F04E830E
:10502000B8697249FDF72CFB7149FFF7C8FD10B94B
:105030006F4C0020F8616F492046BC61FDF778FB9A
:105040006D49FDF7A7FBFFF794FC386236E3FFF7E5
:1050500055FE40F0EB84DFF8581BFFF7DBFD00F056
:105060003A83002840F0B483B8696449FDF708FB2F
:105070006349FFF7FBFD10B9614C0020F8615D4901
:105080002046BC61FDF754FB5B49FDF783FBFFF74E
:1050900070FC386200F09CBBA0F11D011A2900F2DF
:1050A0005283DFE811F0B2001B0066031B006C03A3
:1050B0001B001D001B00DC031B00E3031B000D0491
:1050C0001B007C03810372031B00D6031B006F03CC
:1050D0001B0086031B001B001B006903002025E743
:1050E00097F8DF030138010608BF042000F0F6BB83
:1050F0002F287FF465AFFFF7F7FD7FF461AF0D2038
:10510000307197F8CD03012800F0F781002840F0B6
:105110008D84BC693749FD6A2046FDF709FB364995
:10512000FDF738FBFFF725FC3049FFF726FD344932
:105130000546FFF700FDFFF748FE25E02F287FF426
:105140003FAFFFF7D1FD7FF43BAF0E20307197F8F2
:10515000CD03012800F0DD81002840F06784BC69A0
:105160002449FD6A2046FDF7E3FA2349FDF712FBC7
:10517000FFF7FFFB2149FFF700FD22490546FFF736
:10518000DAFC0446FFF762FD002818BF2546FD62E1
:1051900000F04CBCA0F11D011A2900F2DB820FF2D5
:1051A0000C00D0E811F000BF000080BF32003100D9
:1051B000E6023100EC023100940331009F0331001C
:1051C00077033100B1033100FC020103F202310028
:1051D0006A033100EF023100060331003100310073
:1051E000E90200BFE803E80300007F43000020411C
:1051F0000000FA43000010410000A040000020C160
:105200000000C8420000C8C268E709208CE6DFE859
:1052100011F06F026C0207006C0207006C020700BD
:105220002320FFF733FC59E7CF48D04CD04DD1496C
:105230000023012287F8E82387F8B833BB6287F898
:10524000D83387F8D63387F8D223A7F8CC33A7F81A
:10525000C83387F8C6333B6587F8DB3387F8D93323
:1052600087F8D52387F8D323C7F89800C7F88800B4
:10527000C148C7E92054C14CB96138674FF4807008
:10528000C7E91A41A7F8CF034FF00130C7F8E2038E
:1052900040F20220A7F8E003B948C7F8BA0300F0CB
:1052A000C5BB97F8CF03002800F04581012840F0E6
:1052B000BD83002040E197F8CD03012800F0418133
:1052C000002840F0B383BD69AE49FFF779FDAE49D0
:1052D000FDF760FAFFF74DFBAC49FFF74EFC0546C2
:1052E00040462946FDF7BEFAA9490446404643E038
:1052F00097F8DD03002800F03281012840F0968302
:1053000000202DE197F8E603811C1A2888BF0521AB
:10531000A8E0FFF7F3FC40F08983DFF89418FFF76B
:1053200079FC00F06282002840F04883BC6999490A
:10533000FFF759FC002800F02783FFF786FB26E3E0
:1053400097F8CD03012800F03181002840F06E83EA
:10535000BD698C49FFF734FD8B49FDF71BFAFFF758
:1053600008FB8D49FFF709FC05464046FFF7A3FA05
:10537000044640464FF07E51FDF782F9002C08BFED
:10538000284631E197F8E613481F362800F2F782E5
:10539000DFE810F037004C03E3064C03DC064C0357
:1053A000F0064C03A2064C03C3064C03B3064C03A1
:1053B0000D074C03ED064C0314074C03EA064C039F
:1053C0004C034C03F6064C0323074C031A074C030B
:1053D0004C034C034C034C034C034C034C034C0355
:1053E0002C07AC0638074C03D3064C03BA064C0313
:1053F00004074C0335074C034C034C034C034C038C
:10540000F7021D2087F8E603FFF7E5FB08BF97F8D2
:10541000CB03ABE1FFF772FC40F00883DFF8901795
:10542000FFF7F8FB00F0EB81002840F0EB82BC694D
:105430005949FFF77DFB002800F0CA825449FFF765
:105440007AFBC8E297F8D203002800F0CF80012849
:1054500040F0EC820020CAE097F8E603811E06289F
:1054600038BF1B2187F8E613E0E297F8C60301284E
:1054700000F0C280002840F0C28097F8C2030128E3
:1054800000F2BD800220B8E097F8CC03012800F0BC
:10549000E280002840F0CA82FFF79DFB40F0618166
:1054A0000120002187F8CC0340F2FF10A7F8CA03BF
:1054B000DFF8FC0680F83010B8E297F8DB0301282B
:1054C00000F0D880002840F0B1820120D3E097F8A6
:1054D000D503012800F0D480002840F0A7820120E5
:1054E000CFE0411F372901D3812804D197F8E80381
:1054F00008B904203071012018E5786B27493C6A0F
:10550000FDF7BEF826490546FFF715FBFFF75DFCE2
:105510000BE0786B23493C6AFDF7B2F82249054657
:10552000FFF709FB0446FFF791FB002818BF25464B
:1055300028467D634EE0012087F8CD0387F8CF032E
:1055400074E2386A18497C6BFDF79AF805462046E4
:105550002946FDF787F90E498046204633E00120B1
:1055600087F8DD0362E200BF000020420000F04146
:105570000000A0410000BE430000C8430000AF434C
:10558000E803E803000010410000A0400000C8C28A
:10559000000080BF0000FA430000C8420000204124
:1055A00000005443000020C1000054C3386AE3499E
:1055B0007C6BFDF765F805462046FFF77CF98046D1
:1055C00020464FF07E51FDF75BF8B8F1000F08BFA1
:1055D000284678634FF04241FDF752F8D849FDF76D
:1055E000A7F8D849FDF7D6F8F8621FE2012087F83E
:1055F000D00387F8D20319E2032087F8E603DFF827
:10560000740D90F82F10012909D100214FF6017275
:10561000A0F82F10A7F8C92380F8311010E000215E
:1056200080F8311097F8C913022909D14FF47A7123
:10563000A7F8BC13FF2180F82D1007F19C0007E0AC
:10564000C148C7F89C000020A7F8BC0307F1A000E0
:10565000BD490160EAE1FFF7BEFA40F08480FF2116
:105660000020A7F8CA13DFF80C1D87F8CC0381F8D7
:105670003000DBE1002087F8D90387F8DB03D5E1B0
:10568000002087F8D30387F8D503CFE1386AAF4904
:10569000FCF7F6FFAE49FFF792FA10B9AC4C0020C8
:1056A000786220464FF042413C62FCF7E9FFA44992
:1056B000FDF73EF8A349FDF76DF8B86197F8B81308
:1056C000032900F2B081FFF7AFF9DFE811F0AF0175
:1056D000AA01A501A8013C6A9E49FFF729FA002802
:1056E0006AD09D49FFF727FA69E00120FFF71CBC4B
:1056F00097F8DF03013803283FF6F0ACDFE810F03D
:1057000004007A044E045504FFF7DEFAE6E40420B0
:10571000FFF70ABC97F8DD03012800F00B81002891
:105720007FF4DCAC172026E197F8DC03012871D167
:105730000220B9693A6A87F8DC038348C7E90B108D
:10574000C7E90D20CAE402380228BFF4C7AC06201E
:10575000FFF7EABB02380228BFF4C0AC0520FFF710
:10576000E3BB012000E0002087F8C90387F8CC03E1
:105770005CE10A20FFF7D8BB1720FFF7D5BB0F204D
:10578000FFF7D2BB1320FFF7CFBB97F8DC0300284D
:105790007FF4A4AC2F2087F8E603012076E00120F7
:1057A00087F8D6032C20E6E0002087F8D6032B20CC
:1057B000E1E01420FFF7B8BB002078625F48FFF7F4
:1057C000C3F95F49FCF7B4FF5E49FCF7E3FFB8613A
:1057D00097F8B813032900F22681FFF725F9DFE8CF
:1057E00011F0250120011B011E013C6A5849FFF7F9
:1057F000FAF9002800F0D680FFF727F9D5E03C6AD7
:105800004E49FFF795F9002800F0F0805349FFF763
:1058100092F9EEE00120D7E90A4187F8DC034A4813
:10582000FFF7A6FA0146FFF786F94D49FFF7E1F9C0
:105830004C4900281CBF0024C4F2C8242046FCF7B1
:10584000E7FF00281CBF0024CCF2C824BC62FFF78D
:1058500045BCFFF749FA14D10C20FFF765BB97F858
:10586000E103FFF74FFA38BF032041E097F8E30365
:105870000138010608BF032012E0FFF735FA00F0F7
:10588000F18401287FF42AACFFF756F887F8DC038F
:10589000FFF724BC97F8E303FFF7D4F988BF012092
:1058A00087F8E303C0B2032800F0C584022800F0A3
:1058B000C084012804BF012087F8E203FFF70EBC73
:1058C00097F8E5030138010608BF032022E097F8A6
:1058D000DF030130C1B2042988BF012087F8DF034C
:1058E000FFF7FCBB97F8E103FFF7ACF988BF022094
:1058F00087F8E103C0B2032800F04B8302287FF44D
:10590000EDAB022000F046BB97F8E503FFF79AF9EC
:1059100088BF012087F8E503C0B2032800F099840E
:10592000022800F08D8401287FF4D8AB01200021EB
:1059300000F088BC1520307139201CE00000544371
:105940000000A0400000104100007F4300004842DA
:105950000000694400007D43000024C2000080BFB5
:105960000000C8420000C8C200000020CC17002080
:1059700008010020022087F8E603FFF7AFBB81296A
:1059800054D11920FFF73BBB0020F8619848994992
:10599000B861FCF7CDFE9849FCF7FCFEFEF7E9FF85
:1059A00038620BE0002078629448FFF7CDF8924906
:1059B000FCF7BEFE8F49FCF7EDFEB86197F8B8130F
:1059C000032930D8FFF730F8DFE801F0302B262923
:1059D0000020F8618A488749B861FCF7A9FE86492A
:1059E000FCF7D8FEFEF7C5FF38620BE000207862B6
:1059F0008448FFF7A9F88049FCF79AFE7D49FCF737
:105A0000C9FEB86197F8B81303290CD8FFF70CF852
:105A1000DFE801F00C07020507F1900001E007F153
:105A2000940079490160002087F8B803162030718E
:105A3000DFF898482046FDF700F901462046FDF7BB
:105A400057F80138092800F27381DFE810F00A00E6
:105A50002300710171014B006B007F0013002C00CB
:105A60003C00FEF79CFF7CD1FFF7B5F814BF012086
:105A7000052026E0DFF8480D90F82B10002940F0B3
:105A80005781012180F82B10FEF789FF40F07980C3
:105A900000207FE0FEF783FF5ED1FFF79CF814BF84
:105AA000022006200DE097F8E60300F0FE00022831
:105AB00040F03C8197F8C9030238B0FA80F0400901
:105AC0008000F07032E197F8E60300F0FE00022853
:105AD00040F02C8197F8C9030321022808BF072151
:105AE000F17023E197F8E603A0F1230106293ED9DE
:105AF000811E0229C0F01A811B2800F0C3802F28C4
:105B000000F0CB80372800F0BF80392840F0AA8011
:105B100097F8C603002800F03882012840F006817B
:105B2000032033E2FEF73BFF40F002813749FF22BA
:105B3000C7F8BA133449C7F89C10DFF8841CFEF785
:105B40001CFF08BF0321FFF75CF8F1E0DFF8700CE1
:105B5000002180F82B10EBE0411F16291DD80320EF
:105B6000E3E0411F162900F25A800220DDE0DFE861
:105B700001F07B790479047904002320FEF786FF85
:105B8000D4E0411F372901D3812804D197F8E803D5
:105B900008B9042030710120C9E01D381A2800F22C
:105BA000C5800FF21401D1E810F000BFCC1700201F
:105BB000080100206C0000205B00C100BF00C10094
:105BC000BD00C1003300C1003102C1004B02C10061
:105BD0003802C100AB00B000B500C1002C02C1000A
:105BE000A900C100A700C100C100C100A50000BFFD
:105BF0000000FA43000010410000A040000069448A
:105C00000000C8420000544300007F43E803E8035B
:105C100097F8DF030138010608BF042044E21D386D
:105C20001A2800F28380DFE810F01B0081007F005B
:105C300081007D0081003802810012028100230270
:105C40008100420281006B00700075008100FF013D
:105C5000810069008100670081008100810065008A
:105C6000092062E0012060E097F8DF030138032893
:105C70005CD8DFE810F00400C3019701BD01FFF715
:105C800023F853E0042050E097F8DD03012800F0EA
:105C9000788100284AD1172078E197F8DC030128A1
:105CA0000AD10220B9693A6A87F8DC03C048C7E91B
:105CB0000B10C7E90D2039E00120D7E90A4187F828
:105CC000DC03BB48FFF754F80146FEF734FFB9493F
:105CD000FEF78FFFB84900281CBF0024C4F2C82477
:105CE0002046FCF795FD00281CBF0024CCF2C824F8
:105CF000BC621BE0172018E0142016E0132014E00B
:105D0000012087F8D6032C2040E1002087F8D60335
:105D10002B203BE197F8DC0340B92F2087F8E603FE
:105D200001208AE10F2000E00A203071002030724B
:105D3000F078072800F2C480DFE800F004763249EA
:105D40001B8BA0604FF47A709C49FEF74BFE9C4978
:105D5000FEF78CFF00281CBF0024C4F22034FEF79D
:105D6000B6FE00F2A880FEF75FFEDFE801F0A7A212
:105D70009DA04FF47A709149FEF73AFE9049FEF7E4
:105D8000E0FD18B98E4C0020C7F8C000FEF78DFE6C
:105D900000F29180FEF748FEDFE801F0908B8689E3
:105DA0004FF47A708749FEF71DFE8449FEF707FF1E
:105DB00000281CBF0024C4F2A004FEF788FE00F2F5
:105DC0007A80FEF731FEDFE801F079746F724FF4EC
:105DD0007A707D49FEF706FE7849FEF7F0FE00284E
:105DE0001CBF0024C4F2A004FEF771FE00F2638021
:105DF000FEF71AFEDFE801F0625D585B4FF47A703F
:105E00007149FEF7F5FD6D49FEF7F3FE18B96B4CCD
:105E10000020C7F8C000FEF748FE4CD8FEF704FE8D
:105E2000DFE801F04C474245FEF77AFDFEF7DAFD68
:105E30006349FEF71BFF00281CBF0024C4F2203476
:105E4000FEF745FE37D8FEF7EFFDDFE801F0373209
:105E50002D30FEF765FDFEF7CBFD5949FEF771FDCC
:105E600018B9574C0020C7F8C000FEF71EFE22D814
:105E7000FEF7DAFDDFE801F0221D181B4FF47A70FF
:105E80005049FEF7B5FD4D49FEF7B3FE18B94B4C2E
:105E90000020C7F8C000FEF708FE0CD8FEF7C4FDCE
:105EA000DFE801F00C07020507F1900001E007F1BF
:105EB00094003F490160002087F8B8030820F07083
:105EC000708901387081000409D14FF47A707081B3
:105ED000DFF8EC08C16DC7F8B0100021C165DFF82C
:105EE000E058287888BB102001F090FDA887A88F83
:105EF000FCF788FB354A364BFCF7FDF9354BFEF7CE
:105F0000D7FC354A354BFCF74FF9354A354BFCF792
:105F100064FA354BFEF7C9FCFCF742FD33490446F1
:105F2000B864FCF705FC2549FCF734FCFEF721FDBD
:105F3000E549F864FEF7FCFD38B920460021FCF77E
:105F400067FC10B901203C602870286EE04C0130DD
:105F500028662069804794F83500012809D194F813
:105F6000340018B1013884F8340002E0022084F8CB
:105F7000350094F8440010B1013884F84400BDE8BD
:105F8000F08115203071392000E0022087F8E60307
:105F9000CCE6032087F8E003FFF7A0B8FEF79CFEED
:105FA000FFF79CB8FEF798FEC0E60B20FFF739B963
:105FB00000007F430000C8420000C8C20000A040AB
:105FC00000002043000080BF0000A0C052B81E8522
:105FD000EB510A400000303F295C8FC2F528F4BF26
:105FE00033E197FA7953713F0000184000001041E7
:105FF0000B20C3E5FEF760FEFFF770B8FEF75CFE0E
:1060000094E6FEF771FE13D10C208EE697F8E103BB
:10601000FEF778FE38BF03201FE097F8E50301384C
:10602000010608BF032048E0FEF75EFE00F02F8166
:1060300001287FF47BAEFEF77FFC87F8DC0375E672
:1060400097F8E3030138010608BF032016E097F82C
:10605000E103FEF7F7FD88BF022087F8E103C0B235
:10606000032800F0FB8002287FF460AE0220F6E0F7
:1060700097F8E303FEF7E6FD88BF012087F8E30306
:10608000C0B2032800F0FB80022800F0EE80012857
:1060900004BF012087F8E20348E697F8DF030130E8
:1060A000C1B2042988BF012087F8DF033EE697F8D4
:1060B000E503FEF7C7FD88BF012087F8E503C0B2FE
:1060C000032800F0E080022800F0D18001287FF44E
:1060D0002DAE01200021CCE097F8D603002800F077
:1060E000D880012840F0D8802C21D3E097F8D8033D
:1060F000012840F0818001207CE0312087F8E60310
:1061000097F8D303FFF7BFBA97F8D503012898BFD4
:1061100087F8D3031120FEF772BFFEF70DFC87F856
:10612000DC0397F8C90301287FF480AC9148012172
:10613000A0F82F104FF47F4077E0FEF7D5FD00F078
:10614000AF8001287FF472AC0220AAE0212087F8FA
:10615000E60397F8D003FFF74CBA1F2087F8E60351
:1061600097F8CD03FFF7EAB98120FEF748BF352045
:10617000FEF745BF042087F8DF032320FEF73FBF6B
:1061800097F8CC03012800F0908000287EF436AF09
:10619000FEF721FD40F0918000208AE097F8DB03B4
:1061A000012898BF87F8D9031320FEF728BF3320B2
:1061B00087F8E60397F8D903FFF75FBA002087F85E
:1061C000DD033720FEF71BBF97F8D203012898BFE5
:1061D00087F8D0030920FEF712BF97F8CF030128F4
:1061E00098BF87F8CD030720FEF709BF97F8D803BB
:1061F00010B9002087F8D6030D20FEF700BF152048
:10620000FEF7FDBE97F8DC0300287FF40FAC0F20EB
:1062100087F8E603574890F82F1001297FF406AC61
:106220000021A0F82F104FF60170A7F8C903FFF75F
:10623000FDBB022000E0032087F8E203FEF74EBF1B
:106240000220012187F8E4034A4880F82C10FEF769
:1062500045BF032087F8E403FEF740BF032087F81B
:10626000E00363E50B20FEF75FBE022008E002209A
:10627000012187F8E4033F4880F82C1056E50320FD
:1062800087F8E20352E5032087F8E4034EE50B208C
:106290004BE52B2187F8E61387F8D803FFF7C6BB39
:1062A000012087F8DC03FFF7C1BBFEF794FC06D1A1
:1062B000012087F8CB03FEF7A1BE002000E00120FB
:1062C00087F8C903FEF79ABE00004842CC000020C0
:1062D000880100201848C16941F08051C161174907
:1062E0000A7842F004020A70C16921F08051C1614C
:1062F000016841F00101016001688907FCD541682E
:1063000021F003014160416811F00C0FFBD10168DD
:106310000B4A114001600021416041F61071C162D9
:106320004FF4801101634FF41F01816005484FF065
:1063300000610160704700BF0010024050700040D3
:10634000FFFFF2FE08ED00E0B0B5094C6068800781
:106350000CD52068800709D5064D4FF07E51E86DB9
:10636000FCF78EF9E8656FF002006060B0BD00BF19
:106370000C4C0140080100202DE9F04F85B0B54FCD
:106380003869C00700F06281DFF8488998F8E903AE
:10639000012810D1DFF8289499F8120001280ED1B5
:1063A000DFF8444BAC4D666D2946FEF78EFA68B9AE
:1063B00065652E460AE00024C8F8404030E1A74E4B
:1063C000DFF8240B4FF08141C0E914160096D8F88D
:1063D0001860A349FEF78FFC834698F8C90301288B
:1063E00018BFB346D9F864005946FCF749FA0028AB
:1063F00040F08780DFF8F04A4FF07C51CA46B9463A
:10640000A06EFCF795F90025A06696498DF80B5013
:10641000ADF808508DF80750D8F898703846FCF75A
:10642000F7F904465846FCF762FA002C06464FEA94
:10643000900415D14A2C8DF8075033D864204F466C
:106440000021D146ADF80800DFF88403FEF7EEFB2B
:1064500013294CD8FEF7F2FA49D2FEF74DFAF5E7C8
:1064600080493846FCF7FEF9002568BB3846002114
:10647000FCF7CEF94F46D146E0BB00204A2C8DF800
:10648000070024D864200021ADF80800CF48FEF7AB
:10649000CDFB132900F25B81FEF7D0FA27D2FEF77D
:1064A0002BFAF4E74FF496704F461421D146ADF81D
:1064B0000800C748FEF7BAFB272918D8FEF7BEFA2E
:1064C00015D2FEF719FAF5E74F46D14612E04FF420
:1064D00096701421ADF80800BC48FEF7A7FB2729E9
:1064E00005D8FEF7ABFA02D2FEF706FAF5E79DF8FB
:1064F0000B10455C68B2C9F864B0FCF7EAF9C8F85B
:10650000D000B44E758D092D16D896F82C0001F0E8
:106510007DFAFCF7E7F946F825000446308D013591
:106520007585FCF7DFF90146FEF705FBFCF7DFF99F
:10653000A9B2B0FBF1F10CE0308D0A24B0FBF4F10C
:10654000451A96F82C0001F061FA284481B2B1FB9B
:10655000F4F130858808FCF7C5F9D8F82810C8F898
:106560000000FCF7DFF8064698F8C90302280DD1B1
:1065700094480021C16681660166C165A9F84C1086
:1065800089F81210C8F8401081652EE098F8C2030F
:1065900018B198F8D913012919D18F495846BA462C
:1065A000FCF76EF8074630463946FCF75BF930B920
:1065B0008A49FEF744FBFEF775FB002854D03046AD
:1065C0003946FCF74FF938B10025574615E0012848
:1065D00008BF002909D1CBE78049FEF730FBFEF761
:1065E00061FB574608B1864D07E0D8F84040204689
:1065F00000210025FCF736F910B92C46C8F84050A8
:1066000098F8C40360B16F480024C46684660466C9
:10661000C465A9F84C4089F81240C8F84040846528
:1066200098F8EB0320B920460021FCF71BF910B9BC
:106630000024C8F840402046FCF772F938643868F6
:1066400040F0010038606FF00100386105B0BDE82E
:10665000F08F00BF000C004000401C4600007A464E
:10666000000048420000A0415D49FEF7E8FA0146FB
:10667000FEF72BF930B95B49FEF7E1FAFEF712FBA2
:10668000002866D00020A9F84C0089F8120058466E
:106690003146FCF747F84B4F3866386EB96EFBF75A
:1066A000EFFFB866554DB86EFEF705F900B9BD6647
:1066B000B86E00210024FCF7D5F800B9BC66D7E914
:1066C0001354386EF96DFCF72DF8786620463E6E4F
:1066D000B96EFCF72DF8396F049003910498039973
:1066E000FCF796F808B9039804900498039981F090
:1066F0000041FCF7A9F818B9039880F00040049015
:1067000028463146FCF714F80499FBF7B9FF044614
:10671000796E0098FCF70CF82146FBF7B1FFF8669C
:10672000386EF865F86E796FFCF772F808B9786F13
:10673000F866F86E796F81F00041FCF785F808B9CA
:106740000020F866FC6E5746C8F840404FE7002529
:10675000D0E6B9F84C000130A9F84C0080B23C28D2
:1067600095D321490098FBF78BFF174F0446394614
:10677000FCF778F818B113480094446518E0114DFF
:10678000286D6F65FCF7F9F8184A194BFBF70CFDFB
:10679000184B002204460F46FCF780F820B1204633
:1067A0003946FCF7FDF800E01348286506480090DC
:1067B000012089F812000020A9F84C0067E700BF0B
:1067C000080100208801002000401C4682CF0108FB
:1067D00048CF0108040E00200000C8420000C8C2D3
:1067E0000000A0400000A0C00000FAC49A99999946
:1067F0009999B9BF000008400000404000C82F47E9
:10680000007F3B472DE9F04102FB03F4069D002683
:106810004FEA4408DFF8BC44023D94F8D643012C0B
:1068200000F08B80002C40F028827F2D00F2258222
:10683000DFE815F080004001320176012302840177
:1068400023028C0123029C012302B4012302800154
:1068500023029001230292012302AE01230294013C
:1068600023027801230274012302B6012302AA0144
:1068700023027A012302960123029E0123027C0156
:106880002302A201230234013601A0012302C00128
:106890002302B0012302B8012302A4012302A601AE
:1068A000230286012302AC0123025C012A01440178
:1068B0006E012302B2012302BA0123028E012302D8
:1068C00026012C013801520112012401BC012302CE
:1068D0002302A8017001230282012302280118016A
:1068E00060015E011C01580198012302720123021C
:1068F000C20123026A012302640166015A014601B2
:106900004201300148012001880123022302C40111
:1069100054016C0123024A010E017E0123024C0145
:10692000160168010A013C011A0123022302100129
:106930004E019A014FF496269FE17F2D00F29D8132
:10694000DFE815F08000B800AA0064019B01660131
:106950009B0156019B0168019B016A019B017E011D
:106960009B016C019B014A019B0158019B015A014B
:106970009B014C019B016E019B0170019B018001F9
:106980009B0182019B014E019B015C019B018401E3
:106990009B0150019B01AC00AE0072019B015201B2
:1069A0009B018C019B018E019B015E019B0160019B
:1069B0009B0174019B0162019B01D400A200BC00F9
:1069C00090019B0146019B0176019B0148019B01BF
:1069D0009E00A400B000CA008A009C0078019B01C0
:1069E0009B017A0192019B017C019B01A000900018
:1069F000D800D6009400D00086019B0144019B0181
:106A000088019B018A019B01DC00DE00D200BE00F0
:106A1000BA00A800C000980094019B019B01960158
:106A2000CC009A019B01C200860054019B01C40066
:106A30008E00E0008200B40092009B0140018800BB
:106A4000C60042019F4E18E1A64C04F5487614E1B9
:106A5000A84E12E1A04E10E1BD4C04F59C660CE17D
:106A6000A14E0AE1B44C02E09D4E06E1B14C04F5A2
:106A7000196602E1A34C04F5E176FEE0B34EFCE0BA
:106A8000B44EFAE0AC4EF8E0B84C22E0B14C04F55C
:106A9000BD66F2E09C4EF0E08B4EEEE0BD4EECE0C9
:106AA000BB4EEAE0AB4C04F53D66E6E08D4C04F5E8
:106AB000C866E2E0854EE0E0944EDEE0AA4EDCE0FF
:106AC000934EDAE08F4ED8E08B4ED6E0874ED4E07E
:106AD000814C04F5E146D0E09D4ECEE0884C04F5B3
:106AE0005256CAE0924EC8E08A4EC6E09F4EC4E0BD
:106AF000904EC2E0904C04F59956BEE0874EBCE043
:106B0000854EBAE0774EB8E0B94EB6E0B74EB4E085
:106B1000C14EB2E0BB4EB0E0B74EAEE0CE4EACE000
:106B20006B4EAAE0CD4EA8E0C84EA6E0C44EA4E04D
:106B3000AD4EA2E0CE4EA0E0B14E9EE0D04E9CE025
:106B4000B74E9AE06F4C04F5617696E0CB4E94E038
:106B5000AE4E92E0C54E90E0C34E8EE0C04E8CE04B
:106B6000B94E8AE0A54E88E0C64E86E0C24E84E06B
:106B7000B44E82E0B04E80E0B04E7EE0AA4E7CE0A3
:106B8000A84E7AE0A04E78E0B14E76E0A34E74E0D5
:106B9000B44E72E0A64E70E09E4E6EE0B54E6CE0D4
:106BA000AC4E6AE0A14E68E0994E66E0674C04F591
:106BB000527662E09F4E60E08E4E5EE0504C04F5EF
:106BC0000C565AE0454E58E0864E56E0564E54E07C
:106BD000634E52E0604E50E07A4E4EE0764E4CE00E
:106BE000704E4AE06C4E48E0674E46E0404E44E04E
:106BF000794E42E0724E40E0704E3EE0684E3CE01E
:106C00005E4E3AE05C4E38E0594E36E0744E34E069
:106C1000724E32E06F4E30E06D4E2EE06A4E2CE048
:106C2000644E2AE0624E28E0584E26E0514E24E0A1
:106C30004A4E22E0444E20E0424E1EE03F4E1CE011
:106C4000624E1AE0594E18E0574E16E0534E14E0CB
:106C5000364E12E0334E10E0314E0EE0494E0CE05D
:106C6000474E0AE03F4E08E0354E06E0244E04E071
:106C7000234C04F58C5600E0204E02440B44FDF7F3
:106C8000EFFF814D3146B8F1000F08BFBDE8F0813C
:106C90004646B8F5806F28460F4628BF4FF48066F9
:106CA000324603F05FFA0024B44206D2285B00BAF1
:106CB000000CFCF779FA0234F6E7A8EB0608F119A4
:106CC000E1E700BF0481B700002F0D0080EF08004E
:106CD000806E1100CC1700206818BC0084C0BB0077
:106CE000104DB700ECEEB60064DDB600DCCBB600AC
:106CF000E897B600D25FB600A456B600F406B60018
:106D0000E47AB500E065B5000043B5002020B50089
:106D100040FDB40060DAB40080B7B400A094B400C1
:106D20009A7CB4008E4CB400A019B400D0E3B30038
:106D30003CC0B30000AEB3005091B3005669B3003D
:106D40006219B30088B3B2009894B2006072B200C6
:106D5000386AB2008859B2006E9CB1003A22B00085
:106D600006A8AE000893AD00B237AD00C0C3AC00BA
:106D700050E7AA00CC6BA700A42DA4007CEFA000D4
:106D800054B19D002C739A0004359700DCF69300F3
:106D90008802910048AD8F003EDB8D002A378A00C3
:106DA0001693860002EF8200E47D7F00BC3F7C00EA
:106DB000940179000023730000A46A00002562009A
:106DC00000A659000027510000A8480000294000F3
:106DD00000AA3700002B2F0000AC2600002D1E005B
:106DE00000AE15005815C300F463B60044B7B500F3
:106DF0009464B4008834B400B8FEB300E8C8B300AB
:106E00005C41B30068F1B20078D2B20054DFB00048
:106E10002065AF00ECEAAD00243BAD00E00AA9001C
:106E2000B8CCA500908EA20068509F0040129C0034
:106E300018D49800F0959500C857920034098C003A
:106E4000206588000CC18400F81C8100D0DE7D0024
:106E5000A8A07A008062770080E36E0080646600FC
:106E600080E55D008066550080E74C008068440046
:106E700080E93B00806A330080EB2A00806C2200AE
:106E800080ED1900E838C10000020020BCB5154CA7
:106E90002068E06880060CD52068800609D5616806
:106EA000114D05F12800C9B203F0E4F84FF48270E7
:106EB000A886E068400610D5206840060DD50A4D2A
:106EC0006FF040000DF10701206005F1380003F07C
:106ED000BEF818B1002085F84500BCBD9DF807003C
:106EE0006060BCBD0038014088010020FEE7000062
:106EF0000648BFF34F8F064A016801F4E061114371
:106F00000160BFF34F8F00BFFDE700BF0CED00E055
:106F10000400FA0510B500EB40010A284FF0070203
:106F2000084B28BF1E3902FA01F14FF00C0238BF9E
:106F30001022D4582143D150596B21F01F0108432E
:106F4000586310BD002401400148102101607047C2
:106F5000141C01400148102101607047101C0140C1
:106F600018B3F0B50844511ABE4A4B1C990802F5F3
:106F7000A2640D462DB150F8046B013D36BA40C4F1
:106F8000F8E713F003030ED0002418250026A342CF
:106F900005D0075D0134AF40083D3E43F7E702EB03
:106FA0008100C0F81065BDE8F0407047AD4901F5BB
:106FB000A262044918B108CA01380B60FAE70868F0
:106FC000704700BF0030024032490A68C2F38103B3
:106FD000314AF0B5DFE803F002380A380B6D9B0543
:106FE00032D5CB6A9B0148BF2D4A2DE00B688C6AD5
:106FF0001B0C002C13D40C680D68C5F34175C4F349
:1070000083440DB90F2C43D12D0101352C44DB07EE
:1070100002D00B689B0300D5204A624314E08C6ABF
:107020008D6A8E6ADB071D4BC4F30314C5F3082574
:1070300006F0070603D00F68BF0358BF134604FAD3
:1070400006F26B43B3FBF2F2026016A40B68C3F3C3
:107050000313E35C174CDA4042600B68C3F302236E
:10706000E35C22FA03F3C3600B68C3F3C223E35C5F
:107070000424DA4082600B68096804EA9363C1F370
:10708000813119440CA3595CB2FBF1F10161F0BDEF
:107090000225BBE70410024000127A0000093D00FF
:1070A000006CDC020000000000000000010203048C
:1070B0000607080940CF010802040608020C081060
:1070C0007CB5044600204FF6FF75C6B2152E09D8D0
:1070D000301900F087FCADF80600B01CBDF80610B2
:1070E000A942F2D1BDF806007CBD00000B4A5368EE
:1070F000DB0103D4536843F08073536008230328F3
:1071000008BF102301FA03F06FF47F4108BF6FF44A
:107110007F0113681940084310607047A0000240C7
:1071200002684BF6EF731A4002600A8903681A433B
:1071300002604A7C036802F0030223F4405343EAEE
:1071400002320260CA7B036802F0030223F4406348
:1071500043EA822202608A7B036802F0030223F47E
:10716000407343EA022202604A7B036802F0010294
:1071700023F0800343EAC21202600A7B036862F3D1
:10718000861303600A7C036862F3451303604A892F
:1071900042600A6882604968C1607047016821F0F6
:1071A000010101600021016041608160C16040F225
:1071B000FF4100EA01020B49B2F5816F04D3D20806
:1071C000902A0ED801F5806100F0FC0014220838E6
:1071D000B0FBF2F00F22800002FA00F00A681043C0
:1071E0000860704704000240064907480A7822B93F
:1071F0004CF6CC42026001220A704AF6AA210160D4
:10720000704700BF000E00200030004010B5154C44
:1072100008480949FDF761FCFDF71CFCFDF77AFB06
:107220001349FDF72EFD84F823141620BDE8104005
:1072300003F052BA01000A18D103030910B5094C32
:1072400009480A49FDF749FCFDF704FCFDF762FB1C
:107250000749FDF716FD84F823141620BDE81040F9
:1072600003F03ABAB40E002001000A1DD10302094E
:107270000830024010B5214C226842F00102226021
:1072800001804FF4801000F017F8FDF7A8BD00BF93
:1072900008480168C9071CBF0020704701684907FA
:1072A00044BF012070470068C0064FF0020058BF7D
:1072B000032070470C200240B0B50446FFF7E8FFFA
:1072C0000025013C45F1000118B911B1FFF7E0FFBD
:1072D000F7E7B0BD10B5094C216841F0020121600B
:1072E0006060206840F0400020604FF08040FFF771
:1072F000E3FF206820F00200206010BD1020024053
:107300002DE9F047DFF8709899F8EB0308B1BDE874
:10731000F087DFF8408998F801000328F7D8DFE804
:1073200000F002DD09B599F8E903002800F0FA81C0
:107330000120F3E1664E98F80C10664FDFF844A682
:1073400006F1100011F0010508BF07F10E0099F8D1
:10735000C613D04706F11200002D08BF07F1100038
:1073600099F8CD13D04706F11400002D08BF07F19E
:10737000120099F8D013D04706F11600002D08BF6F
:1073800007F1140099F8D613D04706F11804002D20
:1073900008BF07F11604D9F82800FBF7A8FA014640
:1073A0002046D04706F11A00002D08BF07F118004B
:1073B00099F8D313D04706F11C00002D08BF07F140
:1073C0001A0099F8D913D04706F11E00002D08BF06
:1073D00007F11C0099F8C913D04706F12000002DD1
:1073E00008BF07F11E0099F8E013D04706F122000C
:1073F000002D08BF07F1200099F8E213D04706F1ED
:107400002400002D08BF07F1220099F8E413D047AB
:1074100006F12604002D08BF07F12404FDF72DFC1A
:1074200001462046D04799F8C60388F8020099F82B
:10743000CD0388F8030099F8D00388F8040099F880
:10744000D60388F8050099F8D30388F8060099F860
:10745000D90388F8070099F8C90388F8080099F853
:10746000E00388F80900D9F82800FBF740FAA8F8EB
:10747000460099F8E20388F80A0099F8E40388F8CE
:107480000B00FDF7FAFBA8F8480044E1104898F813
:107490000C2010492830D20708BF01F12600B8F8A7
:1074A0004A10FFF7E7FE0C48C16841F08001C16057
:1074B000012088F80100B8F84A000130A8F84A0015
:1074C00098F80C00013088F80C00BDE8F08700BF88
:1074D00000F0010802F8010804200240B8F83E005C
:1074E000FBF700FA0146D9F81800FBF7C9F90028A4
:1074F00000F08C80B8F84000FBF7F4F90146D9F8A9
:107500009800FBF7BDF9002800F08080B8F8420031
:10751000FBF7E8F90446D9F86800FDF71AFB0028E4
:1075200074D0B8F84400FBF7DDF90546D9F88000BF
:10753000FDF712FB002869D0D9F86C00FDF709FBB4
:10754000002863D0D9F88400FDF706FB00285DD041
:10755000D9F87000FDF7FDFA002857D0D9F8880057
:10756000FDF7FAFA002851D099F8C60398F80210EE
:1075700081424BD199F8CD0398F80310814245D14F
:1075800099F8D00398F8041081423FD199F8D603B6
:1075900098F80510814239D1B8F84600FBF7A2F9F6
:1075A0000146D9F82800FBF76BF978B399F8D303B3
:1075B00098F80610814229D199F8D90398F8071054
:1075C000814223D199F8C90398F8081081421DD14E
:1075D00099F8E00398F80910814217D199F8E2036D
:1075E00098F80A10814211D199F8E40398F80B1029
:1075F00081420BD1B8F84800FBF774F90146D9F87D
:10760000BC00FBF73DF900287FF481AEDC48DE4981
:107610000160DE490160D94998F80C000C468A46A1
:1076200010F0010608BF04F500642046FFF752FE83
:10763000D9F81800FBF75BF9D24FFDF7C3FA0AF14E
:107640000204002E04BF4FF60204C0F60104D9F86C
:107650009800FBF74CF9FDF7B5FA0AF10404C64DA2
:10766000002E08BFAC1CD9F86800FBF740F9FDF705
:10767000A9FA0AF10604002E08BF2C1DD9F88000D3
:10768000FBF735F9FDF79EFA0AF10804002E08BF52
:10769000AC1DD9F86C00FBF72AF9FDF793FA0AF153
:1076A0000A04002E08BF05F10804D9F88400FBF78E
:1076B0001EF9FDF787FA0AF10C04002E08BF05F148
:1076C0000A04D9F87000FBF712F9FDF77BFA0AF10A
:1076D0000E04002E08BF05F10C04D9F88800FBF752
:1076E00006F9FDF76FFAD9F81800D9F87040D9F803
:1076F0008850D9F89860FBF7FAF8A8F83E00FDF733
:10770000F7FAA8F84000FDF72AFAA8F84200FDF7BA
:107710006DFAA8F8440098F80100013088F80100DB
:10772000BDE8F087EA4C2046FFF7CAFC4FF6FF752C
:10773000A84210D02046FFF7C3FCA8420BD004F1AA
:10774000280000F04FF904468B48263000F04AF933
:10775000844205D80DE02046FFF7B2FCA84202D0D3
:1077600000F068F936E004F50060FFF7A9FCA842D4
:1077700002D000F0AFF92DE085488749884B874A51
:10778000884C0025012689F8D65389F8D06389F8FA
:10779000CD5389F8C65389F8D95389F8D363C9F80A
:1077A000285089F8E46389F8E26389F8C953C9F875
:1077B000BC007848C9F81810C9E92024C9E91A3171
:1077C000C9F89800C9F888007748C9F87000022005
:1077D00089F8E003D9F818407449FDF7A9F918B9F8
:1077E0006B49FDF7BFF910B96B48C9F81800D9F813
:1077F00098406F49FDF79CF918B96E49FDF7B2F949
:1078000010B96448C9F89800D9F8BC406849FDF738
:107810008FF918B96749FDF7A5F910B95C48C9F89F
:10782000BC00D9F868406149FDF782F918B9584998
:10783000FDF798F910B95A48C9F86800D9F86C40B2
:107840005A49FDF775F918B95149FDF78BF910B987
:107850005148C9F86C00D9F870405449FDF768F9EF
:1078600018B94B49FDF77EF910B94F48C9F87000B7
:10787000D9F880404E49FDF75BF918B94D49FDF73D
:1078800071F910B94548C9F88000D9F884404849D1
:10789000FDF74EF918B94749FDF764F910B94148A9
:1078A000C9F88400D9F888404149FDF741F918B971
:1078B0004049FDF757F910B93648C9F8880099F8DA
:1078C000C6033349022824BF002089F8C60399F86B
:1078D000CD03022824BF002089F8CD0399F8D003F6
:1078E000022824BF012089F8D00399F8D603022882
:1078F00024BF002089F8D603D9F82840FDF718F9ED
:1079000018B92D49FDF72EF910B90020C9F8280043
:1079100099F8D303022824BF002089F8D30399F8EB
:10792000D90310B1002089F8D903FDF7A2F924BFCB
:10793000002089F8C90399F8E003043810F1030F17
:107940009CBF022089F8E00399F8E203043810F1A3
:10795000040F9CBF012089F8E20399F8E40304387E
:1079600010F1040F9CBF012089F8E403012089F87D
:10797000E903BDE8F08700BF02F8010800F0010844
:10798000042002407572000823016745AB89EFCDE2
:107990000000C842000020420000BE430000A04199
:1079A0000000AF430000F0410000C8430000FA436C
:1079B000000020430000A0400000C8C210B5074CE2
:1079C0000749206840F001002060A64801604FF49C
:1079D0008010FFF771FCFDF702BA00BF10200240D3
:1079E000384B544181B00168D0F801008DF8001087
:1079F0008DF801009DF801009DF8001041EA00207B
:107A0000ADF80200BDF8020001B0704710B5084C97
:107A10006FF002012160FFF77DFAA06840F480005A
:107A2000A06020688007FCD5E06C80B210BD00BF6C
:107A30000024014070B5264C4E4D2046A847FAF769
:107A400051FF4D4EB061A01CA847FAF74BFFC6F896
:107A50009800201DA847FAF745FFB066A01DA8476B
:107A6000FAF740FFFDF7A7F9FAF73CFFF06604F1DB
:107A70000A00A847FAF736FFFDF798F9FAF732FF40
:107A8000306704F10E00A847FAF72CFFFDF789F9DB
:107A9000FDF782F9FDF77BF9FDF774F9FDF763F95E
:107AA000FAF720FFB06204F11A00A847FDF756F973
:107AB000FDF74FF9FDF748F9FDF741F9FDF73AF900
:107AC000FDF733F9FAF70EFFC6F8BC0070BD00BF32
:107AD00000F0010870B5264C264D2046A847FAF75D
