:020000040800F2
:10200000C02F002085210008CF480008712D00084E
:10201000CD480008472A0008656F0008000000004E
:10202000000000000000000000000000634E0008F7
:10203000492A000800000000614E0008654E0008B3
:102040009F2100089F2100089F2100089F21000870
:102050009F2100089F2100089F2100089F21000860
:102060009F2100089F2100089F2100089F21000850
:102070009F2100089F2100089F2100089F21000840
:102080009F2100089F2100089F2100089F21000830
:102090009F2100089F2100089F2100089F21000820
:1020A000C96300089F2100089F2100089F210008A4
:1020B0009F2100089F2100089F2100089F21000800
:1020C0009F2100089F2100089F2100089F210008F0
:1020D0009F210008056F00089F2100089F2100082C
:1020E0009F2100089F2100089F2100080000000098
:1020F00000000000000000000000000000000000E0
:10210000000000009F210008F963000800000000A3
:102110009F2100089F21000800000000000000002F
:102120009F2100089F2100089F2100089F2100088F
:10213000000000000000000000000000000000009F
:102140000000000000000000000000009F210008C7
:1021500000000000000000009F2100089F210008EF
:102160000000000000000000000000009F210008A7
:10217000DFF80CD000F0A0F900480047798900088A
:10218000C02F00200648804706480047FEE7FEE7CC
:10219000FEE7FEE7FEE7FEE7FEE7FEE7FEE7FEE717
:1021A00055630008712100082DE9FE4F804681EA41
:1021B0000300C00F0C46009021F0004123F00045C1
:1021C000B8EB0200A94105D24046214690461C4684
:1021D0000B46024623F00040104347D0270DC7F3BB
:1021E0000A00C3F30A510290401A019040286BDAAA
:1021F000C3F3130040F4801B0098924620B10023E3
:10220000D2EB030A63EB0B0B01985946C0F1400275
:10221000504600F069F906460D4650465946019A67
:1022200000F081F910EB08006141002487EA1152A7
:1022300084EAE7731A4340D0009A62B3019A012AF4
:102240004FEA075215DC001B61EB02014FF0004220
:1022500002EA0752CDE90042001C41F580113246E6
:102260002B4600F081F903B0BDE8F08F40462146CF
:10227000F9E7001B61EB0201001C41F58013001817
:102280005B412018A2F5001747EB030140EAD57027
:10229000B6196D4111E06D084FEA360645EAC07582
:1022A0004FEA0752001B61EB0201001C41F580114F
:1022B00049084FEA30000019514132462B4603B01D
:1022C000BDE8F04F00F041B9009801224000002322
:1022D000D0EB020263EBE073009821464FEAE07412
:1022E000B8EB000061EB0401E9E783F000435BE732
:1022F00081F0004158E72DE9FE4F81EA030404F024
:10230000004421F0004100944FF0000B23F0004303
:1023100050EA01045ED052EA03045BD0C3F30A54CE
:10232000C1F30A552C44A4F2F3340194A0FB0254E7
:10233000C1F3130141F48011C3F3130343F4801379
:1023400001FB024400FB034E840A970A44EA8154CD
:1023500047EA8357A4FB076802958D0A05FB0785AA
:102360004FEA932C04FB0C542705029D4FEA0658B4
:1023700047EA1637B5EB08056EEB070C870E920E91
:1023800047EA811742EA8312A7FB0201B6EB0B0171
:1023900064EB00042B0D43EA0C335E1844EB1C5035
:1023A000DA465146E7FB0201C5F313044FEA0B334B
:1023B00043EA14534FEA0432019C43EA0603A4F1B2
:1023C0000C040294009CCDE900B400F0CDF803B0F9
:1023D000BDE8F08F00200146F9E72DE9F04D81EAD4
:1023E000030404F0004B21F0004514464FF0000AAE
:1023F00023F0004150EA050220D054EA01021DD02A
:10240000C5F30A570246C5F31303C1F31300C1F322
:102410000A5640F4801543F48013A7EB0608101BFE
:10242000D64608F2FD3873EB050002D308F1010827
:1024300001E092185B41B8F1000F03DA0020014679
:10244000BDE8F08D00204FF48011064684460EE072
:10245000171B73EB050705D3121B63EB050306433C
:102460004CEA010C49084FEA300092185B4150EAEF
:102470000107EDD152EA030012D082EA040083EA98
:102480000501084305D0101BAB4106D201220023F1
:1024900006E000224FF0004302E06FF0010253100B
:1024A0001AEB06004CEB085110EB0A0041EB0B0154
:1024B000BDE8F04D00F049B81CB509480090094846
:1024C00001900546009C06E0E06840F0010394E8B6
:1024D000070098471034AC42F6D3FFF74DFE0000DA
:1024E00054D0010874D00108202A04DB203A00FAF5
:1024F00002F1002070479140C2F1200320FA03F35B
:10250000194390407047202A04DB203A21FA02F058
:102510000021704721FA02F3D040C2F1200291401D
:10252000084319467047202A06DBCB17203A41FAA8
:1025300002F043EAE07306E041FA02F3D040C2F150
:102540002002914008431946704710B5141E73F1DC
:10255000000408DA401C41F1000192185B411A4363
:1025600001D120F0010010BD2DE9F04D92469B46AF
:1025700011B1B1FA81F202E0B0FA80F22032904655
:10258000FFF7B2FF04460F4640EA0A0041EA0B019A
:1025900053465A46084313D0114653EA010019D056
:1025A000C8F140025046FFF7AEFF05460E465046C2
:1025B00059464246FFF798FF084305D0012004E042
:1025C00020463946BDE8F08D0020054346EAE07616
:1025D0002C4337430A986305E40AA0EB0800002265
:1025E000FD0A44EA47540A3002D500200146E9E7D3
:1025F000010510196941DDE9084500196941BDE887
:10260000F04DA2E70EB540F2334102910021CDE931
:1026100000110A460B46FFF7A7FF03B000BD70B5D7
:10262000C1F30A5201F000450024C1F3130140F246
:10263000FF3341F480119A4201DA002070BD40F26C
:1026400033439A42A2F2334203DC5242FFF75BFF6C
:1026500000E090402C43F1D0404270BDD2B201E086
:1026600000F8012B491EFBD270470022F6E710B597
:1026700013460A4604461946FFF7F0FF204610BDF0
:10268000F0B480EA0102D40F4200B2EB410F02D253
:102690000246084611464A0042D0C30DDDB2C1F3DE
:1026A000C752AD1A202D35DAC1F3160141F40002EC
:1026B00004B15242C5F1200602FA06F12A41104443
:1026C000B3EBD05F23D0C4B1012DA0EBC35009DC24
:1026D000F0BC4FF0004202EAC352DBB200F500004A
:1026E00000F083B9400000F1807000EBC350A0F10E
:1026F000807040EAD170490009E0490841EAC071A0
:10270000A0EBC35000F50000400800EBC350F0BC44
:1027100000F062B96142012202EB4101001BF6E7C1
:10272000F0BC704781F00041AAE780F00040A7E7C5
:1027300080EA010210B502F00043400022D04A00B6
:102740001FD0010E01EB1261C0F35600C2F3560216
:1027500040F4000042F40002A0FB022000047F3994
:10276000140400D0401C50EA124001D44000491E1D
:10277000C2B20C0604EBD010401C4008802A02D0E4
:1027800003E0002010BD20F00100002900DA002045
:10279000184310BD30B480EA010202F0004530F069
:1027A000004221F0004013D090B1C30DD40DC2F30C
:1027B0001601C0F31600E41A41F4000140F40002CF
:1027C0007D34914201D3641C00E04900002C02DA00
:1027D00030BC002070474FF400000023914201D329
:1027E000891A034340084FEA4101F7D151B19142A0
:1027F00002D14FF0004105E002D24FF0010101E0AB
:102800006FF0010103EBC450284430BC00F0E4B881
:10281000002801DBC0F10040002901DBC1F10041CB
:10282000814201D80120704700207047002801DB59
:10283000C0F10040002901DBC1F10041814201D219
:102840000120704700207047002801DBC0F10040E4
:10285000002901DBC1F10041814201D30120704711
:1028600000207047002801DBC0F10040002901DB97
:10287000C1F10041814201D9012070470020704719
:10288000002801DBC0F10040002901DBC1F100415B
:10289000814201D1012070470020704730B5041EED
:1028A00071F1000404DB4FF00044404264EB01018D
:1028B000141E73F1000405DB1C464FF00043524226
:1028C00063EB0403801A994101D2012030BD00203E
:1028D00030BDC10F80EAE0700844CA07962300218A
:1028E00000F083B896230022114600F07EB800F075
:1028F000004220F00040C10DC0F3160040F400007B
:102900007F2901DA00207047962903DCC1F1960186
:10291000C84001E096398840002AF4D04042704710
:1029200020F00040C10DC0F3160040F400007F29E4
:1029300001DA00207047962903DCC1F19601C840F6
:102940007047963988407047C1F30A5210B5C1F3F9
:10295000130140F2FF3341F480119A4201DA002062
:1029600010BD40F233439A42A2F2334203DC52429A
:10297000FFF7C9FD10BD904010BD00F0004230F0DF
:1029800000400AD0C10D01F56071C0F3160042EAA3
:102990000151C208400711437047002001467047AB
:1029A00001F0004330B421F0004150EA010206D0AA
:1029B0000A0DA2F56072C1F31301002A02DC30BCDB
:1029C00000207047440F44EAC104C100E01830BC45
:1029D00000EBC250AFF300800029A8BF7047401C35
:1029E000490008BF20F00100704710B4B0FA80FC25
:1029F00000FA0CF050EA010404BF10BC704749B162
:102A0000CCF1200421FA04F411FA0CF118BF0121D1
:102A100021430843A3EB0C01CB1D4FEA00614FEAB1
:102A2000102042BF002010BC704700EBC350104480
:102A30000029A4BF10BC7047401C490008BF20F00B
:102A4000010010BC7047FEE7704700002DE9F84F09
:102A500041F6A309622A88460546DFF890A09B4606
:102A6000CDF8009028BF6222052A98BF0522C2F146
:102A70006400A62148436421424680B2B0FBF1F7CE
:102A80002846532107F153063346D0470A9831466A
:102A90000F220F230090681E84B2204603F0EEFE42
:102AA0006137284642464FF48073CDF800B039466E
:102AB000D047204653212A463346CDF80090D047D0
:102AC000204639462A4602F0B5F908F101005321A3
:102AD0003346CDF8009084B240462246D047404667
:102AE0003946224602F0A6F9BDE8F88F132F0008F8
:102AF000438E4FF6FF7293421CBF5A1C428670B53C
:102B0000CB1C0021062B24D8DFE803F00423142378
:102B10000823200002F02DF804211AE0038C4186DE
:102B20009A4238BF012180F834104FF0010138BFBC
:102B300009210EE0038C41869A4238BF012180F8BA
:102B400034104FF0020138BF0A2102E002F011F800
:102B50000321024612F8305F12F8093C12F8036CA8
:102B6000DCB202F8033C84F001033343B3FA83F38D
:102B70005B094DB1002B5ED0002280F83020C28569
:102B8000826280F82C2056E0458D6DB1013D45856F
:102B90002D0401D0002508E090F82C50012D03D120
:102BA000002101F0E6FF05210125BCB1002B42D038
:102BB000024632F8283F32F8104CA34239D3448BF6
:102BC000A3422FD290F82C3085F00104013B18BFAE
:102BD000012323432DD1838B43852AE0038D048B6E
:102BE000013303859BB2A3420AD12DB990F82C4042
:102BF000012C01D1062101E000F12C020124147006
:102C0000428B934217D3C38DC28B01339CB2B4FB6A
:102C1000F2F505FB1242002A18BF1A46C28508BF0A
:102C2000082108E0002180F83010C1851160117181
:102C3000072100201080084670BD2DE9F04701688B
:102C400082888B68816886898D680469818AA46816
:102C500005EA0607BD1B04EA010CB5FA85F5ACEBE5
:102C600001044FEA551E90F82450B4FA84F4640924
:102C700080F8264080F8274003EA0204A31AB3FA3A
:102C800083F34FEA531A837D1BB355452ED0B7EB20
:102C9000060918BF4FF0010990F82580B8F101032B
:102CA00018BF0123BD1BB5FA85F56D091D4394427C
:102CB0001FD165B1B8F1000F08BFB7423DD0A8EBF6
:102CC0000E02B2FA82F2520912EA090F3DD0012532
:102CD0001EE055450AD04FF0FF35B74280F825E099
:102CE00080F824A008BF0125944217D102200025B6
:102CF0001DE065B1B8F1000F08BFB74221D0A8EBC5
:102D00000E02B2FA82F2520912EA090F27D0FF2509
:102D10004FF0000E80F825E080F824A0EAB26FF0B2
:102D20000200012A08BF0320002A08BF02208C45A8
:102D300018BF054668B2BDE8F087FF254FF0010EC9
:102D4000E8E74FF0010E0125E4E787EA060288EA8A
:102D50000E031A43B2FA82F252095542DAE787EAC1
:102D6000060288EA0E031A43B2FA82F25509D1E745
:102D7000FEE700002DE9F84FDFF88CB007462A2067
:102D8000984692468946D8477C4C4FF40045380A0D
:102D90007B494FF480666560C4F8FC03F8B20E60AE
:102DA000C4F80068256065600F46C4F8FC034FEA6C
:102DB0001A200E6001F02CFE5FFA8AF00E6001F01E
:102DC00027FE2B200E60C4F800682560D8474FEA24
:102DD000192065605946C4F8FC035FFA89F03E602B
:102DE00001F016FE4FEA18203E6001F011FE5FFA76
:102DF00088F03E6001F00CFE3E60C4F8006825607B
:102E00002C20BDE8F84F0847C531000870B5164CB6
:102E10004FF6FF724FF6FF7394F8380094F83A10AB
:102E2000002818BF40F2DF12002918BF40F23F13FC
:102E3000002000210025FFF79DFF94F838000128AD
:102E400011D168090E280ED8002694F83A000128FE
:102E500007D1B009042804D8002000F0A5F90136F4
:102E6000F3E70135E9E770BD080100202DE9FE4FC9
:102E70000C46A3EB010B111A05460029029101DD56
:102E8000012008E005D00298404202904FF0FF3048
:102E900001E000200290BBF1000F019001DD01264E
:102EA00007E019BFCBF1000B4FF0FF364FF0000BDE
:102EB000002602985F464FF000084FF000094FF0DF
:102EC000000A584588BF07461FFA88F08742B8BFF6
:102ED000BDE8FE8FA8B2A1B202460B46FFF74AFF3B
:102EE0000C9800F061F90AEB0B0008F10108B842F8
:102EF000C8BF34440299019A4944B942C8BF154435
:102F0000B0EB070AD8BF8246B1EB0709D8BF8946A4
:102F1000DAE72DE9F8438146501E154698460E46DD
:102F200082B2581E83B24846FFF724FF089CB0B215
:102F3000404528BFBDE8F8834F46B8B2A84204D246
:102F4000204600F031F90137F7E70136EFE70000DE
:102F500010B5002007F0FCF8A548A44A4FF4004142
:102F60004FF4006341601360D0F8F843C0F80038B4
:102F70000160102007F0ECF8A0B210BD100801406D
:102F8000141001402DE9F04F87B0119F1C46904668
:102F900000EB5702CB1901F081FE01203909109E88
:102FA0004FF0000B17F00E0F18BF00EB171101FBCD
:102FB00007F00690A8F120004FF4C8717D084FF08B
:102FC0000008C2B22D48059212FB010004902F4860
:102FD00000EB021003902B4800EB8210029028486F
:102FE00000EB022001900698804543D0502F16D068
:102FF000102F18D00598182F00EB400009D0202F73
:103000000FD0402F09D00C2F34D1214901EB800083
:103010000AE01D4901EB001006E0019804E0049865
:1030200002E0029800E0039840440BF108074FF0DB
:10303000000A90F80090BAF1080F13D029FA0AF0AC
:10304000C007204608BF304600F0AEF80BF1010B78
:103050001FFA8BF0B0FBF5F101FB150020B10AF16E
:10306000010AE8E7BB4601E04FF0000B119F08F1B1
:103070000108B8E707B0BDE8F08F00BF783B010852
:1030800078DC0008B8C40008E8B20008F8AC000812
:1030900084A800082DE9FE4F07460D9899469246F0
:1030A0000E4600254FF00A084FF0000B4408032D90
:1030B00008BFBDE8FE8FC5F102000121020604D061
:1030C00001EB810101384900F8E7BAFBF1F0BBF1EF
:1030D000000FB0FBF8F101EB8101A0EB410105D13C
:1030E000012D03D8080410D04FF0010BDDE90C20AE
:1030F00041F030014B46CDE9002005FB0470CAB217
:10310000314601F01EFC0135D1E7DDE90C1030221B
:103110004B46CDE9001005FB0470314601F011FC6F
:103120004FF0000BEFE72DE9FC47DDF828809946CA
:1031300015460E4607464FF0000A4FEA58042A7813
:103140004AB1B8B231464B46CDE900A8FFF71AFFA5
:1031500027440135F3E7BDE8FC8700002DE9FE4F69
:103160001C469046894683465D0800260FF2300AC9
:103170000027072F08BFBDE8FE8F781EC0B20528C4
:103180000AD81AF800200BEB060049464FF6FF73E9
:10319000CDE9008401F0D5FB2E440137E9E700BFFB
:1031A00056312E302E39000011494FF400424FF4B1
:1031B00080634A60C1F8FC030C480360C1F8003822
:1031C0000A60704710B50949094B4FF480524FF41B
:1031D00000440A605C60C3F8FC034FF48060086040
:1031E000C3F80008C3F800281C6010BD141001408B
:1031F000100801402DE9F04F95B0DFF8489E99F88E
:103200001C0001282BD0002841F01B83DFF838BEBA
:103210009BF8E60302282BD1DBF8B040D44901F03B
:1032200097FD00286FD0D24901F0CDFC002840F076
:10323000B7809BF8C003002840F0B28099F82400C2
:10324000002840F0AD8099F82500013089F825006C
:10325000C0B2032824BF0120A9F824006FE099F828
:103260003000012808D1DFF8E00D90F8D1031CE010
:10327000002089F8240093E07F2000214FF4F072B1
:103280001E230090002003F0F9FA40F29F1008215D
:1032900043F286121023FFF761FF0120DFF8A81D1B
:1032A00089F83000FF2081F8D103DFF89C8D98F871
:1032B000D01388420FD03F20012908BF3E20009044
:1032C0004FF4C77006211522152303F0D7FA98F89A
:1032D000D00388F8D10398F8C90398F8CA1381423B
:1032E00034D0012803D098F8CB13012929D17020BC
:1032F00003212A221823009040F2631003F0BEFA43
:1033000098F8C90320E099F82300013089F82300D8
:10331000C0B215280AD3002089F8230099F82200AA
:10332000013000F0030089F8220001E099F8220042
:10333000002189F82410DFE800F0022A2628562010
:1033400026E0002189F8301088F8CA0398F8E603CF
:103350004FF6FF7B00F0FE0102294FF6FF7140F0AF
:103360008A8798F8C41398F8C5238A4200F0E2804F
:10337000032900F2D980DFE801F002CFCBCD012094
:1033800088F8E703D0E0582002E0592000E05720F9
:1033900000904FF4D77028212422222303F06EFAE4
:1033A0009BF8E80301280FD1DFF8A00C81694A1EC1
:1033B0000029826108DC00218BF8E8134FF4967134
:1033C000816117208BF8E60399F820109BF8C6035B
:1033D00019B108BB9BF8C2130CE00121012889F840
:1033E00020100CD0C0B99BF8C213012909D80220C3
:1033F0008BF8E6030020022938BF012002E00320F9
:1034000008E000209BF8E61301F0FE01022903D139
:1034100010B102208BF8E6039BF8E6039BF8E72344
:103420004FF6FF71824200F0D580DFF8202C514B1F
:103430008BF8E703D1815049FF22CBE90433CBF865
:103440003830CBF830308BF8B9238BF8CE238BF89B
:10345000D4238BF8C72389F81E20CBF81C10CBF897
:103460005410CBF8081001F09EFACBF89C10CBF862
:103470004410CBF8A410CBE92311CBF894109BF89F
:10348000C41309B18BF8C523A0F11D01CAB2202ACB
:1034900004D300F17F02D2B2012A22D899F8212068
:1034A00082B904201E214FF4F0724FF49173009002
:1034B000002003F0E3F9012089F821009BF8E603DE
:1034C000A0F11D01C9B2062904D3A0F12D01C9B292
:1034D0000D2911D800904F2046214FF4A172A52349
:1034E00076E00021009000204FF4F0724FF49173C9
:1034F00089F821101E216BE0A0F12301C9B2072930
:103500004DD8009050203B2140F23F12BB235FE09A
:10351000462002E0442000E0422000907B207B21F6
:10352000EB22672303F0AAF998F8C41398F8E6038E
:1035300088F8C51302284FF6FF7140F09C8698F872
:10354000C003022804D0012818D0002840F0548677
:1035500018200024342100224FF6FF73CDE90040EB
:1035600040F24510FFF796FDA9F8524000F044BE26
:103570000000A04200007A4400007F4398F8C20394
:10358000012802D198F8D90320B198F8C943022C38
:1035900040F0F0840020A9F8520000F02DBEA0F108
:1035A000810102290ED3A0F13B0102290AD3A0F127
:1035B0002B0101290ED80090482058214FF4A87201
:1035C000822305E00090092057214FF4E7728423FD
:1035D00003F054F999F8280001280DD0002840F094
:1035E0003C81BBF8BA0390B19BF8E663022E29D068
:1035F000032E2CD1192126E0BBF8BC0388B19BF81F
:10360000E663022E4CD0032E4FD1192149E099F8E0
:103610003100002800F08F8001384F4689F83100D2
:1036200079E0DBF89840DBF8A00001F0BAFA002856
:1036300040F0CB809BF8C403002840F00B81DBF8FE
:10364000B450CCE00521D0FA51F0ABF8BA03002019
:10365000DBF820504F46CBE90200CBE90400DBE960
:10366000064001F09EFA28B1DBF8240001F09CFA34
:10367000002850D19BF8CD03CBF82450CBF81C4048
:10368000002808BF254601F0C5FA0446022E38D0AE
:10369000032E40D101F03CF940F28910502136E070
:1036A0000521D0FA51F0ABF8BC039BF8C973022F87
:1036B00004D0F148CBF8B800CBF8A000DBE92640F5
:1036C000DBF8BC5001F06DFA30B1DBF8C00001F05E
:1036D0006BFA002840F0BE80CBF8C050CBF89C407D
:1036E000022F08BF2C4601F071FA0446022E17D0B3
:1036F000032E40F0AF8001F00BF94FF4CA70CD21DA
:1037000016E05E2001F068FA01F054F978214FF6D6
:103710006143FFF7BFFC97F82800B946411C9AE0C7
:10372000622001F044FA01F045F94FF487707821E6
:1037300043F67F438CE09BF8C4034F460028EAD150
:103740009BF8CD03DBF828600128029040F0478405
:10375000DBF80080C94940468946FEF7E9FFC84CBE
:103760002146FFF717F801F02CF90546CBF80400C5
:1037700030464946FEF7DCFF2146FFF70BF801F023
:1037800020F9FFF7B4F89BF8C9A30446B946BAF18B
:10379000010F40F06584BB4901F01BFA054601F0BA
:1037A000B4F8014601F015FA0446DBF8D000B3493D
:1037B000DBF84C60FEF7BCFFB149FEF7EBFF01F010
:1037C00000F90146204600F025BCDBE92D5001F050
:1037D000EBF9002100283ED19BF8C403D8BB9BF82D
:1037E000C0139BF8C2239BF8D9339BF8E603CBF8B0
:1037F000B850CBF8A040090608BF254682F0010169
:10380000DAB2114318BF2546C9F8705002280DD00E
:1038100003281FD101F0FEF90246202043F2861151
:10382000CDE900104FF4CA70CD210FE0602001F007
:10383000BEF9D9F87000FFF75AF80246502041F659
:10384000A301CDE900104FF4877078214FF6FF7384
:10385000FFF720FC002189F828109BF8E6030228D6
:1038600000F07681032840F0888199F81F0058B94C
:10387000002029214FF4BC72FA2300901220FFF798
:1038800048FB012089F81F00DBF800407E49DBF887
:10389000485001F078F99BF8C973012F18BF2046F2
:1038A000FFF725F80446FFF714F801462846FEF70F
:1038B000D9FF064601F0AEF90546002E08BF2546A1
:1038C0009BF8D903B421012808BF98219BF8C203B3
:1038D000012818BF98215BF80100FFF708F880461F
:1038E0009BF8C003002638B1DBF8B0006749FEF74B
:1038F0009DFF002800F04F814FF0000828B2FEF72E
:10390000E8FF63490546FEF79FFF624C00281CBF95
:103910000025C4F2FA3501F0CBF95F4A00281CBF3C
:103920000025C4F2C8252846214606F04FFFA9F815
:1039300058004046FEF7D6FF584901F080F90028AC
:103940001CBF0024C4F2483420460021FEF760FF6B
:103950000028534A18BF00242046002106F036FFF5
:10396000A9F85A0040F2651744F638494FF0000AAA
:10397000BA453DD00AF11200D846D344009684B22D
:103980000AF114009BF8EC109BF8ED3085B220464C
:103990002A46FFF76BFA9BF852129BF853322046E7
:1039A0002A460096FFF762FABAF5B27F14D04FF2BA
:1039B00060409BF8EE309BF8ED102A4600902046C0
:1039C000FFF754FA9BF854329BF8531220462A46CC
:1039D000CDF80090FFF74AFA9BF8ED000AF1010AD2
:1039E0008BF8EC009BF853028BF85202C346BFE7FA
:1039F000DFF8649EDFF87C6E002448F20F454FF03C
:103A00002A084727B9F858008BF85102B9F85A002C
:103A10008BF8B703BCB1052C44D004FB08F04FF47D
:103A2000BC720095283081B212200B46FFF71EFAB7
:103A300004FB07F02821FA230095123080B20246D9
:103A4000FFF714FA15E0122028214FF4BC72282346
:103A50000095B047122028211222FA230095B04782
:103A60001220FA2101F088F94FF4BC70282101F0EE
:103A700083F90134CEE700BF00007F43000010410E
:103A80000000A0400000F4C2000048C20000F04165
:103A90000000FA430000C8420000164400004843FA
:103AA00000007A4373202A212F221923009014202A
:103AB00002F0E4FEDFF8CC4D0C250FF6BC521520C9
:103AC000462101F04CF80FF6C0521520702101F08C
:103AD00046F80FF6C05215209A2101F040F80FF673
:103AE000C0521520C42101F03AF80FF6C05215203B
:103AF000EE2101F034F874202A21172217230090B8
:103B000040F25F1002F0BAFE0FF6AC524FF4B27002
:103B1000462101F014F80FF6A4524FF4B270702150
:103B200001F00DF80FF698524FF4B2709A2101F09F
:103B300006F80FF690524FF4B570C42100F0FFFF65
:103B40000FF684524FF4B870EE2100F0F8FF99E0C0
:103B5000DBE90045DBF8100001F023F888B9BBF879
:103B6000BA139BF8CD03CBE90445E9B140B3DBF8C8
:103B700020009F49FEF784FD1FE0002089F81F0008
:103B800080E0DBF8140001F00FF8BBF8BA1300284E
:103B9000E7D099B3E5E7022F7FF4B0AEDBF8BC00C5
:103BA000FEF7A5FE8046A9E69BF8C96358B1904987
:103BB00001F00FF8012E18BF28468E4C8E4D0AE0FA
:103BC000DBF8180005E08D4900F0DDFF012E18BF7D
:103BD00020468B4C8B4DFEF7D0FE02460B46284606
:103BE0002146FEF788FBFEF71AFD02466A202721D0
:103BF0004FF6A04300901A20FEF728FFDBF898400C
:103C0000DBF8A400DBF8B45000F0CBFF10B9DBF810
:103C1000BC600CE0DBF8A800DBF8BC6000F0C4FF7F
:103C200028B1DBF8AC003146FEF72AFE50BB0BF1A1
:103C3000A40070C09BF8C003012809D19BF8C203FF
:103C4000012805D19BF8D90310B9BBF8BC0328B1F2
:103C50009BF8C903022808BF3446254600F0DAFF66
:103C6000FEF7D0FC684B00F047FEFEF7D8FC02469A
:103C70006B204FF4E37140F25F43009040F2B910C3
:103C8000FEF7E4FE9BF8E603011F11F1020FC0F0FE
:103C9000C98046F269605D214FF481724FF49473DC
:103CA000ADF850003020109346F268531291CDE9E0
:103CB0000C21CDE907219BF8B813119213900E90B7
:103CC00009905A20ADF83C30C12306909BF8B90307
:103CD0000B9346F26743ADF82830884247D006ACD4
:103CE000012604F10805042E10D09BF8B903864282
:103CF00009D16F7AAB882A8835F8041C35F8080C8E
:103D0000009702F0BBFD14350136ECE79BF8B903D0
:103D100008B104280DD300253C2D0AD06619605B3C
:103D2000B3893289B188767C009602F0A7FD1435FC
:103D3000F2E79BF8B803411ECAB2022A0FD89000DE
:103D400050FA81F134F8210004EB8104A38922891F
:103D5000A188247C009402F091FD9BF8B803BC4933
:103D600000228BF8B90389F8292000F01CFE0028F6
:103D700056D099F82900002852D1DBE91A06DBF861
:103D80001850DBF82040FEF7B2FDADF8120000F04D
:103D9000E2FFADF81400DBF87000FEF7A8FDADF807
:103DA0001600DBF87400FEF7A2FDADF80C00DBF89E
:103DB0007800FEF79CFDADF80E00DBF87C00FEF706
:103DC00096FDADF8100000F025FF054600F0FEFE60
:103DD00000210DF1120203AB032917D032F8114074
:103DE000AC421DD033F8114001318442F4D117E0C8
:103DF0000000F4C2E3A5BB3FD9CEF753000048C290
:103E00009999C93F9A9999990000E43F9048CBE964
:103E10003500CBE93700CBE93900012089F82900CA
:103E20009BF8E60300F0FE00022840F09E80DBF8DD
:103E30006840DBF8D400DBF8745000F0B2FE20B12B
:103E4000DBF8E00000F0B0FE98B99BF8CD03012844
:103E500008BF2C4600F0BAFE00F0CCFE602000F057
:103E600034FEDBF86800DBF87410CBF8D400CBF834
:103E7000E010DBF86C40DBF8D800DBF8785000F09D
:103E800090FE20B1DBF8E40000F08EFE98B99BF8BC
:103E9000CD03012808BF2C4600F098FE00F0AAFED2
:103EA000C72000F012FEDBF86C00DBF87810CBF8CE
:103EB000D800CBF8E410DBF87040DBF8DC00DBF86E
:103EC0007C5000F06EFE20B1DBF8E80000F06CFEE4
:103ED000A0B99BF8CD03012808BF2C4600F076FE60
:103EE00000F088FE4FF4977000F0EFFDDBF87000F3
:103EF000DBF87C10CBF8DC00CBF8E810DBF8804076
:103F0000DBF88C0000F04DFE50B900F05FFE00F0D1
:103F100071FE8D2000F0D9FDDBF88000CBF88C001D
:103F2000DBF88440DBF8900000F03BFE50B900F075
:103F30004DFE00F05FFEF42000F0C7FDDBF88400CA
:103F4000CBF89000DBF88840DBF8940000F029FE05
:103F500058B900F03BFE00F04DFE40F25B1000F05F
:103F6000B4FDDBF88800CBF8940099F81C00013010
:103F700000F065BCD8F80000D8F82810D8F8187000
:103F8000CA46FEF7CFFBFEF7B2FC012C08BF323861
:103F900000B2FEF79EFC2F4905463846FEF770FB3F
:103FA00029468146FEF742FC2B4904463846FEF777
:103FB00067FB064634B930462946FEF753FC002815
:103FC00000F0D48030462946FEF722FC70BB012069
:103FD000D1468AF826006420AAF8520008E186F04B
:103FE0000040FEF784FC9BF8C9A3DBF80080044680
:103FF000B946BAF1010F40F0A280184900F0B5FCB3
:10400000054600F082FC014600F0E3FDDBF8486065
:10401000DBF8D010FEF734FBFEF769FC0546FEF72F
:1040200058FC00F058FE4FF0010A35E0484629469A
:10403000FEF70AFC0028D14640F0DA80002089F81B
:104040002600D3E008010020CC170020000000204B
:1040500000007F430000C8420000C8C2000048C200
:1040600000F053FC014600F0B4FD0446DBF8D0003C
:10407000E149DBF84C60FEF75BFBE049FEF78AFBA9
:1040800000F09FFC014600F07EFDFEF730FC054687
:10409000FEF71FFC00F01FFE10B100F05CFE0546AD
:1040A0001420414689F83100DBE90160FEF7E8FBA6
:1040B0009BF8E69338B1DBF80C003146FEF7E0FBE5
:1040C00000287FF428ABBAF1020FCBE9028615D0A5
:1040D0009BF8D303012811D197F832003C46002801
:1040E00063D002990BF11800012908BF0BF12000E1
:1040F0000068FEF7FCFB0546606700E07D67B9F1EC
:10410000030F0FD0B9F1020F7FF405AB5C2000F074
:1041100063FDB7F87420502041F6A301CDE90010EB
:10412000782108E0202043F28611AAB2CDE90010E0
:1041300040F2891050214FF6FF73FFF7EABA00F002
:10414000E4FB014600F011FCDBF8D010DBF848601E
:10415000FEF796FAFEF7CBFB0546FEF7BAFB0146E3
:104160003046FEF755FB002897D099E79AF82700CC
:10417000D146022836D1DFF8E406018A01390182EE
:1041800009B2002934DC3221018238462946FEF783
:10419000C9FAFEF7ACFB01B280EAE130A0EBE130F6
:1041A00000B20128D8BF012020E028466567FEF74D
:1041B00090FBDBF81860924904463046FEF760FA3F
:1041C0002146FEF74FFB002899D18E493046FEF775
:1041D00057FA2146FEF72AFB002890D1012087F8E4
:1041E00032008CE7022089F826006420A9F85200EA
:1041F00099F8260089F82700DFF86016B9F8520010
:10420000C98981423AD0C0B2642828BF64200128FD
:1042100098BF0120C0F16400FEF764FB7A49FEF705
:10422000B9FA7A49FEF784FAFEF761FBC0F58770A8
:1042300044F25071432384B20091CF203F212246A3
:10424000FEF767FE41F6A3003F214FF48772432338
:1042500000902046FEF75DFEB9F85220182000219C
:104260004FF6FF73CDE9001040F245103421FEF700
:1042700011FFB9F85210DFF8E405C18198F8E67330
:1042800007F0FD002D2804D1D8F82C50D8F8344080
:1042900007E0D8F81850D8F82040C8F82C50C8F8D3
:1042A0003440D8F83000D8F8386000F07DFC18B100
:1042B000304600F076FC28BB47F00200C8F83840D2
:1042C000C8F830502F281DD198F8CD0398F8DC633A
:1042D000002808BF2C4600F079FC0246202043F25B
:1042E00066114FF6FF73CDE90010F0B2022808BF47
:1042F0004FF4FC634FF487702F2F18BF5B46962155
:10430000FEF7C8FE99F82A0038BB0120D8F81860DB
:10431000D8E91A5489F82A00D8F80000FEF7E7FA1D
:1043200000EBC000052700F031FCC8F8040000F0E5
:1043300012FD00F0D4FAC8F8200000F06BFC00F089
:10434000CEFAC8F8740000F041FC00F0C8FA00F0A2
:10435000BCFC00F0C4FAC8F87C0098F8CDA398F82B
:10436000CE43544529D0D8F80000CB46D8F8186081
:10437000D8E91A59FEF7BBFA00EBC000052700F098
:1043800005FCC8F8040000F0E6FC00F0A8FAC8F844
:10439000200000F03FFC00F0A2FAC8F87400484684
:1043A000D9464FF6FF7BFEF7A2FA00F098FA00F02C
:1043B0008CFC00F094FAC8F87C0099F81D000628DF
:1043C00000F23C82DFE800F00484244809A2BF0028
:1043D000544540F0CB8001202EE298F8E6033728C0
:1043E00040F0168198F8DD03012800F007810028CD
:1043F00040F01F826F2002E1000010410000A04049
:10440000000020C1000020410000C84200007C42A2
:1044100098F8E603232840F0A78098F8DF030138D6
:10442000C1B2032900F2A080C000DFF83C5478211B
:1044300014221423C4B2BE4800F098FCBD4EA12142
:104440001422142306F57F4000F090FC26FA04F0B5
:10445000CA2114221423B8E198F8E603A0F123013D
:1044600000F09AFA00F2E581012202FA01F140F629
:104470006162114200F0DD812D2808D0352806D078
:10448000372802D198F8DD1309B1392804D14E201C
:1044900000F0B9FB98F8E6032F2805D0372808D19B
:1044A00098F8DD13012904D1512000F0ACFB98F8F5
:1044B000E603232840F0BD8198F8DF03512104284A
:1044C00008BF4E210091C420FF2158222D2337E040
:1044D00098F8E603A0F11D0100F05EFA00F2A98150
:1044E000012202FA01F140F67742114200F0A18167
:1044F0001D2840F0BA8098F8CC03002800F0AC806A
:10450000012840F0B2808924B121A7E098F8C003C7
:1045100099F81E10814200F08C8198F8C913022985
:1045200000F0878198F8E613002889F81E004CD126
:1045300002294AD14020282196224B230090A52011
:1045400002F09CF975E199F82D2098F8C913022A18
:1045500022D1022920D098F8E60389F82D100228EC
:1045600040F051817C2047E1032065E198F8E603A3
:104570002F2839D0032800F02B812D2834D0022891
:1045800040F05381BAF1010F00F04781BAF1000FFA
:1045900040F04B814C2041E10020022A00F04C8188
:1045A000022940F04981022089F82D0098F8E6039D
:1045B000022840F0288198F8D603002800F01881DE
:1045C000012840F018817E2013E1012808BF02294C
:1045D00040F02F8198F8D603002800F0358101289B
:1045E00040F035817E2030E1BAF1010F00F0F88013
:1045F000BAF1000F40F019814820F2E06C200090E1
:10460000CD20BE214622202302F038F998F8E60397
:10461000352840F00E81EC20832143F266122023DE
:104620004FF0EC0843F266152026FEF797FD0027B1
:104630008BA4072F00F0FD80781EC0B2052809D892
:10464000225C08EB0710B5214FF6FF73CDE9005649
:1046500000F077F90137ECE7B12489215A2000F006
:1046600037F95B20214600F033F998F8E6031F285C
:1046700012D198F8CF03012803D0A8BB8924B12117
:1046800001E0B12489215A2000F022F95B20214663
:1046900000F01EF998F8E603212810D198F8D2030B
:1046A00020B101280BD18924B12101E0B124892155
:1046B0005A2000F00DF95B20214600F009F998F826
:1046C000E603312812D198F8D503012803D0E0BBC6
:1046D0008924B12101E0B12489215A2000F0F8F8A1
:1046E0005B20214600F0F4F898F8E603332810D157
:1046F00098F8DB03012803D058B98924B12101E0DF
:10470000B12489215A2000F0E3F85B20214600F013
:10471000DFF898F8E603252819D198F8E103022874
:104720000AD0032840F085808924B12106E000BF2B
:10473000797A7A7A7A7A797AB12489215A2000F0C2
:10474000C7F85B20214600F0C3F898F8E603272855
:104750001ED198F8E30300F001FB6AD8C000424D77
:10476000752125221E23C4B2404800F0FFFA404EB6
:104770009E2125221E2306F57F4000F0F7FA26FA37
:1047800004F0C72125221E2300F0B1F898F8E603B3
:1047900029284ED198F8E50300F0E0FA49D8C00086
:1047A000314D752125221E23C4B2304800F0DEFAB7
:1047B0002F4E9E2125221E2306F57F4000F0D6FABB
:1047C00026FA04F0C72125221E2300F090F830E0DD
:1047D000BAF1010F19D0BAF1000F26D14A2015E025
:1047E000492000904FF4A07099211C221B231AE04D
:1047F0007B2000F0F8F97520009091205021BE2216
:10480000232302F03BF8002016E04B2000904FF4E9
:10481000DC7054211A22182305E04D200090C82096
:10482000AA211422152302F029F898F8CD0388F85C
:10483000CE0399F81D00013089F81D00002089F889
:104840001C0015B0BDE8F08F7B2000F0CCF90348C8
:10485000A0F80EB0EDE700BF080100200000002026
:1048600056312E302E3100007D6800085A5B5B0007
:104870005B5B5A006D2E0008353030283933322901
:104880000000000027310008343030283735322945
:104890000000000033303028353732290000000096
:1048A00032303028333932290000000031303028CE
:1048B0003231322900000000323030003135300012
:1048C000313030003530000030000000FEE7704726
:1048D00025221E2300904FF4AA7001F0CFBF00EBF9
:1048E000C000B0FBF7F0203080B2FDF7FBBFC0B2D4
:1048F00000904FF4AA7028470022FDF7FCBC00226C
:10490000FDF752BC2946FDF791BF2046FDF7E1BFF8
:10491000202043F28611A2B2CDE900107047B4F80E
:1049200060000130A4F8600080B270475846FDF77F
:10493000A7BED9F820004FF042417047656005F0EE
:104940002DBC80B2FEF71EBBBDF808100A31ADF8D1
:1049500008109DF80B1001317047CDE90144ADF806
:1049600014407047042002F05DBB4046FDF788BE4E
:104970004FF47A704FF07E51704701F0070125F433
:10498000E04545EA013170472D2087F8E603002015
:1049900070470446FDF73CBFCAB2C90141EA520163
:1049A000C9B20B297047CBE93511CBE93711CBE9F7
:1049B00039117047502041F6A301A2B2CDE9001091
:1049C00070474FF08441FDF75BBE81F82D20002138
:1049D000317202210228704700BF00BF00BF00BF34
:1049E00000BF00BF00BF00BF00BF00BF704797F807
:1049F000E60300F0FE0102297047C9F82410C9E956
:104A00002311C9E92512C9F89C1089F8B803704729
:104A1000C4F8006825606560C4F8FC03704750F86E
:104A2000210052F821100068C9F818000968C9F877
:104A300098107047A7F8BC03D7F89800FDF720BE80
:104A4000A7F8BC03D7F8BC00FDF71ABEA9F8BC0351
:104A5000D9F8BC00FDF714BE01208AF80D00002033
:104A60008AF83200502068614FF47A70A9F8BA03CE
:104A700099F8CD030128704707F18C0002EB810201
:104A8000704709F18C0002EB81027047BDF80810F5
:104A90009DF807201144B142704720464FF07E51E7
:104AA000FDF7EEBD00200121102284F82004C4F897
:104AB0001804C4F81C0404F5826002F08DBA4FF0AB
:104AC0004241C9F82000FDF7DBBD4FF48C71FEF7C1
:104AD000E1BA0A6842F001020A60704787F8E6030B
:104AE00097F8E10397F8E31397F8E52387F8E003D5
:104AF00087F8E21387F8E423704797F8B813C7F8EC
:104B0000984003297047686101208AF80D004FF42E
:104B10007A70A9F8BC03D9F89800FDF7B1BD97F8F1
:104B2000B813C7F8BC4003297047C4F81014C4F880
:104B3000140404F5A2604FF48171FDF796BD44F6AC
:104B400038430095204799F8B813C9F8BC400329A9
:104B5000704799F8B813C9F89840032970474FF285
:104B60006043009520470021017299F8C91302297A
:104B7000704780F83010C185816280F82C10704732
:104B80002046FDF76FBE2046FDF77ABDB0FBF7F07B
:104B9000203080B2FDF7A6BE4FF042413862FDF7EB
:104BA0006FBD2146FDF76CBE2946FDF769BED421D5
:104BB0007B22192300904FF4877001F05FBE786369
:104BC0002846FDF75DBD2046FDF73EBE2046FDF7B9
:104BD0008EBE2846FDF754BDD2217B221C230090B7
:104BE0005A2001F04BBE0090A520282196224B238D
:104BF00001F044BE0246182043F286114FF6FF73BF
:104C0000CDE900107047FA2158222D230090C420CE
:104C100001F034BE2846FDF76ABE0446FDF706BE25
:104C200001462046384799F8E60300F0FE000228C6
:104C3000704700248AF83240C9F8BA037047044626
:104C4000FDF702BE89F8BE43C9E92300C9F8940004
:104C5000D9F898007047286840F001002860704734
:104C60008DF80B109DF80B1070470020307281F802
:104C700032004FF47A70A7F8BA0397F8CD030128F1
:104C8000704787F8E6130238B0FA80F0400987F8D9
:104C9000C60370479AF80E1001297047013A013B8C
:104CA00092B29BB2FEF766B80130C1B203297047D9
:104CB00028462146FDF7ACBD05F5A2604FF4817191
:104CC000FDF7D3BC0446FDF7CDBDC8F87800D8F891
:104CD0007000FDF70CBE01463046FDF7C3BD01462E
:104CE0003046FDF7A3BD0A6842F001020A60010EDA
:104CF00084F8240484F82114010C84F82214010A95
:104D0000F02084F825047047272087F8E60397F8F9
:104D1000E20387F8E3037047252087F8E60397F856
:104D2000E00387F8E103704797F8C903022870474A
:104D3000292087F8E60397F8E40387F8E50370472E
:104D400097F8DC030228704799F8C90302287047D6
:104D50002046FDF76BBD3046FDF7C9BD0138C1B235
:104D6000022970470020A4F860007047E040C0B2FC
:104D700000904FF4AA7028474FF4BC72FA230095B4
:104D8000304786F8E40304F12600284786F8E2035A
:104D900004F12400284786F8E00304F122002847A4
:104DA00086F8C90304F12000284786F8D90304F1E6
:104DB0001E00284786F8D30304F11C00284786F814
:104DC000D60304F118002847B8633863B869FDF7C3
:104DD000A9BC86F8D00304F116002847C9F89C0046
:104DE000C9E92300C9F89400C9F82400C9F81C00D7
:104DF0000020C9F8BA13704786F8CD0304F11400F7
:104E0000284786F8C60304F112002847C6F8880030
:104E100004F110002847C6F8840004F10C0028476C
:104E2000C6F8800004F108002847D7F82C802846EF
:104E3000FDF77EBC4FF48073CDF8009050470446D8
:104E400028462146FDF700BD206820F001002060C3
:104E500010BD95F83500013885F83500000670471B
:104E6000704770472DE9F041DFF87C6B30780138EE
:104E70003070000648D1DFF8744B1420307094F87D
:104E8000D003012813D1DFF8685B95F834000228BD
:104E90001DD001280ED058BB02F092F8307A0128BC
:104EA00020D028BB012085F8340002201EE002F04B
:104EB00087F829E002F08AF8FFF7CBFF18D1317AA2
:104EC000022085F8340089B101290ED010E002F0EB
:104ED00077F8FFF7BEFF0BD102203072002085F873
:104EE000340003E0012085F83400192085F83500EE
:104EF00094F8C40340B1707801387070000603D193
:104F00000120307228207070DFF8207D97F8C003F0
:104F1000022809D1FC6D00212046FDF7B1FC18B92B
:104F2000C049FFF730FEF865B0890138B081000450
:104F300041F006800120B081DFF8F80C00F1280470
:104F40002046FDF77AFE01462046FDF7D1FD0138E7
:104F5000092800F27180DFE800F0051C6F6F3557FB
:104F60006A0D272E97F8E603411F162900F250819B
:104F7000022015E0DFF8B80C90F82E1000295BD164
:104F8000012180F82E10FFF732FD40F0EA82002068
:104F9000F0E297F8E603411F162900F2BB800320D8
:104FA0003071D9E0307247E0FFF721FD40F0DE803C
:104FB0000720307163E0FFF71AFD40F0FD80082004
:104FC000307181E097F8E603A0F12301062940F251
:104FD0005C81811E0229C0F0BF801B2800F0D783AE
:104FE0002F2800F0E183372800F0D483392840F0DF
:104FF000BC8397F8C603002800F0FC84012840F029
:10500000AB80032000F0F7BCFFF7F1FC14D194490A
:10501000FF22C7F8BA139349C7F89C10DFF8101C99
:10502000FFF7D3FC08BF0321FFF72BFE04E0DFF8F6
:10503000000C002180F82E103079172800F23885F6
:10504000DFE810F01800DF019E014A025302A501BB
:1050500027021D00420062026D01BD0177019D0023
:10506000C300400236053605360585027B02300155
:1050700036059401052087F8E60300F017BD97F880
:10508000C403002840F01285DFF8A41BFFF7EDFDF4
:1050900000F03C83002840F05183B8697249FDF765
:1050A000EFFA7249FFF7B9FD10B9704C0020F861B2
:1050B0006F492046BC61FDF73BFB6E49FDF76AFB7B
:1050C000FFF77FFC386239E397F8C403002840F00B
:1050D000ED84DFF85C1BFFF7C8FD00F03C8300287F
:1050E00040F0B683B8696449FDF7CAFA6349FFF72F
:1050F000E9FD10B9614C0020F8615D492046BC61B2
:10510000FDF716FB5B49FDF745FBFFF75AFC3862DC
:1051100000F09EBBA0F11D011A2900F25483DFE8C4
:1051200011F0B2001B0068031B006E031B001D0082
:105130001B00DE031B00E5031B000F041B007E03A6
:10514000830374031B00D8031B0071031B00880337
:105150001B001B001B006B03002023E797F8DF03F5
:105160000138010608BF042000F0F8BB2F287FF4A7
:1051700063AFFFF7E5FD7FF45FAF0D20307197F867
:10518000CD03012800F0F981002840F08F84BC692C
:105190003749FD6A2046FDF7CBFA3649FDF7FAFAA2
:1051A000FFF70FFC3049FFF70AFD34490546FFF7CA
:1051B000EAFCFFF744FE25E02F287FF43DAFFFF720
:1051C000BFFD7FF439AF0E20307197F8CD03012871
:1051D00000F0DF81002840F06984BC692449FD6A41
:1051E0002046FDF7A5FA2349FDF7D4FAFFF7E9FBBE
:1051F0002149FFF7E4FC22490546FFF7C4FC0446B9
:10520000FFF756FD002818BF2546FD6200F04EBC92
:10521000A0F11D011A2900F2DD820FF20C00D0E886
:1052200011F000BF000080BF32003100E802310001
:10523000EE02310096033100A10331007903310001
:10524000B3033100FE020303F40231006C033100AA
:10525000F10231000803310031003100EB0200BFE0
:10526000E803E80300007F43000020410000FA4308
:10527000000010410000A040000020C10000C84212
:105280000000C8C268E709208AE6DFE811F0710271
:105290006E0207006E0207006E0207002320FFF770
:1052A0001DFC59E7D048D14CD14DD24900230122F1
:1052B00087F8E82387F8B833BB6287F8D83387F8D4
:1052C000D63387F8D223A7F8CC33A7F8C83387F8AA
:1052D000C6333B6587F8DB3387F8D93387F8D523A6
:1052E00087F8D323C7F89800C7F88800C248C7E9F1
:1052F0002054C24CB96138674FF48070C7E91A4135
:10530000A7F8CF034FF00130C7F8E20340F20220C4
:10531000A7F8E003BA48C7F8BA0300F0C7BB97F88C
:10532000CF03002800F04781012840F0BF83002010
:1053300042E197F8CD03012800F04381002840F0B6
:10534000B583BD69AF49FFF770FDAF49FDF722FA9C
:10535000FFF737FBAD49FFF732FC054640462946CB
:10536000FDF780FAAA490446404644E097F8DD0379
:10537000002800F03481012840F0988300202FE1BC
:1053800097F8E603811C1A2888BF0521AAE097F840
:10539000C403002840F08A83DFF89418FFF765FC07
:1053A00000F06382002840F04983BC699949FFF707
:1053B000CFFC002800F02883FFF76FFB27E397F866
:1053C000CD03012800F03281002840F06F83BD69D1
:1053D0008C49FFF72AFD8C49FDF7DCF9FFF7F1FA5C
:1053E0008D49FFF7ECFB05464046FFF78BFA044674
:1053F00040464FF07E51FDF743F9002C08BF284688
:1054000032E197F8E613481F362800F2F882DFE809
:1054100010F037004D03E4064D03DD064D03F106A1
:105420004D03A3064D03C4064D03B4064D030E07FA
:105430004D03EE064D0315074D03EB064D034D03DB
:105440004D03F7064D0324074D031B074D034D0382
:105450004D034D034D034D034D034D034D032D07E8
:10546000AD0639074D03D4064D03BB064D030507B2
:105470004D0336074D034D034D034D034D03F80215
:105480001D2087F8E603FFF74FFC08BF97F8CB0312
:10549000ACE197F8C403002840F00883DFF89017C8
:1054A000FFF7E3FB00F0EB81002840F0EB82BC69E2
:1054B0005949FFF765FB002800F0CA825449FFF7FD
:1054C00062FBC8E297F8D203002800F0CF800128E1
:1054D00040F0EC820020CAE097F8E603811E06281F
:1054E00038BF1B2187F8E613E0E297F8C6030128CE
:1054F00000F0C280002840F0C28097F8C203012863
:1055000000F2BD800220B8E097F8CC03012800F03B
:10551000E280002840F0CA82FFF706FC40F061817B
:105520000120002187F8CC0340F2FF10A7F8CA033E
:10553000DFF8FC0680F83010B8E297F8DB030128AA
:1055400000F0D880002840F0B1820120D3E097F825
:10555000D503012800F0D480002840F0A782012064
:10556000CFE0411F372901D3812804D197F8E80300
:1055700008B904203071012014E5786B27493C6A92
:10558000FDF77EF826490546FFF7FDFAFFF757FCC1
:105590000BE0786B23493C6AFDF772F82249054617
:1055A000FFF7F1FA0446FFF783FB002818BF2546F2
:1055B00028467D634EE0012087F8CD0387F8CF03AE
:1055C00074E2386A18497C6BFDF75AF805462046A4
:1055D0002946FDF747F90E498046204633E0012071
:1055E00087F8DD0362E200BF000020420000F041C6
:1055F0000000A0410000BE430000C8430000AF43CC
:10560000E803E803000010410000A0400000C8C209
:10561000000080BF0000FA430000C84200002041A3
:1056200000005443000020C1000054C3386AE3491D
:105630007C6BFDF725F805462046FFF763F98046A9
:1056400020464FF07E51FDF71BF8B8F1000F08BF60
:10565000284678634FF04241FDF712F8D849FDF72C
:1056600067F8D849FDF796F8F8621FE2012087F83D
:10567000D00387F8D20319E2032087F8E603DFF8A6
:10568000740D90F82F10012909D100214FF60172F5
:10569000A0F82F10A7F8C92380F8311010E00021DE
:1056A00080F8311097F8C913022909D14FF47A71A3
:1056B000A7F8BC13FF2180F82D1007F19C0007E02C
:1056C000C148C7F89C000020A7F8BC0307F1A00060
:1056D000BD490160EAE1FFF727FB40F08480FF212C
:1056E0000020A7F8CA13DFF80C1D87F8CC0381F857
:1056F0003000DBE1002087F8D90387F8DB03D5E130
:10570000002087F8D30387F8D503CFE1386AAF4983
:10571000FCF7B6FFAE49FFF780FA10B9AC4C002099
:10572000786220464FF042413C62FCF7A9FFA44951
:10573000FCF7FEFFA349FDF72DF8B86197F8B81301
:10574000032900F2B081FFF797F9DFE811F0AF010C
:10575000AA01A501A8013C6A9E49FFF711FA002899
:105760006AD09D49FFF70FFA69E00120FFF718BCE6
:1057700097F8DF03013803283FF6EEACDFE810F0BE
:1057800004007A044E045504FFF7C6FAE4E404204A
:10579000FFF706BC97F8DD03012800F00B81002815
:1057A0007FF4DAAC172026E197F8DC03012871D1E9
:1057B0000220B9693A6A87F8DC038348C7E90B100D
:1057C000C7E90D20C8E402380228BFF4C5AC0620A2
:1057D000FFF7E6BB02380228BFF4BEAC0520FFF796
:1057E000DFBB012000E0002087F8C90387F8CC0365
:1057F0005CE10A20FFF7D4BB1720FFF7D1BB0F20D5
:10580000FFF7CEBB1320FFF7CBBB97F8DC030028D4
:105810007FF4A2AC2F2087F8E603012076E0012078
:1058200087F8D6032C20E6E0002087F8D6032B204B
:10583000E1E01420FFF7B4BB002078625F48FFF777
:10584000ABF95F49FCF774FF5E49FCF7A3FFB86151
:1058500097F8B813032900F22681FFF70DF9DFE866
:1058600011F0250120011B011E013C6A5849FFF778
:105870006FFA002800F0D680FFF70FF9D5E03C6AF8
:105880004E49FFF77DF9002800F0F0805349FFF7FB
:105890007AF9EEE00120D7E90A4187F8DC034A48AB
:1058A000FFF792FA0146FFF76EF94D49FFF7C7F986
:1058B0004C4900281CBF0024C4F2C8242046FCF731
:1058C000A7FF00281CBF0024CCF2C824BC62FFF74D
:1058D00043BCFFF735FA14D10C20FFF761BB97F8F2
:1058E000E103FFF73BFA38BF032041E097F8E303F9
:1058F0000138010608BF032012E0FFF721FA00F08B
:10590000F18401287FF428ACFFF73EF887F8DC0328
:10591000FFF722BC97F8E303FFF7C6F988BF012021
:1059200087F8E303C0B2032800F0C584022800F022
:10593000C084012804BF012087F8E203FFF70CBCF4
:1059400097F8E5030138010608BF032022E097F825
:10595000DF030130C1B2042988BF012087F8DF03CB
:10596000FFF7FABB97F8E103FFF79EF988BF022023
:1059700087F8E103C0B2032800F04B8302287FF4CC
:10598000EBAB022000F046BB97F8E503FFF78CF97C
:1059900088BF012087F8E503C0B2032800F099848E
:1059A000022800F08D8401287FF4D6AB012000216D
:1059B00000F088BC1520307139201CE000005443F1
:1059C0000000A0400000104100007F43000048425A
:1059D0000000694400007D43000024C2000080BF35
:1059E0000000C8420000C8C200000020CC17002000
:1059F00008010020022087F8E603FFF7ADBB8129EC
:105A000054D11920FFF737BB0020F8619848994915
:105A1000B861FCF78DFE9849FCF7BCFEFEF7D1FF9C
:105A200038620BE0002078629448FFF7B5F892499D
:105A3000FCF77EFE8F49FCF7ADFEB86197F8B8130E
:105A4000032930D8FFF718F8DFE801F0302B2629BA
:105A50000020F8618A488749B861FCF769FE8649E9
:105A6000FCF798FEFEF7ADFF38620BE0002078628D
:105A70008448FFF791F88049FCF75AFE7D49FCF70E
:105A800089FEB86197F8B81303290CD8FEF7F4FF24
:105A9000DFE801F00C07020507F1900001E007F1D3
:105AA000940079490160002087F8B803162030710E
:105AB000DFF898482046FDF7C0F801462046FDF77C
:105AC00017F80138092800F27381DFE810F00A00A6
:105AD0002300710171014B006B007F0013002C004B
:105AE0003C00FEF784FF7CD1FFF71EF914BF0120B4
:105AF000052026E0DFF8400D90F82B10002940F03B
:105B00005781012180F82B10FEF771FF40F079805A
:105B100000207FE0FEF76BFF5ED1FFF705F914BFB1
:105B2000022006200DE097F8E60300F0FE000228B0
:105B300040F03C8197F8C9030238B0FA80F0400980
:105B40008000F07032E197F8E60300F0FE000228D2
:105B500040F02C8197F8C9030321022808BF0721D0
:105B6000F17023E197F8E603A0F1230106293ED95D
:105B7000811E0229C0F01A811B2800F0C3802F2843
:105B800000F0CB80372800F0BF80392840F0AA8091
:105B900097F8C603002800F03882012840F00681FB
:105BA000032033E2FEF723FF40F002813749FF2252
:105BB000C7F8BA133449C7F89C10DFF87C1CFEF70D
:105BC00004FF08BF0321FFF75CF8F1E0DFF8680C81
:105BD000002180F82B10EBE0411F16291DD803206F
:105BE000E3E0411F162900F25A800220DDE0DFE8E1
:105BF00001F07B790479047904002320FEF76EFF1D
:105C0000D4E0411F372901D3812804D197F8E80354
:105C100008B9042030710120C9E01D381A2800F2AB
:105C2000C5800FF21401D1E810F000BFCC1700209E
:105C3000080100206C0000205B00C100BF00C10013
:105C4000BD00C1003300C1003102C1004B02C100E0
:105C50003802C100AB00B000B500C1002C02C10089
:105C6000A900C100A700C100C100C100A50000BF7C
:105C70000000FA43000010410000A0400000694409
:105C80000000C8420000544300007F43E803E803DB
:105C900097F8DF030138010608BF042044E21D38ED
:105CA0001A2800F28380DFE810F01B0081007F00DB
:105CB00081007D00810038028100120281002302F0
:105CC0008100420281006B00700075008100FF01BD
:105CD000810069008100670081008100810065000A
:105CE000092062E0012060E097F8DF030138032813
:105CF0005CD8DFE810F00400C3019701BD01FFF795
:105D00000BF853E0042050E097F8DD03012800F081
:105D1000788100284AD1172078E197F8DC03012820
:105D20000AD10220B9693A6A87F8DC03C048C7E99A
:105D30000B10C7E90D2039E00120D7E90A4187F8A7
:105D4000DC03BB48FFF740F80146FEF71CFFB949EA
:105D5000FEF775FFB84900281CBF0024C4F2C82410
:105D60002046FCF755FD00281CBF0024CCF2C824B7
:105D7000BC621BE0172018E0142016E0132014E08A
:105D8000012087F8D6032C2040E1002087F8D603B5
:105D90002B203BE197F8DC0340B92F2087F8E6037E
:105DA00001208AE10F2000E00A20307100203072CB
:105DB000F078072800F2C480DFE800F0047632496A
:105DC0001B8BA0604FF47A709C49FEF733FE9C4910
:105DD000FEF778FF00281CBF0024C4F22034FEF731
:105DE0008CFE00F2A880FEF747FEDFE801F0A7A2D4
:105DF0009DA04FF47A709149FEF722FE9049FEF77C
:105E0000C8FD18B98E4C0020C7F8C000FEF787FE09
:105E100000F29180FEF730FEDFE801F0908B86897A
:105E20004FF47A708749FEF705FE8449FEF7F5FEC8
:105E300000281CBF0024C4F2A004FEF75EFE00F29E
:105E40007A80FEF719FEDFE801F079746F724FF483
:105E50007A707D49FEF7EEFD7849FEF7DEFE0028F8
:105E60001CBF0024C4F2A004FEF747FE00F26380CA
:105E7000FEF702FEDFE801F0625D585B4FF47A70D6
:105E80007149FEF7DDFD6D49FEF7D9FE18B96B4C7F
:105E90000020C7F8C000FEF742FE4CD8FEF7ECFD2C
:105EA000DFE801F04C474245FEF762FDFEF7C2FD18
:105EB0006349FEF707FF00281CBF0024C4F220340A
:105EC000FEF71BFE37D8FEF7D7FDDFE801F03732CB
:105ED0002D30FEF74DFDFEF7B3FD5949FEF759FD94
:105EE00018B9574C0020C7F8C000FEF718FE22D89A
:105EF000FEF7C2FDDFE801F0221D181B4FF47A7097
:105F00005049FEF79DFD4D49FEF799FE18B94B4CDF
:105F10000020C7F8C000FEF702FE0CD8FEF7ACFD6B
:105F2000DFE801F00C07020507F1900001E007F13E
:105F300094003F490160002087F8B8030820F07002
:105F4000708901387081000409D14FF47A70708132
:105F5000DFF8E408C16DC7F8B0100021C165DFF8B3
:105F6000D858287888BB102001F090FDA887A88F0A
:105F7000FCF748FB354A364BFCF7BDF9354BFEF7CD
:105F8000BBFC354A354BFCF70FF9354A354BFCF76E
:105F900024FA354BFEF7B3FCFCF702FD3349044607
:105FA000B864FCF7C5FB2549FCF7F4FBFEF709FDD7
:105FB000E549F864FEF7E4FD38B920460021FCF716
:105FC00027FC10B901203C602870286EE04C01309D
:105FD00028662069804794F83500012809D194F893
:105FE000340018B1013884F8340002E0022084F84B
:105FF000350094F8440010B1013884F84400BDE83D
:10600000F08115203071392000E0022087F8E60386
:10601000CCE6032087F8E003FFF79EB8FEF788FE82
:10602000FFF79AB8FEF784FEC0E60B20FFF737B9FA
:1060300000007F430000C8420000C8C20000A0402A
:1060400000002043000080BF0000A0C052B81E85A1
:10605000EB510A400000303F295C8FC2F528F4BFA5
:1060600033E197FA7953713F000018400000104166
:106070000B20C3E5FEF748FEFFF76EB8FEF744FEBF
:1060800094E6FEF75DFE13D10C208EE697F8E1034F
:10609000FEF764FE38BF03201FE097F8E5030138E0
:1060A000010608BF032048E0FEF74AFE00F02F81FA
:1060B00001287FF47BAEFEF767FC87F8DC0375E60A
:1060C00097F8E3030138010608BF032016E097F8AC
:1060D000E103FEF7E9FD88BF022087F8E103C0B2C3
:1060E000032800F0FB8002287FF460AE0220F6E077
:1060F00097F8E303FEF7D8FD88BF012087F8E30394
:10610000C0B2032800F0FB80022800F0EE800128D6
:1061100004BF012087F8E20348E697F8DF03013067
:10612000C1B2042988BF012087F8DF033EE697F853
:10613000E503FEF7B9FD88BF012087F8E503C0B28B
:10614000032800F0E080022800F0D18001287FF4CD
:106150002DAE01200021CCE097F8D603002800F0F6
:10616000D880012840F0D8802C21D3E097F8D803BC
:10617000012840F0818001207CE0312087F8E6038F
:1061800097F8D303FFF7BFBA97F8D503012898BF54
:1061900087F8D3031120FEF76EBFFEF7F5FB87F8F3
:1061A000DC0397F8C90301287FF480AC91480121F2
:1061B000A0F82F104FF47F4077E0FEF7C1FD00F00C
:1061C000AF8001287FF472AC0220AAE0212087F87A
:1061D000E60397F8D003FFF74CBA1F2087F8E603D1
:1061E00097F8CD03FFF7EAB98120FEF744BF3520C9
:1061F000FEF741BF042087F8DF032320FEF73BBFF3
:1062000097F8CC03012800F0908000287EF432AF8C
:10621000FEF78AFD40F0918000208AE097F8DB03CA
:10622000012898BF87F8D9031320FEF724BF332035
:1062300087F8E60397F8D903FFF75FBA002087F8DD
:10624000DD033720FEF717BF97F8D203012898BF68
:1062500087F8D0030920FEF70EBF97F8CF03012877
:1062600098BF87F8CD030720FEF705BF97F8D8033E
:1062700010B9002087F8D6030D20FEF7FCBE1520CC
:10628000FEF7F9BE97F8DC0300287FF40FAC0F206F
:1062900087F8E603574890F82F1001297FF406ACE1
:1062A0000021A0F82F104FF60170A7F8C903FFF7DF
:1062B000FDBB022000E0032087F8E203FEF74CBF9D
:1062C0000220012187F8E4034A4880F82C10FEF7E9
:1062D00043BF032087F8E403FEF73EBF032087F89F
:1062E000E00363E50B20FEF75BBE022008E002201E
:1062F000012187F8E4033F4880F82C1056E503207D
:1063000087F8E20352E5032087F8E4034EE50B200B
:106310004BE52B2187F8E61387F8D803FFF7C6BBB8
:10632000012087F8DC03FFF7C1BBFEF7FDFC06D1B7
:10633000012087F8CB03FEF79DBE002000E001207E
:1063400087F8C903FEF796BE00004842CC00002043
:10635000880100201848C16941F08051C161174986
:106360000A7842F004020A70C16921F08051C161CB
:10637000016841F00101016001688907FCD54168AD
:1063800021F003014160416811F00C0FFBD101685D
:106390000B4A114001600021416041F61071C16259
:1063A0004FF4801101634FF41F01816005484FF0E5
:1063B00000610160704700BF001002405070004053
:1063C000FFFFF2FE08ED00E0B0B5094C6068800701
:1063D0000CD52068800709D5064D4FF07E51E86D39
:1063E000FCF74EF9E8656FF002006060B0BD00BFD9
:1063F0000C4C0140080100202DE9F04F85B0B44F4E
:106400003869C00700F06081DFF8408998F8E90337
:10641000012811D1DFF8209499F8120001280FD13A
:10642000DFF83C4BAB4D666D29463046FCF71AFA57
:1064300068B965652E460AE00024C8F840402DE1A1
:10644000A54EDFF81C0B4FF08141C0E914160096F1
:10645000D8F81860A1493046FCF712F9834698F83D
:10646000C903012818BFB346D9F864005946FCF7A0
:1064700007FA00287ED10025CA46B94698498DF80A
:106480000B50ADF808508DF80750D8F89870384682
:10649000FCF7BEF904465846FCF729FA002C0646DC
:1064A0004FEA900415D14A2C8DF8075033D8642058
:1064B0004F460021D146ADF80800DFF88C03FEF707
:1064C000CFFB13294CD8FEF7E1FA49D2FEF73CFA8C
:1064D000F5E783493846FCF7C5F9002568BB38461F
:1064E0000021FCF795F94F46D146E0BB00204A2C2D
:1064F0008DF8070024D864200021ADF80800D148A9
:10650000FEF7AEFB132900F25F81FEF7BFFA27D238
:10651000FEF71AFAF4E74FF496704F461421D1466D
:10652000ADF80800C848FEF79BFB272918D8FEF7EE
:10653000ADFA15D2FEF708FAF5E74F46D14612E05C
:106540004FF496701421ADF80800BE48FEF788FBA2
:10655000272905D8FEF79AFA02D2FEF7F5F9F5E7F2
:106560009DF80B10455C68B2C9F864B0FCF7B1F94E
:10657000C8F8D000B54E758D092D16D896F82C00A8
:1065800001F084FAFCF7AEF946F825000446308D98
:1065900001357585FCF7A6F90146FEF7F4FAFCF71C
:1065A000A6F9A9B2B0FBF1F10CE0308D0A24B0FBE2
:1065B000F4F1451A96F82C0001F068FA284481B2EB
:1065C000B1FBF4F130858808FCF78CF9D8F8281075
:1065D000D8F8D040C8F80000FCF7A4F82146FCF732
:1065E0004FF8064698F8C90302280DD193480021B8
:1065F000C16681660166C165A9F84C1089F8121060
:10660000C8F8401081652EE098F8C20318B198F8D8
:10661000D913012919D18E495846BA46FCF730F8EA
:10662000074630463946FCF71DF930B98949FEF76F
:106630007DF9FEF754FB002854D030463946FCF76C
:1066400011F938B10025574615E0012808BF002987
:1066500009D1CBE77F49FEF769F9FEF740FB5746C2
:1066600008B1854D07E0D8F84040204600210025BC
:10667000FCF7F8F810B92C46C8F8405098F8C40355
:1066800060B16E480024C46684660466C465A9F8D7
:106690004C4089F81240C8F84040846598F8EB03F4
:1066A00020B920460021FCF7DDF810B90024C8F815
:1066B00040402046FCF734F93864386840F0010067
:1066C00038606FF00100386105B0BDE8F08F00BFA1
:1066D000000C004000401C4600007A460000484282
:1066E0000000A0415C49FEF721F9FEF7F4FA30B949
:1066F0005A49FEF71BF9FEF7F2FA002866D000208F
:10670000A9F84C0089F8120058463146FCF70AF8FF
:106710004A4F3866386EB96EFBF7B2FFB866554D12
:10672000B86EFEF7EFF800B9BD66B86E0021002420
:10673000FCF798F800B9BC66D7E91354386EF96DC8
:10674000FBF7F0FF786620463E6EB96EFBF7F0FF70
:10675000396F0490039104980399FCF759F808B92C
:10676000039804900498039981F00041FCF76CF8B9
:1067700018B9039880F00040049028463146FBF792
:10678000D7FF0499FBF77CFF0446796E0098FBF76E
:10679000CFFF2146FBF774FFF866386EF865F86E98
:1067A000796FFCF735F808B9786FF866F86E796F8D
:1067B00081F00041FCF748F808B90020F866FC6E4B
:1067C0005746C8F8404050E70025CCE6B9F84C00E1
:1067D0000130A9F84C0080B23C2895D3204900989C
:1067E000FBF74EFF164F04463946FCF73BF818B14D
:1067F00012480094446518E0104D286D6F65FCF751
:10680000BCF8184A184BFBF7CFFC184B0022044683
:106810000F46FCF743F820B120463946FCF7C0F894
:1068200000E01348286506480090012089F812000E
:106830000020A9F84C0067E708010020880100202B
:1068400000401C462AD00108F0CF0108040E0020A9
:106850000000C8420000C8C20000A0400000A0C064
:106860000000FAC49A9999999999B9BF0000084013
:106870000000404000C82F47007F3B472DE9F04112
:1068800002FB03F4069D00264FEA4408DFF8BC44EF
:10689000023D94F8D643012C00F08B80002C40F090
:1068A00028827F2D00F22582DFE815F0800040016C
:1068B000320176012302840123028C0123029C0110
:1068C0002302B401230280012302900123029201DA
:1068D0002302AE01230294012302780123027401F2
:1068E0002302B6012302AA0123027A0123029601A0
:1068F00023029E0123027C012302A2012302340110
:106900003601A0012302C0012302B0012302B80115
:106910002302A4012302A601230286012302AC0163
:1069200023025C012A0144016E012302B201230209
:10693000BA0123028E01230226012C0138015201E3
:1069400012012401BC0123022302A80170012302C9
:10695000820123022801180160015E011C01580117
:106960009801230272012302C20123026A01230259
:10697000640166015A0146014201300148012001CB
:10698000880123022302C40154016C0123024A013D
:106990000E017E0123024C01160168010A013C012F
:1069A0001A012302230210014E019A014FF4962688
:1069B0009FE17F2D00F29D81DFE815F08000B80097
:1069C000AA0064019B0166019B0156019B016801BD
:1069D0009B016A019B017E019B016C019B014A01A5
:1069E0009B0158019B015A019B014C019B016E01C7
:1069F0009B0170019B0180019B0182019B014E0163
:106A00009B015C019B0184019B0150019B01AC0037
:106A1000AE0072019B0152019B018C019B018E0112
:106A20009B015E019B0160019B0174019B0162015E
:106A30009B01D400A200BC0090019B0146019B0178
:106A400076019B0148019B019E00A400B000CA0092
:106A50008A009C0078019B019B017A0192019B01B5
:106A60007C019B01A0009000D800D6009400D000CB
:106A700086019B0144019B0188019B018A019B01C6
:106A8000DC00DE00D200BE00BA00A800C000980002
:106A900094019B019B019601CC009A019B01C200CD
:106AA000860054019B01C4008E00E0008200B40007
:106AB00092009B0140018800C60042019F4E18E1F0
:106AC000A64C04F5487614E1A84E12E1A04E10E160
:106AD000BD4C04F59C660CE1A14E0AE1B44C02E009
:106AE0009D4E06E1B14C04F5196602E1A34C04F594
:106AF000E176FEE0B34EFCE0B44EFAE0AC4EF8E0D6
:106B0000B84C22E0B14C04F5BD66F2E09C4EF0E0DA
:106B10008B4EEEE0BD4EECE0BB4EEAE0AB4C04F534
:106B20003D66E6E08D4C04F5C866E2E0854EE0E0A7
:106B3000944EDEE0AA4EDCE0934EDAE08F4ED8E0D1
:106B40008B4ED6E0874ED4E0814C04F5E146D0E090
:106B50009D4ECEE0884C04F55256CAE0924EC8E0F5
:106B60008A4EC6E09F4EC4E0904EC2E0904C04F5C1
:106B70009956BEE0874EBCE0854EBAE0774EB8E04D
:106B8000B94EB6E0B74EB4E0C14EB2E0BB4EB0E095
:106B9000B74EAEE0CE4EACE06B4EAAE0CD4EA8E0D4
:106BA000C84EA6E0C44EA4E0AD4EA2E0CE4EA0E09A
:106BB000B14E9EE0D04E9CE0B74E9AE06F4C04F58B
:106BC000617696E0CB4E94E0AE4E92E0C54E90E0FA
:106BD000C34E8EE0C04E8CE0B94E8AE0A54E88E0F0
:106BE000C64E86E0C24E84E0B44E82E0B04E80E0F5
:106BF000B04E7EE0AA4E7CE0A84E7AE0A04E78E04F
:106C0000B14E76E0A34E74E0B44E72E0A64E70E052
:106C10009E4E6EE0B54E6CE0AC4E6AE0A14E68E070
:106C2000994E66E0674C04F5527662E09F4E60E054
:106C30008E4E5EE0504C04F50C565AE0454E58E03E
:106C4000864E56E0564E54E0634E52E0604E50E0A1
:106C50007A4E4EE0764E4CE0704E4AE06C4E48E084
:106C6000674E46E0404E44E0794E42E0724E40E0CE
:106C7000704E3EE0684E3CE05E4E3AE05C4E38E0DE
:106C8000594E36E0744E34E0724E32E06F4E30E0D2
:106C90006D4E2EE06A4E2CE0644E2AE0624E28E0F3
:106CA000584E26E0514E24E04A4E22E0444E20E069
:106CB000424E1EE03F4E1CE0624E1AE0594E18E074
:106CC000574E16E0534E14E0364E12E0334E10E0AD
:106CD000314E0EE0494E0CE0474E0AE03F4E08E0D0
:106CE000354E06E0244E04E0234C04F58C5600E0BB
:106CF000204E02440B44FDF7D1FF814D3146B8F1DF
:106D0000000F08BFBDE8F0814646B8F5806F284601
:106D10000F4628BF4FF48066324603F077FA00240E
:106D2000B44206D2285B00BA000CFCF73DFA0234EC
:106D3000F6E7A8EB0608F119E1E700BF0481B70008
:106D4000002F0D0080EF0800806E1100CC1700208E
:106D50006818BC0084C0BB00104DB700ECEEB60054
:106D600064DDB600DCCBB600E897B600D25FB600B3
:106D7000A456B600F406B600E47AB500E065B500A6
:106D80000043B5002020B50040FDB40060DAB40037
:106D900080B7B400A094B4009A7CB4008E4CB400C8
:106DA000A019B400D0E3B3003CC0B30000AEB30000
:106DB0005091B3005669B3006219B30088B3B200B2
:106DC0009894B2006072B200386AB2008859B2007A
:106DD0006E9CB1003A22B00006A8AE000893AD0048
:106DE000B237AD00C0C3AC0050E7AA00CC6BA7001F
:106DF000A42DA4007CEFA00054B19D002C739A0038
:106E000004359700DCF693008802910048AD8F00AE
:106E10003EDB8D002A378A001693860002EF82003F
:106E2000E47D7F00BC3F7C00940179000023730067
:106E300000A46A000025620000A659000027510046
:106E400000A848000029400000AA3700002B2F00AE
:106E500000AC2600002D1E0000AE15005815C30022
:106E6000F463B60044B7B5009464B4008834B40049
:106E7000B8FEB300E8C8B3005C41B30068F1B200EB
:106E800078D2B20054DFB0002065AF00ECEAAD006C
:106E9000243BAD00E00AA900B8CCA500908EA2006A
:106EA00068509F0040129C0018D49800F0959500FF
:106EB000C857920034098C00206588000CC18400FA
:106EC000F81C8100D0DE7D00A8A07A0080627700E7
:106ED00080E36E008064660080E55D00806655009A
:106EE00080E74C008068440080E93B00806A330002
:106EF00080EB2A00806C220080ED1900E838C10088
:106F000000020020BCB5154C2068E06880060CD556
:106F10002068800609D56168114D05F12800C9B2C5
:106F200003F0FCF84FF48270A886E068400610D5A4
:106F3000206840060DD50A4D6FF040000DF10701A5
:106F4000206005F1380003F0D6F818B1002085F86C
:106F50004500BCBD9DF807006060BCBD0038014025
:106F600088010020FEE700000648BFF34F8F064A65
:106F7000016801F4E06111430160BFF34F8F00BF6E
:106F8000FDE700BF0CED00E00400FA0510B500EBD2
:106F900040010A284FF00702084B28BF1E3902FAA9
:106FA00001F14FF00C0238BF1022D4582143D150C8
:106FB000596B21F01F010843586310BD00240140A4
:106FC0000148102101607047141C01400148102144
:106FD00001607047101C014018B3F0B50844511A05
:106FE000BE4A4B1C990802F5A2640D462DB150F81B
:106FF000046B013D36BA40C4F8E713F003030ED02A
:10700000002418250026A34205D0075D0134AF40B7
:10701000083D3E43F7E702EB8100C0F81065BDE88C
:10702000F0407047AD4901F5A262044918B108CAA1
:1070300001380B60FAE70868704700BF0030024073
:1070400032490A68C2F38103314AF0B5DFE803F040
:1070500002380A380B6D9B0532D5CB6A9B0148BFBD
:107060002D4A2DE00B688C6A1B0C002C13D40C6885
:107070000D68C5F34175C4F383440DB90F2C43D19A
:107080002D0101352C44DB0702D00B689B0300D592
:10709000204A624314E08C6A8D6A8E6ADB071D4BBE
:1070A000C4F30314C5F3082506F0070603D00F68E0
:1070B000BF0358BF134604FA06F26B43B3FBF2F268
:1070C000026016A40B68C3F30313E35C174CDA40A9
:1070D00042600B68C3F30223E35C22FA03F3C3604C
:1070E0000B68C3F3C223E35C0424DA4082600B68BC
:1070F000096804EA9363C1F3813119440CA3595C14
:10710000B2FBF1F10161F0BD0225BBE704100240C2
:1071100000127A0000093D00006CDC020000000053
:10712000000000000102030406070809E8CF010877
:1071300002040608020C08107CB5044600204FF635
:10714000FF75C6B2152E09D8301900F08BFCADF8CA
:107150000600B01CBDF80610A942F2D1BDF8060029
:107160007CBD00000B4A5368DB0103D4536843F035
:10717000807353600823032808BF102301FA03F02B
:107180006FF47F4108BF6FF47F0113681940084313
:1071900010607047A000024002684BF6EF731A407F
:1071A00002600A8903681A4302604A7C036802F09D
:1071B000030223F4405343EA02320260CA7B0368AD
:1071C00002F0030223F4406343EA822202608A7BD6
:1071D000036802F0030223F4407343EA02220260D0
:1071E0004A7B036802F0010223F0800343EAC212E3
:1071F00002600A7B036862F3861303600A7C0368FB
:1072000062F3451303604A8942600A6882604968F4
:10721000C1607047016821F0010101600021016037
:1072200041608160C16040F2FF4100EA01020B4908
:10723000B2F5816F04D3D208902A0ED801F580618F
:1072400000F0FC0014220838B0FBF2F00F2280009E
:1072500002FA00F00A681043086070470400024018
:10726000064907480A7822B94CF6CC42026001224E
:107270000A704AF6AA210160704700BF000E002084
:107280000030004010B5154C08480949FDF74DFC89
:10729000FDF708FCFDF766FB1349FDF724FD84F8B4
:1072A00023141620BDE8104003F06ABA01000A1842
:1072B000D103030910B5094C09480A49FDF735FC0B
:1072C000FDF7F0FBFDF74EFB0749FDF70CFD84F8D9
:1072D00023141620BDE8104003F052BAB40E00206B
:1072E00001000A1DD10302090830024010B5214CEB
:1072F000226842F00102226001804FF4801000F009
:1073000017F8FDF7A1BD00BF08480168C9071CBFF9
:10731000002070470168490744BF0120704700689A
:10732000C0064FF0020058BF032070470C200240F7
:10733000B0B50446FFF7E8FF0025013C45F1000128
:1073400018B911B1FFF7E0FFF7E7B0BD10B5094C70
:10735000216841F0020121606060206840F0400037
:1073600020604FF08040FFF7E3FF206820F002002C
:10737000206010BD102002402DE9F047DFF878981A
:1073800099F8EB0308B1BDE8F087DFF8488998F871
:1073900001000328F7D8DFE800F002E109B999F805
:1073A000E903002800F0FE810120F7E1684E98F81B
:1073B0000C10684FDFF84CA606F1100011F0010523
:1073C00008BF07F10E0099F8C613D04706F1120066
:1073D000002D08BF07F1100099F8CD13D04706F132
:1073E0001400002D08BF07F1120099F8D013D04700
:1073F00006F11600002D08BF07F1140099F8D61306
:10740000D04706F11804002D08BF07F11604D9F87B
:107410002800FBF76CFA01462046D04706F11A0017
:10742000002D08BF07F1180099F8D313D04706F1D3
:107430001C00002D08BF07F11A0099F8D913D04796
:1074400006F11E00002D08BF07F11C0099F8C913B2
:10745000D04706F12000002D08BF07F11E0099F863
:10746000E013D04706F12200002D08BF07F12000ED
:1074700099F8E213D04706F12400002D08BF07F168
:10748000220099F8E413D04706F12604002D08BF26
:1074900007F12404D9F8BC00FBF729FA014620467D
:1074A000D04799F8C60388F8020099F8CD0388F808
:1074B000030099F8D00388F8040099F8D60388F8F7
:1074C000050099F8D30388F8060099F8D90388F8DD
:1074D000070099F8C90388F8080099F8E00388F8CC
:1074E0000900D9F82800FBF702FAA8F8460099F835
:1074F000E20388F80A0099F8E40388F80B00D9F849
:10750000BC00FBF7F4F9A8F8480044E1104898F8EB
:107510000C2010492830D20708BF01F12600B8F826
:107520004A10FFF7E3FE0C48C16841F08001C160DA
:10753000012088F80100B8F84A000130A8F84A0094
:1075400098F80C00013088F80C00BDE8F08700BF07
:1075500000F0010802F8010804200240B8F83E00DB
:10756000FBF7C0F90146D9F81800FBF789F90028A4
:1075700000F08C80B8F84000FBF7B4F90146D9F868
:107580009800FBF77DF9002800F08080B8F84200F1
:10759000FBF7A8F90446D9F86800FDF702FB0028BC
:1075A00074D0B8F84400FBF79DF90546D9F880007F
:1075B000FDF7FAFA002869D0D9F86C00FDF7F1FA66
:1075C000002863D0D9F88400FDF7EEFA00285DD0DA
:1075D000D9F87000FDF7E5FA002857D0D9F88800EF
:1075E000FDF7E2FA002851D099F8C60398F8021086
:1075F00081424BD199F8CD0398F80310814245D1CF
:1076000099F8D00398F8041081423FD199F8D60335
:1076100098F80510814239D1B8F84600FBF762F9B5
:107620000146D9F82800FBF72BF978B399F8D30372
:1076300098F80610814229D199F8D90398F80710D3
:10764000814223D199F8C90398F8081081421DD1CD
:1076500099F8E00398F80910814217D199F8E203EC
:1076600098F80A10814211D199F8E40398F80B10A8
:1076700081420BD1B8F84800FBF734F90146D9F83C
:10768000BC00FBF7FDF800287FF47DAEDC48DE4946
:107690000160DE490160D94998F80C000C468A4621
:1076A00010F0010608BF04F500642046FFF74EFE07
:1076B000D9F81800FBF71BF9D24FFDF7B1FA0AF120
:1076C0000204002E04BF4FF60204C0F60104D9F8EC
:1076D0009800FBF70CF9FDF7A3FA0AF10404C64D74
:1076E000002E08BFAC1CD9F86800FBF700F9FDF7C5
:1076F00097FA0AF10604002E08BF2C1DD9F8800065
:10770000FBF7F5F8FDF78CFA0AF10804002E08BF24
:10771000AC1DD9F86C00FBF7EAF8FDF781FA0AF125
:107720000A04002E08BF05F10804D9F88400FBF70D
:10773000DEF8FDF775FA0AF10C04002E08BF05F11A
:107740000A04D9F87000FBF7D2F8FDF769FA0AF1DC
:107750000E04002E08BF05F10C04D9F88800FBF7D1
:10776000C6F8FDF75DFAD9F81800D9F87040D9F8D5
:107770008850D9F89860FBF7BAF8A8F83E00FDF7F2
:10778000EAFAA8F84000FDF721FAA8F84200FDF750
:1077900041FAA8F8440098F80100013088F8010087
:1077A000BDE8F087EA4C2046FFF7C6FC4FF6FF75B0
:1077B000A84210D02046FFF7BFFCA8420BD004F12E
:1077C000280000F04FF904468B48263000F04AF9B3
:1077D000844205D80DE02046FFF7AEFCA84202D057
:1077E00000F068F936E004F50060FFF7A5FCA84258
:1077F00002D000F0AFF92DE085488749884B874AD1
:10780000884C0025012689F8D65389F8D06389F879
:10781000CD5389F8C65389F8D95389F8D363C9F889
:10782000285089F8E46389F8E26389F8C953C9F8F4
:10783000BC007848C9F81810C9E92024C9E91A31F0
:10784000C9F89800C9F888007748C9F87000022084
:1078500089F8E003D9F818407449FDF791F918B98F
:107860006B49FDF7B0F910B96B48C9F81800D9F8A1
:1078700098406F49FDF784F918B96E49FDF7A3F9EF
:1078800010B96448C9F89800D9F8BC406849FDF7B8
:1078900077F918B96749FDF796F910B95C48C9F846
:1078A000BC00D9F868406149FDF76AF918B9584930
:1078B000FDF789F910B95A48C9F86800D9F86C4041
:1078C0005A49FDF75DF918B95149FDF77CF910B92E
:1078D0005148C9F86C00D9F870405449FDF750F987
:1078E00018B94B49FDF76FF910B94F48C9F8700046
:1078F000D9F880404E49FDF743F918B94D49FDF7D5
:1079000062F910B94548C9F88000D9F8844048495F
:10791000FDF736F918B94749FDF755F910B941484F
:10792000C9F88400D9F888404149FDF729F918B908
:107930004049FDF748F910B93648C9F8880099F868
:10794000C6033349022824BF002089F8C60399F8EA
:10795000CD03022824BF002089F8CD0399F8D00375
:10796000022824BF012089F8D00399F8D603022801
:1079700024BF002089F8D603D9F82840FDF700F984
:1079800018B92D49FDF71FF910B90020C9F82800D2
:1079900099F8D303022824BF002089F8D30399F86B
:1079A000D90310B1002089F8D903FDF7CDF924BF20
:1079B000002089F8C90399F8E003043810F1030F97
:1079C0009CBF022089F8E00399F8E203043810F123
:1079D000040F9CBF012089F8E20399F8E4030438FE
:1079E00010F1040F9CBF012089F8E403012089F8FD
:1079F000E903BDE8F08700BF02F8010800F00108C4
:107A000004200240ED72000823016745AB89EFCDE9
:107A10000000C842000020420000BE430000A04118
:107A20000000AF430000F0410000C8430000FA43EB
:107A3000000020430000A0400000C8C210B5074C61
:107A40000749206840F001002060A64801604FF41B
:107A50008010FFF76DFCFDF7F7B900BF1020024062
:107A6000384B544181B00168D0F801008DF8001006
:107A70008DF801009DF801009DF8001041EA0020FA
:107A8000ADF80200BDF8020001B0704710B5084C17
:107A90006FF002012160FFF779FAA06840F48000DE
:107AA000A06020688007FCD5E06C80B210BD00BFEC
:107AB0000024014070B5264C4E4D2046A847FAF7E9
:107AC00011FF4D4EB061A01CA847FAF70BFFC6F896
:107AD0009800201DA847FAF705FFB066A01DA8472B
